{
  "_format": "hh-sol-artifact-1",
  "contractName": "Tinseltoken",
  "sourceName": "contracts/Tinseltoken.sol",
  "abi": [
    {
      "inputs": [],
      "stateMutability": "nonpayable",
      "type": "constructor"
    },
    {
      "anonymous": false,
      "inputs": [
        {
          "indexed": true,
          "internalType": "address",
          "name": "owner",
          "type": "address"
        },
        {
          "indexed": true,
          "internalType": "address",
          "name": "spender",
          "type": "address"
        },
        {
          "indexed": false,
          "internalType": "uint256",
          "name": "value",
          "type": "uint256"
        }
      ],
      "name": "Approval",
      "type": "event"
    },
    {
      "anonymous": false,
      "inputs": [
        {
          "indexed": true,
          "internalType": "address",
          "name": "previousOwner",
          "type": "address"
        },
        {
          "indexed": true,
          "internalType": "address",
          "name": "newOwner",
          "type": "address"
        }
      ],
      "name": "OwnershipTransferred",
      "type": "event"
    },
    {
      "anonymous": false,
      "inputs": [
        {
          "indexed": true,
          "internalType": "address",
          "name": "burner",
          "type": "address"
        },
        {
          "indexed": false,
          "internalType": "uint256",
          "name": "amount",
          "type": "uint256"
        }
      ],
      "name": "TokensBurned",
      "type": "event"
    },
    {
      "anonymous": false,
      "inputs": [
        {
          "indexed": true,
          "internalType": "address",
          "name": "to",
          "type": "address"
        },
        {
          "indexed": false,
          "internalType": "uint256",
          "name": "amount",
          "type": "uint256"
        }
      ],
      "name": "TokensMinted",
      "type": "event"
    },
    {
      "anonymous": false,
      "inputs": [
        {
          "indexed": true,
          "internalType": "address",
          "name": "from",
          "type": "address"
        },
        {
          "indexed": true,
          "internalType": "address",
          "name": "to",
          "type": "address"
        },
        {
          "indexed": false,
          "internalType": "uint256",
          "name": "value",
          "type": "uint256"
        }
      ],
      "name": "Transfer",
      "type": "event"
    },
    {
      "inputs": [],
      "name": "INITIAL_SUPPLY",
      "outputs": [
        {
          "internalType": "uint256",
          "name": "",
          "type": "uint256"
        }
      ],
      "stateMutability": "view",
      "type": "function"
    },
    {
      "inputs": [
        {
          "internalType": "address",
          "name": "owner",
          "type": "address"
        },
        {
          "internalType": "address",
          "name": "spender",
          "type": "address"
        }
      ],
      "name": "allowance",
      "outputs": [
        {
          "internalType": "uint256",
          "name": "",
          "type": "uint256"
        }
      ],
      "stateMutability": "view",
      "type": "function"
    },
    {
      "inputs": [
        {
          "internalType": "address",
          "name": "spender",
          "type": "address"
        },
        {
          "internalType": "uint256",
          "name": "amount",
          "type": "uint256"
        }
      ],
      "name": "approve",
      "outputs": [
        {
          "internalType": "bool",
          "name": "",
          "type": "bool"
        }
      ],
      "stateMutability": "nonpayable",
      "type": "function"
    },
    {
      "inputs": [
        {
          "internalType": "address",
          "name": "account",
          "type": "address"
        }
      ],
      "name": "balanceInReadableFormat",
      "outputs": [
        {
          "internalType": "uint256",
          "name": "",
          "type": "uint256"
        }
      ],
      "stateMutability": "view",
      "type": "function"
    },
    {
      "inputs": [
        {
          "internalType": "address",
          "name": "account",
          "type": "address"
        }
      ],
      "name": "balanceOf",
      "outputs": [
        {
          "internalType": "uint256",
          "name": "",
          "type": "uint256"
        }
      ],
      "stateMutability": "view",
      "type": "function"
    },
    {
      "inputs": [
        {
          "internalType": "uint256",
          "name": "amount",
          "type": "uint256"
        }
      ],
      "name": "burn",
      "outputs": [],
      "stateMutability": "nonpayable",
      "type": "function"
    },
    {
      "inputs": [],
      "name": "decimals",
      "outputs": [
        {
          "internalType": "uint8",
          "name": "",
          "type": "uint8"
        }
      ],
      "stateMutability": "pure",
      "type": "function"
    },
    {
      "inputs": [
        {
          "internalType": "address",
          "name": "spender",
          "type": "address"
        },
        {
          "internalType": "uint256",
          "name": "subtractedValue",
          "type": "uint256"
        }
      ],
      "name": "decreaseAllowance",
      "outputs": [
        {
          "internalType": "bool",
          "name": "",
          "type": "bool"
        }
      ],
      "stateMutability": "nonpayable",
      "type": "function"
    },
    {
      "inputs": [
        {
          "internalType": "address",
          "name": "spender",
          "type": "address"
        },
        {
          "internalType": "uint256",
          "name": "addedValue",
          "type": "uint256"
        }
      ],
      "name": "increaseAllowance",
      "outputs": [
        {
          "internalType": "bool",
          "name": "",
          "type": "bool"
        }
      ],
      "stateMutability": "nonpayable",
      "type": "function"
    },
    {
      "inputs": [
        {
          "internalType": "address",
          "name": "to",
          "type": "address"
        },
        {
          "internalType": "uint256",
          "name": "amount",
          "type": "uint256"
        }
      ],
      "name": "mint",
      "outputs": [],
      "stateMutability": "nonpayable",
      "type": "function"
    },
    {
      "inputs": [],
      "name": "name",
      "outputs": [
        {
          "internalType": "string",
          "name": "",
          "type": "string"
        }
      ],
      "stateMutability": "view",
      "type": "function"
    },
    {
      "inputs": [],
      "name": "owner",
      "outputs": [
        {
          "internalType": "address",
          "name": "",
          "type": "address"
        }
      ],
      "stateMutability": "view",
      "type": "function"
    },
    {
      "inputs": [],
      "name": "renounceOwnership",
      "outputs": [],
      "stateMutability": "nonpayable",
      "type": "function"
    },
    {
      "inputs": [],
      "name": "symbol",
      "outputs": [
        {
          "internalType": "string",
          "name": "",
          "type": "string"
        }
      ],
      "stateMutability": "view",
      "type": "function"
    },
    {
      "inputs": [],
      "name": "totalSupply",
      "outputs": [
        {
          "internalType": "uint256",
          "name": "",
          "type": "uint256"
        }
      ],
      "stateMutability": "view",
      "type": "function"
    },
    {
      "inputs": [],
      "name": "totalSupplyInReadableFormat",
      "outputs": [
        {
          "internalType": "uint256",
          "name": "",
          "type": "uint256"
        }
      ],
      "stateMutability": "view",
      "type": "function"
    },
    {
      "inputs": [
        {
          "internalType": "address",
          "name": "to",
          "type": "address"
        },
        {
          "internalType": "uint256",
          "name": "amount",
          "type": "uint256"
        }
      ],
      "name": "transfer",
      "outputs": [
        {
          "internalType": "bool",
          "name": "",
          "type": "bool"
        }
      ],
      "stateMutability": "nonpayable",
      "type": "function"
    },
    {
      "inputs": [
        {
          "internalType": "address",
          "name": "from",
          "type": "address"
        },
        {
          "internalType": "address",
          "name": "to",
          "type": "address"
        },
        {
          "internalType": "uint256",
          "name": "amount",
          "type": "uint256"
        }
      ],
      "name": "transferFrom",
      "outputs": [
        {
          "internalType": "bool",
          "name": "",
          "type": "bool"
        }
      ],
      "stateMutability": "nonpayable",
      "type": "function"
    },
    {
      "inputs": [
        {
          "internalType": "address",
          "name": "newOwner",
          "type": "address"
        }
      ],
      "name": "transferOwnership",
      "outputs": [],
      "stateMutability": "nonpayable",
      "type": "function"
    }
  ],
  "bytecode": "0x60803462000436576040906001600160401b03908083018281118282101762000420578352600b81526020906a2a34b739b2b63a37b5b2b760a91b82820152835190848201828110858211176200042057855260049384835263544e544360e01b848401528151928184116200040b576003908154946001948587811c9716801562000400575b88881014620003eb578190601f9788811162000395575b5088908883116001146200032e5760009262000322575b505060001982851b1c191690851b1782555b80519283116200030d5786548481811c9116801562000302575b87821014620002ed57858111620002a2575b50859085841160011462000237579383949184926000956200022b575b50501b92600019911b1c19161783555b60058054336001600160a01b03198216811790925585519291906001600160a01b03167f8be0079c531659141344cd1fd0a4f28419497f9722a3daafe3b4186f6b6457e0600080a33315620001ee5750506002546aa56fa5b99019a5c800000092838201809211620001d957506000917fddf252ad1be2c89b69c2b068fc378daa952ba7f163c4a11628f55a4df523b3ef9160025533835282815284832084815401905584519384523393a351610d8790816200043c8239f35b601190634e487b7160e01b6000525260246000fd5b6064928462461bcd60e51b845283015260248201527f45524332303a206d696e7420746f20746865207a65726f2061646472657373006044820152fd5b0151935038806200010f565b9190601f198416928860005284886000209460005b8a898383106200028a57505050106200026f575b50505050811b0183556200011f565b01519060f884600019921b161c191690553880808062000260565b8686015189559097019694850194889350016200024c565b87600052866000208680860160051c820192898710620002e3575b0160051c019085905b828110620002d6575050620000f2565b60008155018590620002c6565b92508192620002bd565b602288634e487b7160e01b6000525260246000fd5b90607f1690620000e0565b604187634e487b7160e01b6000525260246000fd5b015190503880620000b4565b90879350601f19831691866000528a6000209260005b8c8282106200037e575050841162000365575b505050811b018255620000c6565b015160001983871b60f8161c1916905538808062000357565b8385015186558b9790950194938401930162000344565b90915084600052886000208880850160051c8201928b8610620003e1575b918991869594930160051c01915b828110620003d15750506200009d565b60008155859450899101620003c1565b92508192620003b3565b602289634e487b7160e01b6000525260246000fd5b96607f169662000086565b604186634e487b7160e01b6000525260246000fd5b634e487b7160e01b600052604160045260246000fd5b600080fdfe6080604081815260048036101561001557600080fd5b600092833560e01c90816306fdde03146108f757508063095ea7b3146108cd57806318160ddd146108ae57806323b872dd146107e45780632ff2e9dc146107c5578063313ce567146107a957806339509351146107595780633cd651ac1461071757806340c10f191461062857806342966c68146104ed57806370a08231146104b6578063715018a6146104595780637afc8964146104305780638da5cb5b1461040757806395d89b41146102e7578063a457c2d714610240578063a9059cbb1461020f578063dd62ed3e146101c25763f2fde38b146100f457600080fd5b346101be5760203660031901126101be5761010d610a35565b90610116610a66565b6001600160a01b0391821692831561016c575050600554826bffffffffffffffffffffffff60a01b821617600555167f8be0079c531659141344cd1fd0a4f28419497f9722a3daafe3b4186f6b6457e08380a380f35b906020608492519162461bcd60e51b8352820152602660248201527f4f776e61626c653a206e6577206f776e657220697320746865207a65726f206160448201526564647265737360d01b6064820152fd5b8280fd5b50503461020b578060031936011261020b57806020926101e0610a35565b6101e8610a50565b6001600160a01b0391821683526001865283832091168252845220549051908152f35b5080fd5b50503461020b578060031936011261020b5760209061023961022f610a35565b6024359033610ae1565b5160018152f35b5082346102e457826003193601126102e45761025a610a35565b918360243592338152600160205281812060018060a01b0386168252602052205490828210610293576020856102398585038733610c4f565b608490602086519162461bcd60e51b8352820152602560248201527f45524332303a2064656372656173656420616c6c6f77616e63652062656c6f77604482015264207a65726f60d81b6064820152fd5b80fd5b5091903461020b578160031936011261020b57805190828454600181811c908083169283156103fd575b60209384841081146103ea578388529081156103ce5750600114610379575b505050829003601f01601f191682019267ffffffffffffffff84118385101761036657508291826103629252826109ec565b0390f35b634e487b7160e01b815260418552602490fd5b8787529192508591837f8a35acfbc15ff81a39ae7d344fd709f28e8600b4aa8c65c6b64bfe7fe36bd19b5b8385106103ba5750505050830101388080610330565b8054888601830152930192849082016103a4565b60ff1916878501525050151560051b8401019050388080610330565b634e487b7160e01b895260228a52602489fd5b91607f1691610311565b50503461020b578160031936011261020b5760055490516001600160a01b039091168152602090f35b50503461020b578160031936011261020b57602090670de0b6b3a7640000600254049051908152f35b83346102e457806003193601126102e457610472610a66565b600580546001600160a01b0319811690915581906001600160a01b03167f8be0079c531659141344cd1fd0a4f28419497f9722a3daafe3b4186f6b6457e08280a380f35b50503461020b57602036600319011261020b5760209181906001600160a01b036104de610a35565b16815280845220549051908152f35b5090346101be57602090816003193601126106245782359233156105d957338552848352818520549084821061058b575090837ffd38818f5291bf0bb3a2a48aadc06ba8757865d1dabd804585338aab3009dcb69392338752868452038186205583600254036002558481518581527fddf252ad1be2c89b69c2b068fc378daa952ba7f163c4a11628f55a4df523b3ef843392a3519283523392a280f35b825162461bcd60e51b8152908101849052602260248201527f45524332303a206275726e20616d6f756e7420657863656564732062616c616e604482015261636560f01b6064820152608490fd5b82608492519162461bcd60e51b8352820152602160248201527f45524332303a206275726e2066726f6d20746865207a65726f206164647265736044820152607360f81b6064820152fd5b8380fd5b5090346101be57806003193601126101be57610642610a35565b906024359161064f610a66565b6001600160a01b03169283156106d55750816020916106917f3f2c9d57c068687834f0de942a9babb9e5acab57d516d3480a3c16ee165a427394600254610abe565b60025584865285835280862082815401905584867fddf252ad1be2c89b69c2b068fc378daa952ba7f163c4a11628f55a4df523b3ef858451868152a351908152a280f35b6020606492519162461bcd60e51b8352820152601f60248201527f45524332303a206d696e7420746f20746865207a65726f2061646472657373006044820152fd5b50503461020b57602036600319011261020b57602091670de0b6b3a76400009082906001600160a01b03610749610a35565b1681528085522054049051908152f35b50503461020b578060031936011261020b576102396020926107a261077c610a35565b338352600186528483206001600160a01b03821684528652918490205460243590610abe565b9033610c4f565b50503461020b578160031936011261020b576020905160128152f35b50503461020b578160031936011261020b5760209051630bebc2008152f35b5082903461020b57606036600319011261020b57610800610a35565b610808610a50565b91846044359460018060a01b038416815260016020528181203382526020522054906000198203610842575b602086610239878787610ae1565b84821061086b57509183916108606020969561023995033383610c4f565b919394819350610834565b606490602087519162461bcd60e51b8352820152601d60248201527f45524332303a20696e73756666696369656e7420616c6c6f77616e63650000006044820152fd5b50503461020b578160031936011261020b576020906002549051908152f35b50503461020b578060031936011261020b576020906102396108ed610a35565b6024359033610c4f565b84915083346101be57826003193601126101be5782600354600181811c908083169283156109e2575b60209384841081146103ea578388529081156109c6575060011461097057505050829003601f01601f191682019267ffffffffffffffff84118385101761036657508291826103629252826109ec565b600387529192508591837fc2575a0e9e593c00f959f8c92f12db2869c3395a3b0502d05e2516446f71f85b5b8385106109b25750505050830101858080610330565b80548886018301529301928490820161099c565b60ff1916878501525050151560051b8401019050858080610330565b91607f1691610920565b6020808252825181830181905290939260005b828110610a2157505060409293506000838284010152601f8019910116010190565b8181018601518482016040015285016109ff565b600435906001600160a01b0382168203610a4b57565b600080fd5b602435906001600160a01b0382168203610a4b57565b6005546001600160a01b03163303610a7a57565b606460405162461bcd60e51b815260206004820152602060248201527f4f776e61626c653a2063616c6c6572206973206e6f7420746865206f776e65726044820152fd5b91908201809211610acb57565b634e487b7160e01b600052601160045260246000fd5b6001600160a01b03908116918215610bfc5716918215610bab57600082815280602052604081205491808310610b5757604082827fddf252ad1be2c89b69c2b068fc378daa952ba7f163c4a11628f55a4df523b3ef958760209652828652038282205586815220818154019055604051908152a3565b60405162461bcd60e51b815260206004820152602660248201527f45524332303a207472616e7366657220616d6f756e7420657863656564732062604482015265616c616e636560d01b6064820152608490fd5b60405162461bcd60e51b815260206004820152602360248201527f45524332303a207472616e7366657220746f20746865207a65726f206164647260448201526265737360e81b6064820152608490fd5b60405162461bcd60e51b815260206004820152602560248201527f45524332303a207472616e736665722066726f6d20746865207a65726f206164604482015264647265737360d81b6064820152608490fd5b6001600160a01b03908116918215610d005716918215610cb05760207f8c5be1e5ebec7d5bd14f71427d1e84f3dd0314c0f7b2291e5b200ac8c7c3b925918360005260018252604060002085600052825280604060002055604051908152a3565b60405162461bcd60e51b815260206004820152602260248201527f45524332303a20617070726f766520746f20746865207a65726f206164647265604482015261737360f01b6064820152608490fd5b60405162461bcd60e51b8152602060048201526024808201527f45524332303a20617070726f76652066726f6d20746865207a65726f206164646044820152637265737360e01b6064820152608490fdfea2646970667358221220e6b6897f912fd55797f858827cd48db4b94f84cd460c37aeed9ab1bbf7f40aa664736f6c63430008130033",
  "linkReferences": {},
  "deployedLinkReferences": {}
}