{
  "_format": "hh-sol-artifact-1",
  "contractName": "Tinseltoken",
  "sourceName": "contracts/Tinseltoken.sol",
  "abi": [
    {
      "inputs": [],
      "stateMutability": "nonpayable",
      "type": "constructor"
    },
    {
      "anonymous": false,
      "inputs": [
        {
          "indexed": true,
          "internalType": "address",
          "name": "owner",
          "type": "address"
        },
        {
          "indexed": true,
          "internalType": "address",
          "name": "spender",
          "type": "address"
        },
        {
          "indexed": false,
          "internalType": "uint256",
          "name": "value",
          "type": "uint256"
        }
      ],
      "name": "Approval",
      "type": "event"
    },
    {
      "anonymous": false,
      "inputs": [
        {
          "indexed": true,
          "internalType": "address",
          "name": "previousOwner",
          "type": "address"
        },
        {
          "indexed": true,
          "internalType": "address",
          "name": "newOwner",
          "type": "address"
        }
      ],
      "name": "OwnershipTransferred",
      "type": "event"
    },
    {
      "anonymous": false,
      "inputs": [
        {
          "indexed": true,
          "internalType": "address",
          "name": "burner",
          "type": "address"
        },
        {
          "indexed": false,
          "internalType": "uint256",
          "name": "amount",
          "type": "uint256"
        }
      ],
      "name": "TokensBurned",
      "type": "event"
    },
    {
      "anonymous": false,
      "inputs": [
        {
          "indexed": true,
          "internalType": "address",
          "name": "to",
          "type": "address"
        },
        {
          "indexed": false,
          "internalType": "uint256",
          "name": "amount",
          "type": "uint256"
        }
      ],
      "name": "TokensMinted",
      "type": "event"
    },
    {
      "anonymous": false,
      "inputs": [
        {
          "indexed": true,
          "internalType": "address",
          "name": "from",
          "type": "address"
        },
        {
          "indexed": true,
          "internalType": "address",
          "name": "to",
          "type": "address"
        },
        {
          "indexed": false,
          "internalType": "uint256",
          "name": "value",
          "type": "uint256"
        }
      ],
      "name": "Transfer",
      "type": "event"
    },
    {
      "inputs": [],
      "name": "INITIAL_SUPPLY",
      "outputs": [
        {
          "internalType": "uint256",
          "name": "",
          "type": "uint256"
        }
      ],
      "stateMutability": "view",
      "type": "function"
    },
    {
      "inputs": [
        {
          "internalType": "address",
          "name": "owner",
          "type": "address"
        },
        {
          "internalType": "address",
          "name": "spender",
          "type": "address"
        }
      ],
      "name": "allowance",
      "outputs": [
        {
          "internalType": "uint256",
          "name": "",
          "type": "uint256"
        }
      ],
      "stateMutability": "view",
      "type": "function"
    },
    {
      "inputs": [
        {
          "internalType": "address",
          "name": "spender",
          "type": "address"
        },
        {
          "internalType": "uint256",
          "name": "amount",
          "type": "uint256"
        }
      ],
      "name": "approve",
      "outputs": [
        {
          "internalType": "bool",
          "name": "",
          "type": "bool"
        }
      ],
      "stateMutability": "nonpayable",
      "type": "function"
    },
    {
      "inputs": [
        {
          "internalType": "address",
          "name": "account",
          "type": "address"
        }
      ],
      "name": "balanceInReadableFormat",
      "outputs": [
        {
          "internalType": "uint256",
          "name": "",
          "type": "uint256"
        }
      ],
      "stateMutability": "view",
      "type": "function"
    },
    {
      "inputs": [
        {
          "internalType": "address",
          "name": "account",
          "type": "address"
        }
      ],
      "name": "balanceOf",
      "outputs": [
        {
          "internalType": "uint256",
          "name": "",
          "type": "uint256"
        }
      ],
      "stateMutability": "view",
      "type": "function"
    },
    {
      "inputs": [
        {
          "internalType": "uint256",
          "name": "amount",
          "type": "uint256"
        }
      ],
      "name": "burn",
      "outputs": [],
      "stateMutability": "nonpayable",
      "type": "function"
    },
    {
      "inputs": [],
      "name": "decimals",
      "outputs": [
        {
          "internalType": "uint8",
          "name": "",
          "type": "uint8"
        }
      ],
      "stateMutability": "pure",
      "type": "function"
    },
    {
      "inputs": [
        {
          "internalType": "address",
          "name": "spender",
          "type": "address"
        },
        {
          "internalType": "uint256",
          "name": "subtractedValue",
          "type": "uint256"
        }
      ],
      "name": "decreaseAllowance",
      "outputs": [
        {
          "internalType": "bool",
          "name": "",
          "type": "bool"
        }
      ],
      "stateMutability": "nonpayable",
      "type": "function"
    },
    {
      "inputs": [
        {
          "internalType": "address",
          "name": "spender",
          "type": "address"
        },
        {
          "internalType": "uint256",
          "name": "addedValue",
          "type": "uint256"
        }
      ],
      "name": "increaseAllowance",
      "outputs": [
        {
          "internalType": "bool",
          "name": "",
          "type": "bool"
        }
      ],
      "stateMutability": "nonpayable",
      "type": "function"
    },
    {
      "inputs": [
        {
          "internalType": "address",
          "name": "to",
          "type": "address"
        },
        {
          "internalType": "uint256",
          "name": "amount",
          "type": "uint256"
        }
      ],
      "name": "mint",
      "outputs": [],
      "stateMutability": "nonpayable",
      "type": "function"
    },
    {
      "inputs": [],
      "name": "name",
      "outputs": [
        {
          "internalType": "string",
          "name": "",
          "type": "string"
        }
      ],
      "stateMutability": "view",
      "type": "function"
    },
    {
      "inputs": [],
      "name": "owner",
      "outputs": [
        {
          "internalType": "address",
          "name": "",
          "type": "address"
        }
      ],
      "stateMutability": "view",
      "type": "function"
    },
    {
      "inputs": [],
      "name": "renounceOwnership",
      "outputs": [],
      "stateMutability": "nonpayable",
      "type": "function"
    },
    {
      "inputs": [],
      "name": "symbol",
      "outputs": [
        {
          "internalType": "string",
          "name": "",
          "type": "string"
        }
      ],
      "stateMutability": "view",
      "type": "function"
    },
    {
      "inputs": [],
      "name": "totalSupply",
      "outputs": [
        {
          "internalType": "uint256",
          "name": "",
          "type": "uint256"
        }
      ],
      "stateMutability": "view",
      "type": "function"
    },
    {
      "inputs": [],
      "name": "totalSupplyInReadableFormat",
      "outputs": [
        {
          "internalType": "uint256",
          "name": "",
          "type": "uint256"
        }
      ],
      "stateMutability": "view",
      "type": "function"
    },
    {
      "inputs": [
        {
          "internalType": "address",
          "name": "to",
          "type": "address"
        },
        {
          "internalType": "uint256",
          "name": "amount",
          "type": "uint256"
        }
      ],
      "name": "transfer",
      "outputs": [
        {
          "internalType": "bool",
          "name": "",
          "type": "bool"
        }
      ],
      "stateMutability": "nonpayable",
      "type": "function"
    },
    {
      "inputs": [
        {
          "internalType": "address",
          "name": "from",
          "type": "address"
        },
        {
          "internalType": "address",
          "name": "to",
          "type": "address"
        },
        {
          "internalType": "uint256",
          "name": "amount",
          "type": "uint256"
        }
      ],
      "name": "transferFrom",
      "outputs": [
        {
          "internalType": "bool",
          "name": "",
          "type": "bool"
        }
      ],
      "stateMutability": "nonpayable",
      "type": "function"
    },
    {
      "inputs": [
        {
          "internalType": "address",
          "name": "newOwner",
          "type": "address"
        }
      ],
      "name": "transferOwnership",
      "outputs": [],
      "stateMutability": "nonpayable",
      "type": "function"
    }
  ],
  "bytecode": "0x60806040523480156200001157600080fd5b506040518060400160405280600b81526020016a2a34b739b2b63a37b5b2b760a91b81525060405180604001604052806004815260200163544e544360e01b815250816003908162000064919062000284565b50600462000073828262000284565b505050620000906200008a620000bf60201b60201c565b620000c3565b620000b933620000a36012600a62000465565b620000b390630bebc2006200047d565b62000115565b620004ad565b3390565b600580546001600160a01b038381166001600160a01b0319831681179093556040519116919082907f8be0079c531659141344cd1fd0a4f28419497f9722a3daafe3b4186f6b6457e090600090a35050565b6001600160a01b038216620001705760405162461bcd60e51b815260206004820152601f60248201527f45524332303a206d696e7420746f20746865207a65726f206164647265737300604482015260640160405180910390fd5b806002600082825462000184919062000497565b90915550506001600160a01b038216600081815260208181526040808320805486019055518481527fddf252ad1be2c89b69c2b068fc378daa952ba7f163c4a11628f55a4df523b3ef910160405180910390a35050565b505050565b634e487b7160e01b600052604160045260246000fd5b600181811c908216806200020b57607f821691505b6020821081036200022c57634e487b7160e01b600052602260045260246000fd5b50919050565b601f821115620001db57600081815260208120601f850160051c810160208610156200025b5750805b601f850160051c820191505b818110156200027c5782815560010162000267565b505050505050565b81516001600160401b03811115620002a057620002a0620001e0565b620002b881620002b18454620001f6565b8462000232565b602080601f831160018114620002f05760008415620002d75750858301515b600019600386901b1c1916600185901b1785556200027c565b600085815260208120601f198616915b82811015620003215788860151825594840194600190910190840162000300565b5085821015620003405787850151600019600388901b60f8161c191681555b5050505050600190811b01905550565b634e487b7160e01b600052601160045260246000fd5b600181815b80851115620003a75781600019048211156200038b576200038b62000350565b808516156200039957918102915b93841c93908002906200036b565b509250929050565b600082620003c0575060016200045f565b81620003cf575060006200045f565b8160018114620003e85760028114620003f35762000413565b60019150506200045f565b60ff84111562000407576200040762000350565b50506001821b6200045f565b5060208310610133831016604e8410600b841016171562000438575081810a6200045f565b62000444838362000366565b80600019048211156200045b576200045b62000350565b0290505b92915050565b60006200047660ff841683620003af565b9392505050565b80820281158282048414176200045f576200045f62000350565b808201808211156200045f576200045f62000350565b610e9380620004bd6000396000f3fe608060405234801561001057600080fd5b50600436106101215760003560e01c806342966c68116100ad57806395d89b411161007157806395d89b4114610248578063a457c2d714610250578063a9059cbb14610263578063dd62ed3e14610276578063f2fde38b1461028957600080fd5b806342966c68146101e157806370a08231146101f4578063715018a61461021d5780637afc8964146102255780638da5cb5b1461022d57600080fd5b80632ff2e9dc116100f45780632ff2e9dc1461018c578063313ce5671461019757806339509351146101a65780633cd651ac146101b957806340c10f19146101cc57600080fd5b806306fdde0314610126578063095ea7b31461014457806318160ddd1461016757806323b872dd14610179575b600080fd5b61012e61029c565b60405161013b9190610ba7565b60405180910390f35b610157610152366004610c11565b61032e565b604051901515815260200161013b565b6002545b60405190815260200161013b565b610157610187366004610c3b565b610348565b61016b630bebc20081565b6040516012815260200161013b565b6101576101b4366004610c11565b61036c565b61016b6101c7366004610c77565b61038e565b6101df6101da366004610c11565b6103bf565b005b6101df6101ef366004610c99565b610418565b61016b610202366004610c77565b6001600160a01b031660009081526020819052604090205490565b6101df61045a565b61016b61046e565b6005546040516001600160a01b03909116815260200161013b565b61012e61048e565b61015761025e366004610c11565b61049d565b610157610271366004610c11565b61051d565b61016b610284366004610cb2565b61052b565b6101df610297366004610c77565b610556565b6060600380546102ab90610ce5565b80601f01602080910402602001604051908101604052809291908181526020018280546102d790610ce5565b80156103245780601f106102f957610100808354040283529160200191610324565b820191906000526020600020905b81548152906001019060200180831161030757829003601f168201915b5050505050905090565b60003361033c8185856105cf565b60019150505b92915050565b6000336103568582856106f4565b61036185858561076e565b506001949350505050565b60003361033c81858561037f838361052b565b6103899190610d35565b6105cf565b600061039c6012600a610e2c565b6001600160a01b0383166000908152602081905260409020546103429190610e3b565b6103c7610912565b6103d1828261096c565b816001600160a01b03167f3f2c9d57c068687834f0de942a9babb9e5acab57d516d3480a3c16ee165a42738260405161040c91815260200190565b60405180910390a25050565b6104223382610a2b565b60405181815233907ffd38818f5291bf0bb3a2a48aadc06ba8757865d1dabd804585338aab3009dcb69060200160405180910390a250565b610462610912565b61046c6000610b55565b565b600061047c6012600a610e2c565b6002546104899190610e3b565b905090565b6060600480546102ab90610ce5565b600033816104ab828661052b565b9050838110156105105760405162461bcd60e51b815260206004820152602560248201527f45524332303a2064656372656173656420616c6c6f77616e63652062656c6f77604482015264207a65726f60d81b60648201526084015b60405180910390fd5b61036182868684036105cf565b60003361033c81858561076e565b6001600160a01b03918216600090815260016020908152604080832093909416825291909152205490565b61055e610912565b6001600160a01b0381166105c35760405162461bcd60e51b815260206004820152602660248201527f4f776e61626c653a206e6577206f776e657220697320746865207a65726f206160448201526564647265737360d01b6064820152608401610507565b6105cc81610b55565b50565b6001600160a01b0383166106315760405162461bcd60e51b8152602060048201526024808201527f45524332303a20617070726f76652066726f6d20746865207a65726f206164646044820152637265737360e01b6064820152608401610507565b6001600160a01b0382166106925760405162461bcd60e51b815260206004820152602260248201527f45524332303a20617070726f766520746f20746865207a65726f206164647265604482015261737360f01b6064820152608401610507565b6001600160a01b0383811660008181526001602090815260408083209487168084529482529182902085905590518481527f8c5be1e5ebec7d5bd14f71427d1e84f3dd0314c0f7b2291e5b200ac8c7c3b92591015b60405180910390a3505050565b6000610700848461052b565b90506000198114610768578181101561075b5760405162461bcd60e51b815260206004820152601d60248201527f45524332303a20696e73756666696369656e7420616c6c6f77616e63650000006044820152606401610507565b61076884848484036105cf565b50505050565b6001600160a01b0383166107d25760405162461bcd60e51b815260206004820152602560248201527f45524332303a207472616e736665722066726f6d20746865207a65726f206164604482015264647265737360d81b6064820152608401610507565b6001600160a01b0382166108345760405162461bcd60e51b815260206004820152602360248201527f45524332303a207472616e7366657220746f20746865207a65726f206164647260448201526265737360e81b6064820152608401610507565b6001600160a01b038316600090815260208190526040902054818110156108ac5760405162461bcd60e51b815260206004820152602660248201527f45524332303a207472616e7366657220616d6f756e7420657863656564732062604482015265616c616e636560d01b6064820152608401610507565b6001600160a01b03848116600081815260208181526040808320878703905593871680835291849020805487019055925185815290927fddf252ad1be2c89b69c2b068fc378daa952ba7f163c4a11628f55a4df523b3ef910160405180910390a3610768565b6005546001600160a01b0316331461046c5760405162461bcd60e51b815260206004820181905260248201527f4f776e61626c653a2063616c6c6572206973206e6f7420746865206f776e65726044820152606401610507565b6001600160a01b0382166109c25760405162461bcd60e51b815260206004820152601f60248201527f45524332303a206d696e7420746f20746865207a65726f2061646472657373006044820152606401610507565b80600260008282546109d49190610d35565b90915550506001600160a01b038216600081815260208181526040808320805486019055518481527fddf252ad1be2c89b69c2b068fc378daa952ba7f163c4a11628f55a4df523b3ef910160405180910390a35050565b6001600160a01b038216610a8b5760405162461bcd60e51b815260206004820152602160248201527f45524332303a206275726e2066726f6d20746865207a65726f206164647265736044820152607360f81b6064820152608401610507565b6001600160a01b03821660009081526020819052604090205481811015610aff5760405162461bcd60e51b815260206004820152602260248201527f45524332303a206275726e20616d6f756e7420657863656564732062616c616e604482015261636560f01b6064820152608401610507565b6001600160a01b0383166000818152602081815260408083208686039055600280548790039055518581529192917fddf252ad1be2c89b69c2b068fc378daa952ba7f163c4a11628f55a4df523b3ef91016106e7565b600580546001600160a01b038381166001600160a01b0319831681179093556040519116919082907f8be0079c531659141344cd1fd0a4f28419497f9722a3daafe3b4186f6b6457e090600090a35050565b600060208083528351808285015260005b81811015610bd457858101830151858201604001528201610bb8565b506000604082860101526040601f19601f8301168501019250505092915050565b80356001600160a01b0381168114610c0c57600080fd5b919050565b60008060408385031215610c2457600080fd5b610c2d83610bf5565b946020939093013593505050565b600080600060608486031215610c5057600080fd5b610c5984610bf5565b9250610c6760208501610bf5565b9150604084013590509250925092565b600060208284031215610c8957600080fd5b610c9282610bf5565b9392505050565b600060208284031215610cab57600080fd5b5035919050565b60008060408385031215610cc557600080fd5b610cce83610bf5565b9150610cdc60208401610bf5565b90509250929050565b600181811c90821680610cf957607f821691505b602082108103610d1957634e487b7160e01b600052602260045260246000fd5b50919050565b634e487b7160e01b600052601160045260246000fd5b8082018082111561034257610342610d1f565b600181815b80851115610d83578160001904821115610d6957610d69610d1f565b80851615610d7657918102915b93841c9390800290610d4d565b509250929050565b600082610d9a57506001610342565b81610da757506000610342565b8160018114610dbd5760028114610dc757610de3565b6001915050610342565b60ff841115610dd857610dd8610d1f565b50506001821b610342565b5060208310610133831016604e8410600b8410161715610e06575081810a610342565b610e108383610d48565b8060001904821115610e2457610e24610d1f565b029392505050565b6000610c9260ff841683610d8b565b600082610e5857634e487b7160e01b600052601260045260246000fd5b50049056fea26469706673582212206a2f44459750cefa44efc26b165746d5f32e9ed9b70057464185928894fa805a64736f6c63430008130033",
  "linkReferences": {},
  "deployedLinkReferences": {}
}