{
  "_format": "hh-sol-artifact-1",
  "contractName": "TNTCAirdrop",
  "sourceName": "contracts/TNTCAirdrop.sol",
  "abi": [
    {
      "inputs": [
        {
          "internalType": "address",
          "name": "_tokenAddress",
          "type": "address"
        },
        {
          "internalType": "uint256",
          "name": "_startTime",
          "type": "uint256"
        },
        {
          "internalType": "uint256",
          "name": "_endTime",
          "type": "uint256"
        },
        {
          "internalType": "string",
          "name": "_airdropName",
          "type": "string"
        },
        {
          "internalType": "string",
          "name": "_airdropDescription",
          "type": "string"
        }
      ],
      "stateMutability": "nonpayable",
      "type": "constructor"
    },
    {
      "anonymous": false,
      "inputs": [
        {
          "indexed": true,
          "internalType": "address",
          "name": "user",
          "type": "address"
        },
        {
          "indexed": false,
          "internalType": "uint256",
          "name": "amount",
          "type": "uint256"
        }
      ],
      "name": "AirdropClaimed",
      "type": "event"
    },
    {
      "anonymous": false,
      "inputs": [
        {
          "indexed": false,
          "internalType": "uint256",
          "name": "newStartTime",
          "type": "uint256"
        },
        {
          "indexed": false,
          "internalType": "uint256",
          "name": "newEndTime",
          "type": "uint256"
        }
      ],
      "name": "AirdropTimingUpdated",
      "type": "event"
    },
    {
      "anonymous": false,
      "inputs": [
        {
          "indexed": false,
          "internalType": "uint256",
          "name": "newCooldown",
          "type": "uint256"
        }
      ],
      "name": "ClaimCooldownUpdated",
      "type": "event"
    },
    {
      "anonymous": false,
      "inputs": [
        {
          "indexed": false,
          "internalType": "uint256",
          "name": "newEndTime",
          "type": "uint256"
        }
      ],
      "name": "EndTimeUpdated",
      "type": "event"
    },
    {
      "anonymous": false,
      "inputs": [
        {
          "indexed": false,
          "internalType": "uint256",
          "name": "oldAmount",
          "type": "uint256"
        },
        {
          "indexed": false,
          "internalType": "uint256",
          "name": "newAmount",
          "type": "uint256"
        }
      ],
      "name": "FeeAmountUpdated",
      "type": "event"
    },
    {
      "anonymous": false,
      "inputs": [
        {
          "indexed": true,
          "internalType": "address",
          "name": "oldCollector",
          "type": "address"
        },
        {
          "indexed": true,
          "internalType": "address",
          "name": "newCollector",
          "type": "address"
        }
      ],
      "name": "FeeCollectorUpdated",
      "type": "event"
    },
    {
      "anonymous": false,
      "inputs": [
        {
          "indexed": true,
          "internalType": "address",
          "name": "user",
          "type": "address"
        },
        {
          "indexed": false,
          "internalType": "uint256",
          "name": "amount",
          "type": "uint256"
        }
      ],
      "name": "FeePaid",
      "type": "event"
    },
    {
      "anonymous": false,
      "inputs": [
        {
          "indexed": true,
          "internalType": "address",
          "name": "previousOwner",
          "type": "address"
        },
        {
          "indexed": true,
          "internalType": "address",
          "name": "newOwner",
          "type": "address"
        }
      ],
      "name": "OwnershipTransferred",
      "type": "event"
    },
    {
      "anonymous": false,
      "inputs": [
        {
          "indexed": true,
          "internalType": "address",
          "name": "referrer",
          "type": "address"
        },
        {
          "indexed": true,
          "internalType": "address",
          "name": "referee",
          "type": "address"
        },
        {
          "indexed": false,
          "internalType": "uint256",
          "name": "amount",
          "type": "uint256"
        }
      ],
      "name": "ReferralBonusClaimed",
      "type": "event"
    },
    {
      "anonymous": false,
      "inputs": [
        {
          "indexed": false,
          "internalType": "uint256",
          "name": "newStartTime",
          "type": "uint256"
        }
      ],
      "name": "StartTimeUpdated",
      "type": "event"
    },
    {
      "anonymous": false,
      "inputs": [
        {
          "indexed": true,
          "internalType": "address",
          "name": "user",
          "type": "address"
        },
        {
          "indexed": true,
          "internalType": "uint256",
          "name": "taskId",
          "type": "uint256"
        },
        {
          "indexed": false,
          "internalType": "uint256",
          "name": "rewardAmount",
          "type": "uint256"
        }
      ],
      "name": "TaskCompleted",
      "type": "event"
    },
    {
      "anonymous": false,
      "inputs": [
        {
          "indexed": true,
          "internalType": "uint256",
          "name": "taskId",
          "type": "uint256"
        },
        {
          "indexed": false,
          "internalType": "string",
          "name": "title",
          "type": "string"
        },
        {
          "indexed": false,
          "internalType": "uint256",
          "name": "rewardAmount",
          "type": "uint256"
        }
      ],
      "name": "TaskCreated",
      "type": "event"
    },
    {
      "anonymous": false,
      "inputs": [
        {
          "indexed": true,
          "internalType": "uint256",
          "name": "taskId",
          "type": "uint256"
        },
        {
          "indexed": false,
          "internalType": "bool",
          "name": "isActive",
          "type": "bool"
        }
      ],
      "name": "TaskStatusChanged",
      "type": "event"
    },
    {
      "anonymous": false,
      "inputs": [
        {
          "indexed": true,
          "internalType": "uint256",
          "name": "taskId",
          "type": "uint256"
        },
        {
          "indexed": false,
          "internalType": "string",
          "name": "title",
          "type": "string"
        },
        {
          "indexed": false,
          "internalType": "uint256",
          "name": "rewardAmount",
          "type": "uint256"
        }
      ],
      "name": "TaskUpdated",
      "type": "event"
    },
    {
      "anonymous": false,
      "inputs": [
        {
          "indexed": true,
          "internalType": "address",
          "name": "from",
          "type": "address"
        },
        {
          "indexed": true,
          "internalType": "address",
          "name": "to",
          "type": "address"
        },
        {
          "indexed": false,
          "internalType": "uint256",
          "name": "amount",
          "type": "uint256"
        }
      ],
      "name": "TokensTransferred",
      "type": "event"
    },
    {
      "anonymous": false,
      "inputs": [
        {
          "indexed": true,
          "internalType": "address",
          "name": "from",
          "type": "address"
        },
        {
          "indexed": true,
          "internalType": "address",
          "name": "to",
          "type": "address"
        },
        {
          "indexed": false,
          "internalType": "uint256",
          "name": "amount",
          "type": "uint256"
        }
      ],
      "name": "TransferFailed",
      "type": "event"
    },
    {
      "inputs": [],
      "name": "airdropAmount",
      "outputs": [
        {
          "internalType": "uint256",
          "name": "",
          "type": "uint256"
        }
      ],
      "stateMutability": "view",
      "type": "function"
    },
    {
      "inputs": [],
      "name": "airdropDescription",
      "outputs": [
        {
          "internalType": "string",
          "name": "",
          "type": "string"
        }
      ],
      "stateMutability": "view",
      "type": "function"
    },
    {
      "inputs": [],
      "name": "airdropName",
      "outputs": [
        {
          "internalType": "string",
          "name": "",
          "type": "string"
        }
      ],
      "stateMutability": "view",
      "type": "function"
    },
    {
      "inputs": [],
      "name": "claimCooldown",
      "outputs": [
        {
          "internalType": "uint256",
          "name": "",
          "type": "uint256"
        }
      ],
      "stateMutability": "view",
      "type": "function"
    },
    {
      "inputs": [
        {
          "internalType": "uint256",
          "name": "taskId",
          "type": "uint256"
        }
      ],
      "name": "completeTask",
      "outputs": [],
      "stateMutability": "nonpayable",
      "type": "function"
    },
    {
      "inputs": [
        {
          "internalType": "string",
          "name": "_title",
          "type": "string"
        },
        {
          "internalType": "string",
          "name": "_description",
          "type": "string"
        },
        {
          "internalType": "string",
          "name": "_link",
          "type": "string"
        },
        {
          "internalType": "uint256",
          "name": "_rewardAmount",
          "type": "uint256"
        },
        {
          "internalType": "enum TNTCAirdrop.TaskType",
          "name": "_taskType",
          "type": "uint8"
        }
      ],
      "name": "createTask",
      "outputs": [],
      "stateMutability": "nonpayable",
      "type": "function"
    },
    {
      "inputs": [],
      "name": "endTime",
      "outputs": [
        {
          "internalType": "uint256",
          "name": "",
          "type": "uint256"
        }
      ],
      "stateMutability": "view",
      "type": "function"
    },
    {
      "inputs": [],
      "name": "feeAmount",
      "outputs": [
        {
          "internalType": "uint256",
          "name": "",
          "type": "uint256"
        }
      ],
      "stateMutability": "view",
      "type": "function"
    },
    {
      "inputs": [],
      "name": "feeCollector",
      "outputs": [
        {
          "internalType": "address",
          "name": "",
          "type": "address"
        }
      ],
      "stateMutability": "view",
      "type": "function"
    },
    {
      "inputs": [
        {
          "internalType": "address",
          "name": "",
          "type": "address"
        }
      ],
      "name": "feesPaid",
      "outputs": [
        {
          "internalType": "uint256",
          "name": "",
          "type": "uint256"
        }
      ],
      "stateMutability": "view",
      "type": "function"
    },
    {
      "inputs": [],
      "name": "getAirdropInfo",
      "outputs": [
        {
          "internalType": "string",
          "name": "name",
          "type": "string"
        },
        {
          "internalType": "string",
          "name": "description",
          "type": "string"
        },
        {
          "internalType": "uint256",
          "name": "baseAmount",
          "type": "uint256"
        },
        {
          "internalType": "uint256",
          "name": "referralAmount",
          "type": "uint256"
        },
        {
          "internalType": "uint256",
          "name": "start",
          "type": "uint256"
        },
        {
          "internalType": "uint256",
          "name": "end",
          "type": "uint256"
        },
        {
          "internalType": "uint256",
          "name": "remainingTokens",
          "type": "uint256"
        },
        {
          "internalType": "uint256",
          "name": "totalParticipants",
          "type": "uint256"
        },
        {
          "internalType": "bool",
          "name": "isAirdropActive",
          "type": "bool"
        },
        {
          "internalType": "uint256",
          "name": "currentFeeAmount",
          "type": "uint256"
        },
        {
          "internalType": "address",
          "name": "currentFeeCollector",
          "type": "address"
        },
        {
          "internalType": "uint256",
          "name": "totalFeesCollected",
          "type": "uint256"
        },
        {
          "internalType": "uint256",
          "name": "currentCooldown",
          "type": "uint256"
        },
        {
          "internalType": "uint256",
          "name": "totalTasks",
          "type": "uint256"
        },
        {
          "internalType": "uint256",
          "name": "userCompletedTasks",
          "type": "uint256"
        },
        {
          "internalType": "uint256",
          "name": "userPoints",
          "type": "uint256"
        }
      ],
      "stateMutability": "view",
      "type": "function"
    },
    {
      "inputs": [],
      "name": "getAllParticipants",
      "outputs": [
        {
          "components": [
            {
              "internalType": "address",
              "name": "userAddress",
              "type": "address"
            },
            {
              "internalType": "bool",
              "name": "hasParticipated",
              "type": "bool"
            },
            {
              "internalType": "uint256",
              "name": "referralCount",
              "type": "uint256"
            },
            {
              "internalType": "address",
              "name": "referrer",
              "type": "address"
            },
            {
              "internalType": "uint256",
              "name": "totalEarned",
              "type": "uint256"
            },
            {
              "internalType": "uint256",
              "name": "participationTime",
              "type": "uint256"
            },
            {
              "internalType": "uint256",
              "name": "feePaid",
              "type": "uint256"
            }
          ],
          "internalType": "struct TNTCAirdrop.ParticipantInfo[]",
          "name": "",
          "type": "tuple[]"
        }
      ],
      "stateMutability": "view",
      "type": "function"
    },
    {
      "inputs": [],
      "name": "getAllTasks",
      "outputs": [
        {
          "components": [
            {
              "internalType": "uint256",
              "name": "id",
              "type": "uint256"
            },
            {
              "internalType": "string",
              "name": "title",
              "type": "string"
            },
            {
              "internalType": "string",
              "name": "description",
              "type": "string"
            },
            {
              "internalType": "string",
              "name": "link",
              "type": "string"
            },
            {
              "internalType": "uint256",
              "name": "rewardAmount",
              "type": "uint256"
            },
            {
              "internalType": "enum TNTCAirdrop.TaskType",
              "name": "taskType",
              "type": "uint8"
            },
            {
              "internalType": "bool",
              "name": "isActive",
              "type": "bool"
            }
          ],
          "internalType": "struct TNTCAirdrop.Task[]",
          "name": "",
          "type": "tuple[]"
        }
      ],
      "stateMutability": "view",
      "type": "function"
    },
    {
      "inputs": [
        {
          "internalType": "address",
          "name": "user",
          "type": "address"
        }
      ],
      "name": "getNextClaimTime",
      "outputs": [
        {
          "internalType": "uint256",
          "name": "",
          "type": "uint256"
        }
      ],
      "stateMutability": "view",
      "type": "function"
    },
    {
      "inputs": [
        {
          "internalType": "address",
          "name": "user",
          "type": "address"
        }
      ],
      "name": "getReferralCount",
      "outputs": [
        {
          "internalType": "uint256",
          "name": "",
          "type": "uint256"
        }
      ],
      "stateMutability": "view",
      "type": "function"
    },
    {
      "inputs": [
        {
          "internalType": "address",
          "name": "user",
          "type": "address"
        }
      ],
      "name": "getReferrer",
      "outputs": [
        {
          "internalType": "address",
          "name": "",
          "type": "address"
        }
      ],
      "stateMutability": "view",
      "type": "function"
    },
    {
      "inputs": [
        {
          "internalType": "uint256",
          "name": "_taskId",
          "type": "uint256"
        }
      ],
      "name": "getTask",
      "outputs": [
        {
          "components": [
            {
              "internalType": "uint256",
              "name": "id",
              "type": "uint256"
            },
            {
              "internalType": "string",
              "name": "title",
              "type": "string"
            },
            {
              "internalType": "string",
              "name": "description",
              "type": "string"
            },
            {
              "internalType": "string",
              "name": "link",
              "type": "string"
            },
            {
              "internalType": "uint256",
              "name": "rewardAmount",
              "type": "uint256"
            },
            {
              "internalType": "enum TNTCAirdrop.TaskType",
              "name": "taskType",
              "type": "uint8"
            },
            {
              "internalType": "bool",
              "name": "isActive",
              "type": "bool"
            }
          ],
          "internalType": "struct TNTCAirdrop.Task",
          "name": "",
          "type": "tuple"
        }
      ],
      "stateMutability": "view",
      "type": "function"
    },
    {
      "inputs": [],
      "name": "getTokenInfo",
      "outputs": [
        {
          "internalType": "address",
          "name": "tokenAddress",
          "type": "address"
        },
        {
          "internalType": "string",
          "name": "name",
          "type": "string"
        },
        {
          "internalType": "string",
          "name": "symbol",
          "type": "string"
        },
        {
          "internalType": "uint8",
          "name": "decimals",
          "type": "uint8"
        },
        {
          "internalType": "uint256",
          "name": "totalSupply",
          "type": "uint256"
        },
        {
          "internalType": "uint256",
          "name": "airdropContractBalance",
          "type": "uint256"
        }
      ],
      "stateMutability": "view",
      "type": "function"
    },
    {
      "inputs": [],
      "name": "getTotalParticipants",
      "outputs": [
        {
          "internalType": "uint256",
          "name": "",
          "type": "uint256"
        }
      ],
      "stateMutability": "view",
      "type": "function"
    },
    {
      "inputs": [
        {
          "internalType": "address",
          "name": "user",
          "type": "address"
        }
      ],
      "name": "getUserParticipationInfo",
      "outputs": [
        {
          "internalType": "bool",
          "name": "hasParticipated_",
          "type": "bool"
        },
        {
          "internalType": "uint256",
          "name": "referralCount_",
          "type": "uint256"
        },
        {
          "internalType": "address",
          "name": "referrer_",
          "type": "address"
        },
        {
          "internalType": "uint256",
          "name": "totalEarned",
          "type": "uint256"
        },
        {
          "internalType": "uint256",
          "name": "feePaid_",
          "type": "uint256"
        },
        {
          "internalType": "uint256",
          "name": "nextClaimTime_",
          "type": "uint256"
        }
      ],
      "stateMutability": "view",
      "type": "function"
    },
    {
      "inputs": [
        {
          "internalType": "address",
          "name": "_user",
          "type": "address"
        },
        {
          "internalType": "uint256",
          "name": "_taskId",
          "type": "uint256"
        }
      ],
      "name": "getUserTaskStatus",
      "outputs": [
        {
          "internalType": "bool",
          "name": "isCompleted",
          "type": "bool"
        },
        {
          "internalType": "uint256",
          "name": "completedAt",
          "type": "uint256"
        }
      ],
      "stateMutability": "view",
      "type": "function"
    },
    {
      "inputs": [
        {
          "internalType": "address",
          "name": "",
          "type": "address"
        }
      ],
      "name": "hasParticipated",
      "outputs": [
        {
          "internalType": "bool",
          "name": "",
          "type": "bool"
        }
      ],
      "stateMutability": "view",
      "type": "function"
    },
    {
      "inputs": [
        {
          "internalType": "address",
          "name": "",
          "type": "address"
        }
      ],
      "name": "lastClaimTime",
      "outputs": [
        {
          "internalType": "uint256",
          "name": "",
          "type": "uint256"
        }
      ],
      "stateMutability": "view",
      "type": "function"
    },
    {
      "inputs": [],
      "name": "owner",
      "outputs": [
        {
          "internalType": "address",
          "name": "",
          "type": "address"
        }
      ],
      "stateMutability": "view",
      "type": "function"
    },
    {
      "inputs": [
        {
          "internalType": "uint256",
          "name": "",
          "type": "uint256"
        }
      ],
      "name": "participantAddresses",
      "outputs": [
        {
          "internalType": "address",
          "name": "",
          "type": "address"
        }
      ],
      "stateMutability": "view",
      "type": "function"
    },
    {
      "inputs": [
        {
          "internalType": "address",
          "name": "referrer",
          "type": "address"
        }
      ],
      "name": "participate",
      "outputs": [],
      "stateMutability": "payable",
      "type": "function"
    },
    {
      "inputs": [],
      "name": "participateWithoutReferral",
      "outputs": [],
      "stateMutability": "payable",
      "type": "function"
    },
    {
      "inputs": [],
      "name": "referralBonus",
      "outputs": [
        {
          "internalType": "uint256",
          "name": "",
          "type": "uint256"
        }
      ],
      "stateMutability": "view",
      "type": "function"
    },
    {
      "inputs": [
        {
          "internalType": "address",
          "name": "",
          "type": "address"
        }
      ],
      "name": "referralCount",
      "outputs": [
        {
          "internalType": "uint256",
          "name": "",
          "type": "uint256"
        }
      ],
      "stateMutability": "view",
      "type": "function"
    },
    {
      "inputs": [
        {
          "internalType": "address",
          "name": "",
          "type": "address"
        }
      ],
      "name": "referredBy",
      "outputs": [
        {
          "internalType": "address",
          "name": "",
          "type": "address"
        }
      ],
      "stateMutability": "view",
      "type": "function"
    },
    {
      "inputs": [],
      "name": "renounceOwnership",
      "outputs": [],
      "stateMutability": "nonpayable",
      "type": "function"
    },
    {
      "inputs": [
        {
          "internalType": "uint256",
          "name": "_amount",
          "type": "uint256"
        }
      ],
      "name": "setAirdropAmount",
      "outputs": [],
      "stateMutability": "nonpayable",
      "type": "function"
    },
    {
      "inputs": [
        {
          "internalType": "uint256",
          "name": "_newCooldown",
          "type": "uint256"
        }
      ],
      "name": "setClaimCooldown",
      "outputs": [],
      "stateMutability": "nonpayable",
      "type": "function"
    },
    {
      "inputs": [
        {
          "internalType": "uint256",
          "name": "_newEndTime",
          "type": "uint256"
        }
      ],
      "name": "setEndTime",
      "outputs": [],
      "stateMutability": "nonpayable",
      "type": "function"
    },
    {
      "inputs": [
        {
          "internalType": "uint256",
          "name": "_newFeeAmount",
          "type": "uint256"
        }
      ],
      "name": "setFeeAmount",
      "outputs": [],
      "stateMutability": "nonpayable",
      "type": "function"
    },
    {
      "inputs": [
        {
          "internalType": "address",
          "name": "_newCollector",
          "type": "address"
        }
      ],
      "name": "setFeeCollector",
      "outputs": [],
      "stateMutability": "nonpayable",
      "type": "function"
    },
    {
      "inputs": [
        {
          "internalType": "uint256",
          "name": "_amount",
          "type": "uint256"
        }
      ],
      "name": "setReferralBonus",
      "outputs": [],
      "stateMutability": "nonpayable",
      "type": "function"
    },
    {
      "inputs": [
        {
          "internalType": "uint256",
          "name": "_newStartTime",
          "type": "uint256"
        }
      ],
      "name": "setStartTime",
      "outputs": [],
      "stateMutability": "nonpayable",
      "type": "function"
    },
    {
      "inputs": [
        {
          "internalType": "uint256",
          "name": "_taskId",
          "type": "uint256"
        },
        {
          "internalType": "bool",
          "name": "_isActive",
          "type": "bool"
        }
      ],
      "name": "setTaskStatus",
      "outputs": [],
      "stateMutability": "nonpayable",
      "type": "function"
    },
    {
      "inputs": [],
      "name": "startTime",
      "outputs": [
        {
          "internalType": "uint256",
          "name": "",
          "type": "uint256"
        }
      ],
      "stateMutability": "view",
      "type": "function"
    },
    {
      "inputs": [],
      "name": "taskCount",
      "outputs": [
        {
          "internalType": "uint256",
          "name": "",
          "type": "uint256"
        }
      ],
      "stateMutability": "view",
      "type": "function"
    },
    {
      "inputs": [
        {
          "internalType": "uint256",
          "name": "",
          "type": "uint256"
        }
      ],
      "name": "tasks",
      "outputs": [
        {
          "internalType": "uint256",
          "name": "id",
          "type": "uint256"
        },
        {
          "internalType": "string",
          "name": "title",
          "type": "string"
        },
        {
          "internalType": "string",
          "name": "description",
          "type": "string"
        },
        {
          "internalType": "string",
          "name": "link",
          "type": "string"
        },
        {
          "internalType": "uint256",
          "name": "rewardAmount",
          "type": "uint256"
        },
        {
          "internalType": "enum TNTCAirdrop.TaskType",
          "name": "taskType",
          "type": "uint8"
        },
        {
          "internalType": "bool",
          "name": "isActive",
          "type": "bool"
        }
      ],
      "stateMutability": "view",
      "type": "function"
    },
    {
      "inputs": [],
      "name": "token",
      "outputs": [
        {
          "internalType": "contract IERC20Extended",
          "name": "",
          "type": "address"
        }
      ],
      "stateMutability": "view",
      "type": "function"
    },
    {
      "inputs": [
        {
          "internalType": "address",
          "name": "newOwner",
          "type": "address"
        }
      ],
      "name": "transferOwnership",
      "outputs": [],
      "stateMutability": "nonpayable",
      "type": "function"
    },
    {
      "inputs": [
        {
          "internalType": "uint256",
          "name": "_newStartTime",
          "type": "uint256"
        },
        {
          "internalType": "uint256",
          "name": "_newEndTime",
          "type": "uint256"
        }
      ],
      "name": "updateAirdropTiming",
      "outputs": [],
      "stateMutability": "nonpayable",
      "type": "function"
    },
    {
      "inputs": [
        {
          "internalType": "uint256",
          "name": "_taskId",
          "type": "uint256"
        },
        {
          "internalType": "string",
          "name": "_title",
          "type": "string"
        },
        {
          "internalType": "string",
          "name": "_description",
          "type": "string"
        },
        {
          "internalType": "string",
          "name": "_link",
          "type": "string"
        },
        {
          "internalType": "uint256",
          "name": "_rewardAmount",
          "type": "uint256"
        },
        {
          "internalType": "enum TNTCAirdrop.TaskType",
          "name": "_taskType",
          "type": "uint8"
        }
      ],
      "name": "updateTask",
      "outputs": [],
      "stateMutability": "nonpayable",
      "type": "function"
    },
    {
      "inputs": [
        {
          "internalType": "address",
          "name": "",
          "type": "address"
        }
      ],
      "name": "userClaimCount",
      "outputs": [
        {
          "internalType": "uint256",
          "name": "",
          "type": "uint256"
        }
      ],
      "stateMutability": "view",
      "type": "function"
    },
    {
      "inputs": [
        {
          "internalType": "address",
          "name": "",
          "type": "address"
        }
      ],
      "name": "userTaskPoints",
      "outputs": [
        {
          "internalType": "uint256",
          "name": "",
          "type": "uint256"
        }
      ],
      "stateMutability": "view",
      "type": "function"
    },
    {
      "inputs": [
        {
          "internalType": "address",
          "name": "",
          "type": "address"
        },
        {
          "internalType": "uint256",
          "name": "",
          "type": "uint256"
        }
      ],
      "name": "userTaskStatus",
      "outputs": [
        {
          "internalType": "bool",
          "name": "isCompleted",
          "type": "bool"
        },
        {
          "internalType": "uint256",
          "name": "completedAt",
          "type": "uint256"
        }
      ],
      "stateMutability": "view",
      "type": "function"
    },
    {
      "inputs": [],
      "name": "withdrawFees",
      "outputs": [],
      "stateMutability": "nonpayable",
      "type": "function"
    },
    {
      "inputs": [],
      "name": "withdrawTokens",
      "outputs": [],
      "stateMutability": "nonpayable",
      "type": "function"
    },
    {
      "stateMutability": "payable",
      "type": "receive"
    }
  ],
  "bytecode": "0x6080604052346200043b5762003932803803806200001d8162000440565b92833981019060a0818303126200043b5780516001600160a01b0380821693909290918490036200043b57602091828201519360408301519160608401519360018060401b03948581116200043b57826200007a9183016200047c565b9160808201518681116200043b576200009492016200047c565b9260009687549860018060a01b031999338b8216178a55604051953391167f8be0079c531659141344cd1fd0a4f28419497f9722a3daafe3b4186f6b6457e08b80a3600194858055674563918244f40000600555670de0b6b3a7640000600655615460600b558115620003f9575082821015620003bf57896002541617600255600755600855805192848411620002ca576003938454928484811c94168015620003b4575b88851014620003a0578190601f948581116200034d575b508890858311600114620002ea578a92620002de575b505060001982871b1c191690841b1784555b8051948511620002ca5760049687548481811c91168015620002bf575b88821014620002ac5783811162000264575b5086928611600114620001f8579495508592919083620001ec575b50501b92600019911b1c19161790555b339060095416176009556040516134439081620004ef8239f35b015193503880620001c2565b87815286812093969394938691601f198316915b898383106200024957505050106200022e575b50505050811b019055620001d2565b01519060f884600019921b161c19169055388080806200021f565b8587015189559097019694850194889350908101906200020c565b8882528782208480890160051c8201928a8a10620002a2575b0160051c019085905b82811062000296575050620001a7565b83815501859062000286565b925081926200027d565b634e487b7160e01b825260228952602482fd5b90607f169062000195565b634e487b7160e01b87526041600452602487fd5b01519050388062000166565b878b52898b208794509190601f1984168c5b8c8282106200033657505084116200031d575b505050811b01845562000178565b015160001983891b60f8161c191690553880806200030f565b8385015186558a97909501949384019301620002fc565b909150868a52888a208580850160051c8201928b861062000396575b918891869594930160051c01915b8281106200038757505062000150565b8c815585945088910162000377565b9250819262000369565b634e487b7160e01b89526022600452602489fd5b93607f169362000139565b60405162461bcd60e51b8152600481018990526012602482015271496e76616c69642074696d652072616e676560701b6044820152606490fd5b62461bcd60e51b815260048101899052601560248201527f496e76616c696420746f6b656e206164647265737300000000000000000000006044820152606490fd5b600080fd5b6040519190601f01601f191682016001600160401b038111838210176200046657604052565b634e487b7160e01b600052604160045260246000fd5b919080601f840112156200043b5782516001600160401b0381116200046657602090620004b2601f8201601f1916830162000440565b928184528282870101116200043b5760005b818110620004da57508260009394955001015290565b8581018301518482018401528201620004c456fe60a0604052600436101561001b575b361561001957600080fd5b005b60003560e01c8063043ea7a91461283d578063195ec9ee146126535780631d65e77e146125975780632248526d1461255d57806324acbd69146105eb57806329120142146124705780633197cbb61461245257806332f08873146122915780633d3c0315146122755780633e0a322d14612182578063476343ee146120c35780634a9fefc714610e315780634b6ce9bc1461201d578063538b156614611b0557806353cd7b8e14611a7557806354ffbddb14611a335780635553e0c5146119cd57806359c9eb901461193557806369e15404146119175780636b392680146118c35780636c9533d114611893578063715018a61461183a578063779900b4146116d257806378e97925146116b4578063799ecb341461167a5780637daf9036146116405780638d8f2adb146115085780638d977672146114515780638da5cb5b1461142857806393c30c0f146113fd57806394315e4114610f735780639a037aa014610f52578063a42dce8014610eab578063a5500c3014610e8a578063a90cc44514610e6c578063a90f8e9a14610e31578063abb1dc4414610c2d578063b4fb3ee314610bee578063b6cb58a514610bd0578063b77cf9c614610b96578063b91038c71461071d578063c415b95c146106f4578063ccb98ffc14610643578063ce7842f514610625578063db74559b146105eb578063e1e29558146103f4578063f2fde38b14610330578063fc0c546a14610307578063fc2ea8a5146102e9578063fcef19fb146102745763fdea36570361000e573461026f57600036600319011261026f576020600b54604051908152f35b600080fd5b3461026f57604036600319011261026f576001600160a01b03610295612b14565b1660005260156020526040600020602435600052602052602060406000206040516102bf81612b7f565b815460ff1615158082526001909201549201829052604080519182526020820192909252f35b0390f35b3461026f57600036600319011261026f576020600554604051908152f35b3461026f57600036600319011261026f576002546040516001600160a01b039091168152602090f35b3461026f57602036600319011261026f57610349612b14565b610351612e65565b6001600160a01b039081169081156103a057600054826001600160601b0360a01b821617600055167f8be0079c531659141344cd1fd0a4f28419497f9722a3daafe3b4186f6b6457e0600080a3005b60405162461bcd60e51b815260206004820152602660248201527f4f776e61626c653a206e6577206f776e657220697320746865207a65726f206160448201526564647265737360d01b6064820152608490fd5b3461026f5760208060031936011261026f5760043590610417601354831061327b565b3360005260158152604060002082600052815260ff604060002054166105ae57816000526014815260ff60056040600020015460081c1615610575578160005260148152600060046040822060405161046f81612b7f565b60018152600185820142815233865260158752604086208887528752604086209251151560ff8019855416911617835551910155018054338352601684526104bc60408420918254612f01565b9055600254815460405163a9059cbb60e01b8152336004820152602481019190915292849184916044918391906001600160a01b03165af1918215610569577f50c83292cbed2e0e82c326c455870ed0cfe292eb185581159265e76147d205ea9261052f9160009161053c575b50613115565b54916040519283523392a3005b61055c9150853d8711610562575b6105548183612b9a565b8101906130fd565b86610529565b503d61054a565b6040513d6000823e3d90fd5b6064906040519062461bcd60e51b8252600482015260126024820152715461736b206973206e6f742061637469766560701b6044820152fd5b6064906040519062461bcd60e51b82526004820152601660248201527515185cdac8185b1c9958591e4818dbdb5c1b195d195960521b6044820152fd5b3461026f57602036600319011261026f576001600160a01b0361060c612b14565b16600052600f6020526020604060002054604051908152f35b3461026f57600036600319011261026f576020600654604051908152f35b3461026f57602036600319011261026f5760043561065f612e65565b6007548111156106a55760207f37d37b8940cc1ec723111799f54132501e05042cd219649e575e84e5c36f3b5e91610698428211613350565b80600855604051908152a1005b60405162461bcd60e51b815260206004820152602160248201527f456e642074696d65206d7573742062652061667465722073746172742074696d6044820152606560f81b6064820152608490fd5b3461026f57600036600319011261026f576009546040516001600160a01b039091168152602090f35b60208060031936011261026f57610732612b14565b61073a613159565b61074a6107456131af565b612ebd565b33600052600c8252610764604060002054600b5490612f01565b4210801590610b80575b61077790612f24565b6001600160a01b0390808216338114610b43578260025416906040519285846024816370a0823160e01b968782523060048301525afa8015610569578694600091610b11575b506107cc906005541115612f70565b600a5480610a6f575b5033600052600c845242604060002055600e84526040600020805460ff81161561089b575b505060025460055460405163a9059cbb60e01b8152336004820152602481019190915295869450169150829050600081604481015b03925af180156105695761084a9160009161087e5750613115565b7f650e45f04ef8a0c267b2f78d983913f69ae3a353b2b32de5429307522be0ab55600554916040519283523392a260018055005b6108959150833d8511610562576105548183612b9a565b83610529565b60ff191660011790556108ad336130ac565b81151580610a58575b6108c2575b80806107fa565b9091925033600052601085526040600020826001600160601b0360a01b82541617905581600052600f855260406000206108fc81546130ee565b905583600254166040519384523060048501528584602481845afa918215610569578694600093610a27575b506006548093101561093b575b506108bb565b60405163a9059cbb60e01b81526001600160a01b03919091166004820152602481019290925291929091829060449082906000905af190811561056957600091610a0a575b50156109c55761082f6000928492600654906040519182527fca55b80ee391a1f76a4e016ebc5a1afe15e0463250300e133628a95c7a7c4cd9853393a3928580610935565b60405162461bcd60e51b815260048101849052601e60248201527f526566657272616c20626f6e7573207472616e73666572206661696c656400006044820152606490fd5b610a219150843d8611610562576105548183612b9a565b84610980565b8581969294503d8311610a51575b610a3f8183612b9a565b8101031261026f578593519187610928565b503d610a35565b5081600052600e845260ff604060002054166108b6565b600080808084610a84610a9996341015612fb2565b8a600954165af1610a93612ff1565b50613021565b600a54803411610ae8575b50600a543360005260118552806040600020556040519081527f075a2720282fdf622141dae0b048ef90a21a7e57c134c76912d19d006b3b3f6f853392a2866107d5565b6000808080610afa610b0b9534613063565b335af1610b05612ff1565b50613070565b86610aa4565b85819692503d8311610b3c575b610b288183612b9a565b8101031261026f576107cc869451906107bd565b503d610b1e565b60405162461bcd60e51b815260048101859052601560248201527421b0b73737ba103932b332b9103cb7bab939b2b63360591b6044820152606490fd5b50336000908152600c835260409020541561076e565b3461026f57602036600319011261026f576001600160a01b03610bb7612b14565b16600052600c6020526020604060002054604051908152f35b3461026f57600036600319011261026f576020601354604051908152f35b3461026f57602036600319011261026f576001600160a01b03610c0f612b14565b16600052600e602052602060ff604060002054166040519015158152f35b3461026f57600036600319011261026f576002546040516306fdde0360e01b8152906001600160a01b0316600082600481845afa91821561056957600092610e14575b506040516395d89b4160e01b815291600083600481855afa92831561056957600093610def575b506040519063313ce56760e01b82526020938483600481875afa92831561056957600093610db6575b506040516318160ddd60e01b8152908582600481885afa91821561056957600092610d87575b506040516370a0823160e01b8152306004820152928684602481895afa93841561056957600094610d57575b5060ff91610d34610d429260c06040519a8b9a8b528a015260c0890190612a70565b908782036040890152612a70565b93166060850152608084015260a08301520390f35b9093508681813d8311610d80575b610d6f8183612b9a565b8101031261026f57519260ff610d12565b503d610d65565b9091508581813d8311610daf575b610d9f8183612b9a565b8101031261026f57519086610ce6565b503d610d95565b9092508481813d8311610de8575b610dce8183612b9a565b8101031261026f575160ff8116810361026f579185610cc0565b503d610dc4565b610e0d9193503d806000833e610e058183612b9a565b81019061339c565b9183610c97565b610e2a9192503d806000833e610e058183612b9a565b9082610c70565b3461026f57602036600319011261026f5760206001600160a01b0380610e55612b14565b166000526010825260406000205416604051908152f35b3461026f57600036600319011261026f576020600d54604051908152f35b3461026f57602036600319011261026f57610ea3612e65565b600435600555005b3461026f57602036600319011261026f57610ec4612b14565b610ecc612e65565b6001600160a01b03908116908115610f1b57600954826001600160601b0360a01b821617600955167f5d16ad41baeb009cd23eb8f6c7cde5c2e0cd5acf4a33926ab488875c37c37f38600080a3005b60405162461bcd60e51b815260206004820152600f60248201526e496e76616c6964206164647265737360881b6044820152606490fd5b3461026f57602036600319011261026f57610f6b612e65565b600435600655005b3461026f5760c036600319011261026f576024356001600160401b03811161026f57610fa3903690600401612dd1565b6044356001600160401b03811161026f57610fc2903690600401612dd1565b906064356001600160401b03811161026f57610fe2903690600401612dd1565b9160a43590600782101561026f57610ff8612e65565b6110076013546004351061327b565b611013835115156131c7565b611020608435151561320b565b600435600052601460205260406000209083516001600160401b03811161125d5761104e6001840154612b2a565b601f81116113b6575b50806020601f82116001146113495760009161133e575b508160011b916000199060031b1c19161760018301555b8051906001600160401b03821161125d5781906110a56002850154612b2a565b601f81116112eb575b50602090601f831160011461127e57600092611273575b50508160011b916000199060031b1c19161760028201555b83516001600160401b03811161125d576110fa6003830154612b2a565b601f8111611212575b506020601f821160011461119e5790806005939261114a9697600092611193575b50508160011b916000199060031b1c19161760038201555b608435600482015501613263565b7f8b2f58324cc9375d2dbc2e7d5693676bd60c27335b5e4158ba182dc2ab4a5d0661118060405192604084526040840190612a70565b91608435602082015280600435930390a2005b015190508780611124565b601f198216956003840160005260206000209660005b8181106111fa57509660019284926005969561114a999a106111e1575b505050811b01600382015561113c565b015160001960f88460031b161c191690558780806111d1565b838301518955600190980197602093840193016111b4565b600383016000526020600020601f830160051c81019160208410611253575b601f0160051c01905b8181106112475750611103565b6000815560010161123a565b9091508190611231565b634e487b7160e01b600052604160045260246000fd5b0151905086806110c5565b600285016000908152602081209350601f198516905b8181106112d357509084600195949392106112ba575b505050811b0160028201556110dd565b015160001960f88460031b161c191690558680806112aa565b92936020600181928786015181550195019301611294565b909150600284016000526020600020601f840160051c810160208510611337575b90849392915b601f830160051c820181106113285750506110ae565b60008155859450600101611312565b508061130c565b90508501518761106e565b91506001840160005260206000206000925b601f198316841061139e576001935082601f19811610611385575b5050811b016001830155611085565b87015160001960f88460031b161c191690558780611376565b8781015182556020938401936001909201910161135b565b600184016000526020600020601f830160051c8101602084106113f6575b601f830160051c820181106113ea575050611057565b600081556001016113d4565b50806113d4565b3461026f57602036600319011261026f57602061142061141b612b14565b61331d565b604051908152f35b3461026f57600036600319011261026f576000546040516001600160a01b039091168152602090f35b3461026f57602036600319011261026f5760043560005260146020526040600020805461148060018301612d12565b9160ff61148f60028301612d12565b6114e461149e60038501612d12565b6114d660056004870154960154936114c8604051998a998a5260e060208b015260e08a0190612a70565b9088820360408a0152612a70565b908682036060880152612a70565b9260808501526114f960a08501838316612a95565b60081c16151560c08301520390f35b3461026f57600036600319011261026f57611521612e65565b6002546040516370a0823160e01b81523060048201526020916001600160a01b03908116908383602481855afa92831561056957600093611611575b5082156115d4576000805460405163a9059cbb60e01b815292166001600160a01b03166004830152602482019390935291839183918290816044810103925af190811561056957610019926000926115b7575b5050613115565b6115cd9250803d10610562576105548183612b9a565b82806115b0565b60405162461bcd60e51b81526004810185905260156024820152744e6f20746f6b656e7320746f20776974686472617760581b6044820152606490fd5b9092508381813d8311611639575b6116298183612b9a565b8101031261026f5751918461155d565b503d61161f565b3461026f57602036600319011261026f576001600160a01b03611661612b14565b1660005260126020526020604060002054604051908152f35b3461026f57602036600319011261026f576001600160a01b0361169b612b14565b1660005260116020526020604060002054604051908152f35b3461026f57600036600319011261026f576020600754604051908152f35b3461026f57600036600319011261026f576013546116ef816132f2565b906116fd6040519283612b9a565b808252601f1961170c826132f2565b0160005b81811061182357505060005b818110611782576040805160208082528551818301819052600093600582901b8401810192808901929185015b8287106117565785850386f35b909192938280611772600193603f198a82030186528851612aa2565b9601920196019592919092611749565b8061181e9160005260206014815260056040600020604051926117a484612b64565b815484526117b460018301612d12565b908401526117c460028201612d12565b60408401526117d560038201612d12565b606084015260048101546080840152015460ff906117f882821660a08501613257565b60081c16151560c082015261180d8286613309565b526118188185613309565b506130ee565b61171c565b60209061182e6132b9565b82828701015201611710565b3461026f57600036600319011261026f57611853612e65565b600080546001600160a01b0319811682556001600160a01b03167f8be0079c531659141344cd1fd0a4f28419497f9722a3daafe3b4186f6b6457e08280a3005b3461026f57600036600319011261026f576102e56118af612bbb565b604051918291602083526020830190612a70565b3461026f57602036600319011261026f577fb6600428041f36ab218d984115a85adc1ffb17cb85a81801032cb590a8a8bc996040600435611902612e65565b600a549080600a5582519182526020820152a1005b3461026f57600036600319011261026f576020600a54604051908152f35b3461026f57602036600319011261026f57600435611951612e65565b8015611988576020817fcb7ee917d029d22a071ecb2b3db0556ca49424002997ae83d8a4fff552ef72f692600b55604051908152a1005b60405162461bcd60e51b815260206004820152601f60248201527f436f6f6c646f776e206d7573742062652067726561746572207468616e2030006044820152606490fd5b3461026f57604036600319011261026f576001600160a01b036119ee612b14565b16600052601560205260406000206024356000526020526040600020600160ff825416910154906102e560405192839283602090939291936040810194151581520152565b3461026f57602036600319011261026f57600435600d5481101561026f57611a5c602091612e18565b905460405160039290921b1c6001600160a01b03168152f35b3461026f57604036600319011261026f576004356024358015159081810361026f577f3324258e26244824fb2e5384ff6cf9d44020adce0d0248d743df70fc0078830c91611afc602092611ac7612e65565b611ad4601354871061327b565b856000526014845260056040600020019061ff00825491151560081b169061ff001916179055565b604051908152a2005b3461026f5760a036600319011261026f576004356001600160401b03811161026f57611b35903690600401612dd1565b6024356001600160401b03811161026f57611b54903690600401612dd1565b906044356001600160401b03811161026f57611b74903690600401612dd1565b60843592600784101561026f57611b89612e65565b611b95835115156131c7565b611ba2606435151561320b565b611bdc6013549460405193611bb685612b64565b868552602085019386855260408601526060850152606435608085015260a08401613257565b600160c083015283600052601460205260406000209082518255518051906001600160401b03821161125d578190611c176001850154612b2a565b601f8111611fca575b50602090601f8311600114611f5857600092611f4d575b50508160011b916000199060031b1c19161760018201555b60408201518051906001600160401b03821161125d578190611c746002850154612b2a565b601f8111611efa575b50602090601f8311600114611e8857600092611e7d575b50508160011b916000199060031b1c19161760028201555b60608201518051906001600160401b03821161125d57611ccf6003840154612b2a565b601f8111611e36575b50602090601f8311600114611dc557600593929160009183611dba575b50508160011b916000199060031b1c19161760038201555b60808301516004820155019160a0820151916007831015611da4578360c0611d7592611d5d611d97967f146b4b2e55f6b6a4a8ac8239494150cd5f96b163e2d019440f369714f4a31eb898613263565b0151815461ff00191690151560081b61ff0016179055565b611d806013546130ee565b601355604051918291604083526040830190612a70565b60643560208301520390a2005b634e487b7160e01b600052602160045260246000fd5b015190508780611cf5565b90601f198316916003850160005260206000209260005b818110611e1e5750916001939185600597969410611e05575b505050811b016003820155611d0d565b015160001960f88460031b161c19169055878080611df5565b92936020600181928786015181550195019301611ddc565b600384016000526020600020601f840160051c810160208510611e76575b601f830160051c82018110611e6a575050611cd8565b60008155600101611e54565b5080611e54565b015190508680611c94565b9250600284016000526020600020906000935b601f1984168510611edf576001945083601f19811610611ec6575b505050811b016002820155611cac565b015160001960f88460031b161c19169055868080611eb6565b81810151835560209485019460019093019290910190611e9b565b909150600284016000526020600020601f840160051c810160208510611f46575b90849392915b601f830160051c82018110611f37575050611c7d565b60008155859450600101611f21565b5080611f1b565b015190508680611c37565b9250600184016000526020600020906000935b601f1984168510611faf576001945083601f19811610611f96575b505050811b016001820155611c4f565b015160001960f88460031b161c19169055868080611f86565b81810151835560209485019460019093019290910190611f6b565b909150600184016000526020600020601f840160051c810160208510612016575b90849392915b601f830160051c82018110612007575050611c20565b60008155859450600101611ff1565b5080611feb565b3461026f57604036600319011261026f5760043560243561203c612e65565b80821015612089577fa73c2a4e4657f5e1ff94a19ffe5f535cdd2dd893a121899816c3e9f66565cb0191604091612074428211613350565b816007558060085582519182526020820152a1005b60405162461bcd60e51b8152602060048201526012602482015271496e76616c69642074696d652072616e676560701b6044820152606490fd5b3461026f57600036600319011261026f576120dc612e65565b478015612147576009546000918291829182916001600160a01b03165af1612102612ff1565b501561210a57005b60405162461bcd60e51b8152602060048201526015602482015274119959481dda5d1a191c985dd85b0819985a5b1959605a1b6044820152606490fd5b60405162461bcd60e51b81526020600482015260136024820152724e6f206665657320746f20776974686472617760681b6044820152606490fd5b3461026f57602036600319011261026f5760043561219e612e65565b60085481101561222557428111156121e1576020817f9c5b354b21055675b708256fbf890975529c5e58066b2e826541d253b389cd1492600755604051908152a1005b606460405162461bcd60e51b815260206004820152602060248201527f53746172742074696d65206d75737420626520696e20746865206675747572656044820152fd5b60405162461bcd60e51b815260206004820152602260248201527f53746172742074696d65206d757374206265206265666f726520656e642074696044820152616d6560f01b6064820152608490fd5b3461026f57600036600319011261026f576102e56118af612c79565b3461026f57600036600319011261026f57600080601354905b81811061240c57506005549160065491600754600854602460018060a01b0360208160025416604051938480926370a0823160e01b82523060048301525afa918215610569576000926123d8575b50600d546123046131af565b90600a549260095416934795600b54973360005260166020526040600020549b61236361232f612bbb565b61235261233a612c79565b91604051806080526102008091526080510190612a70565b906080516020818403910152612a70565b9d604060805101526060608051015260808051015260a0608051015260c0608051015260e060805101521515610100608051015261012060805101526101406080510152610160608051015261018060805101526101a060805101526101c060805101526101e0608051015260805180910390f35b9091506020813d602011612404575b816123f460209383612b9a565b8101031261026f575190886122f8565b3d91506123e7565b33600052602060158152604060002090826000525260ff6040600020541661243d575b612438906130ee565b6122aa565b9161244a612438916130ee565b92905061242f565b3461026f57600036600319011261026f576020600854604051908152f35b3461026f5760208060031936011261026f5760c0906001600160a01b039081612497612b14565b169182600052600e825260ff6040600020541692600f8352604060002054916010845260406000205416601284526125036124ef6124dd604060002054600554906133fa565b6124e9600654876133fa565b90612f01565b836000526016865260406000205490612f01565b916000526011845260406000205492600c8552604060002054801560001461254b57506000945b604051961515875286015260408501526060840152608083015260a0820152f35b600b5461255791612f01565b9461252a565b3461026f57602036600319011261026f576001600160a01b0361257e612b14565b1660005260166020526020604060002054604051908152f35b3461026f57602036600319011261026f576004356125b36132b9565b506125c1601354821061327b565b60005260146020526102e5604060002060ff6005604051926125e284612b64565b805484526125f260018201612d12565b602085015261260360028201612d12565b604085015261261460038201612d12565b606085015260048101546080850152015461263482821660a08501613257565b60081c16151560c0820152604051918291602083526020830190612aa2565b3461026f57600036600319011261026f57600d54612670816132f2565b9061267e6040519283612b9a565b808252601f1961268d826132f2565b0160005b8181106127f55750506000600554600654915b8381106127355760408051602080825287518183018190528189019383019160005b8281106126d35784840385f35b855180516001600160a01b0390811686528184015115158685015260408083015190870152606080830151909116908601526080808201519086015260a0808201519086015260c090810151908501529481019460e0909301926001016126c6565b806127426127f092612e18565b9060018060a01b03918291549060031b1c1690816000526020600e815260ff6040600020541691600f9081835260406000205490601084526040600020541691835261279c6127968a6040600020546133fa565b89612f01565b92856000526011815260406000205494604051966127b988612b64565b87521515908601526040850152606084015260808301524260a083015260c08201526127e58288613309565b526118188187613309565b6126a4565b60209060405161280481612b64565b6000815282600081830152600060408301526000606083015260006080830152600060a0830152600060c0830152828701015201612691565b600036600319011261026f57612851613159565b61285c6107456131af565b336000526020600c8152612878604060002054600b5490612f01565b4210801590612a37575b61288b90612f24565b6002546040516370a0823160e01b8152306004820152906001600160a01b039083908390602490829085165afa8015610569578392600091612a05575b50600092916128de61082f926005541115612f70565b600a5480612970575b50338452600c8352426040852055600e835260408420805460ff811615612957575b5050338452601283526040842061292081546130ee565b905560025460055460405163a9059cbb60e01b81523360048201526024810191909152948593929091169183919082906044820190565b60ff19166001179055612969336130ac565b8580612909565b848080808461298461299396341015612fb2565b86600954165af1610a93612ff1565b600a548034116129ee575b50600a54338552601184526129b860408620918254612f01565b9055600a546040519081527f075a2720282fdf622141dae0b048ef90a21a7e57c134c76912d19d006b3b3f6f843392a2856128e7565b84808080610afa6129ff9534613063565b8561299e565b83819492503d8311612a30575b612a1c8183612b9a565b8101031261026f57905182919060006128c8565b503d612a12565b50336000908152600c8252604090205415612882565b60005b838110612a605750506000910152565b8181015183820152602001612a50565b90602091612a8981518092818552858086019101612a4d565b601f01601f1916010190565b906007821015611da45752565b908151815260c080612aed612adb612ac9602087015160e0602088015260e0870190612a70565b60408701518682036040880152612a70565b60608601518582036060870152612a70565b9360808101516080850152612b0a60a082015160a0860190612a95565b0151151591015290565b600435906001600160a01b038216820361026f57565b90600182811c92168015612b5a575b6020831014612b4457565b634e487b7160e01b600052602260045260246000fd5b91607f1691612b39565b60e081019081106001600160401b0382111761125d57604052565b604081019081106001600160401b0382111761125d57604052565b90601f801991011681019081106001600160401b0382111761125d57604052565b6040519060008260035491612bcf83612b2a565b80835292600190818116908115612c575750600114612bf8575b50612bf692500383612b9a565b565b6003600090815291507fc2575a0e9e593c00f959f8c92f12db2869c3395a3b0502d05e2516446f71f85b5b848310612c3c5750612bf6935050810160200138612be9565b81935090816020925483858a01015201910190918592612c23565b905060209250612bf694915060ff191682840152151560051b82010138612be9565b6040519060008260045491612c8d83612b2a565b80835292600190818116908115612c575750600114612cb35750612bf692500383612b9a565b6004600090815291507f8a35acfbc15ff81a39ae7d344fd709f28e8600b4aa8c65c6b64bfe7fe36bd19b5b848310612cf75750612bf6935050810160200138612be9565b81935090816020925483858a01015201910190918592612cde565b9060405191826000825492612d2684612b2a565b908184526001948581169081600014612d935750600114612d50575b5050612bf692500383612b9a565b9093915060005260209081600020936000915b818310612d7b575050612bf693508201013880612d42565b85548884018501529485019487945091830191612d63565b915050612bf694506020925060ff191682840152151560051b8201013880612d42565b6001600160401b03811161125d57601f01601f191660200190565b81601f8201121561026f57803590612de882612db6565b92612df66040519485612b9a565b8284526020838301011161026f57816000926020809301838601378301015290565b600d54811015612e4f57600d6000527fd7b6990105719101dabeb77144f2a3385c8033acd3af97e9423a695e81ad1eb50190600090565b634e487b7160e01b600052603260045260246000fd5b6000546001600160a01b03163303612e7957565b606460405162461bcd60e51b815260206004820152602060248201527f4f776e61626c653a2063616c6c6572206973206e6f7420746865206f776e65726044820152fd5b15612ec457565b60405162461bcd60e51b815260206004820152601560248201527441697264726f70206973206e6f742061637469766560581b6044820152606490fd5b91908201809211612f0e57565b634e487b7160e01b600052601160045260246000fd5b15612f2b57565b60405162461bcd60e51b815260206004820152601b60248201527f436f6f6c646f776e20706572696f64206e6f7420656c617073656400000000006044820152606490fd5b15612f7757565b60405162461bcd60e51b8152602060048201526013602482015272496e73756666696369656e7420746f6b656e7360681b6044820152606490fd5b15612fb957565b60405162461bcd60e51b815260206004820152601060248201526f496e73756666696369656e742066656560801b6044820152606490fd5b3d1561301c573d9061300282612db6565b916130106040519384612b9a565b82523d6000602084013e565b606090565b1561302857565b60405162461bcd60e51b8152602060048201526013602482015272119959481d1c985b9cd9995c8819985a5b1959606a1b6044820152606490fd5b91908203918211612f0e57565b1561307757565b60405162461bcd60e51b815260206004820152600d60248201526c1499599d5b990819985a5b1959609a1b6044820152606490fd5b600d546801000000000000000081101561125d578060016130d09201600d55612e18565b819291549060031b9160018060a01b03809116831b921b1916179055565b6000198114612f0e5760010190565b9081602091031261026f5751801515810361026f5790565b1561311c57565b60405162461bcd60e51b8152602060048201526015602482015274151bdad95b881d1c985b9cd9995c8819985a5b1959605a1b6044820152606490fd5b60026001541461316a576002600155565b60405162461bcd60e51b815260206004820152601f60248201527f5265656e7472616e637947756172643a207265656e7472616e742063616c6c006044820152606490fd5b600754421015806131bd5790565b5060085442111590565b156131ce57565b60405162461bcd60e51b81526020600482015260156024820152745469746c652063616e6e6f7420626520656d70747960581b6044820152606490fd5b1561321257565b60405162461bcd60e51b815260206004820152601d60248201527f526577617264206d7573742062652067726561746572207468616e20300000006044820152606490fd5b6007821015611da45752565b906007811015611da45760ff80198354169116179055565b1561328257565b60405162461bcd60e51b815260206004820152600f60248201526e125b9d985b1a59081d185cdac81251608a1b6044820152606490fd5b604051906132c682612b64565b600060c08382815260606020820152606060408201526060808201528260808201528260a08201520152565b6001600160401b03811161125d5760051b60200190565b8051821015612e4f5760209160051b010190565b6001600160a01b03166000908152600c6020526040902054801561334a57600b5461334791612f01565b90565b50600090565b1561335757565b60405162461bcd60e51b815260206004820152601e60248201527f456e642074696d65206d75737420626520696e207468652066757475726500006044820152606490fd5b60208183031261026f578051906001600160401b03821161026f570181601f8201121561026f5780516133ce81612db6565b926133dc6040519485612b9a565b8184526020828401011161026f576133479160208085019101612a4d565b81810292918115918404141715612f0e5756fea2646970667358221220b6bf79a63cea19df0cc0c38005a160190f808627ecce456b028756305a3dc85564736f6c63430008130033",
  "linkReferences": {},
  "deployedLinkReferences": {}
}