{
  "_format": "hh-sol-artifact-1",
  "contractName": "TNTCAirdrop",
  "sourceName": "contracts/TNTCAirdrop.sol",
  "abi": [
    {
      "inputs": [
        {
          "internalType": "address",
          "name": "_tokenAddress",
          "type": "address"
        },
        {
          "internalType": "uint256",
          "name": "_startTime",
          "type": "uint256"
        },
        {
          "internalType": "uint256",
          "name": "_endTime",
          "type": "uint256"
        },
        {
          "internalType": "string",
          "name": "_airdropName",
          "type": "string"
        },
        {
          "internalType": "string",
          "name": "_airdropDescription",
          "type": "string"
        }
      ],
      "stateMutability": "nonpayable",
      "type": "constructor"
    },
    {
      "anonymous": false,
      "inputs": [
        {
          "indexed": true,
          "internalType": "address",
          "name": "user",
          "type": "address"
        },
        {
          "indexed": false,
          "internalType": "uint256",
          "name": "amount",
          "type": "uint256"
        }
      ],
      "name": "AirdropClaimed",
      "type": "event"
    },
    {
      "anonymous": false,
      "inputs": [
        {
          "indexed": false,
          "internalType": "uint256",
          "name": "newStartTime",
          "type": "uint256"
        },
        {
          "indexed": false,
          "internalType": "uint256",
          "name": "newEndTime",
          "type": "uint256"
        }
      ],
      "name": "AirdropTimingUpdated",
      "type": "event"
    },
    {
      "anonymous": false,
      "inputs": [
        {
          "indexed": false,
          "internalType": "uint256",
          "name": "newEndTime",
          "type": "uint256"
        }
      ],
      "name": "EndTimeUpdated",
      "type": "event"
    },
    {
      "anonymous": false,
      "inputs": [
        {
          "indexed": false,
          "internalType": "uint256",
          "name": "oldAmount",
          "type": "uint256"
        },
        {
          "indexed": false,
          "internalType": "uint256",
          "name": "newAmount",
          "type": "uint256"
        }
      ],
      "name": "FeeAmountUpdated",
      "type": "event"
    },
    {
      "anonymous": false,
      "inputs": [
        {
          "indexed": true,
          "internalType": "address",
          "name": "oldCollector",
          "type": "address"
        },
        {
          "indexed": true,
          "internalType": "address",
          "name": "newCollector",
          "type": "address"
        }
      ],
      "name": "FeeCollectorUpdated",
      "type": "event"
    },
    {
      "anonymous": false,
      "inputs": [
        {
          "indexed": true,
          "internalType": "address",
          "name": "user",
          "type": "address"
        },
        {
          "indexed": false,
          "internalType": "uint256",
          "name": "amount",
          "type": "uint256"
        }
      ],
      "name": "FeePaid",
      "type": "event"
    },
    {
      "anonymous": false,
      "inputs": [
        {
          "indexed": true,
          "internalType": "address",
          "name": "previousOwner",
          "type": "address"
        },
        {
          "indexed": true,
          "internalType": "address",
          "name": "newOwner",
          "type": "address"
        }
      ],
      "name": "OwnershipTransferred",
      "type": "event"
    },
    {
      "anonymous": false,
      "inputs": [
        {
          "indexed": true,
          "internalType": "address",
          "name": "referrer",
          "type": "address"
        },
        {
          "indexed": true,
          "internalType": "address",
          "name": "referee",
          "type": "address"
        },
        {
          "indexed": false,
          "internalType": "uint256",
          "name": "amount",
          "type": "uint256"
        }
      ],
      "name": "ReferralBonusClaimed",
      "type": "event"
    },
    {
      "anonymous": false,
      "inputs": [
        {
          "indexed": false,
          "internalType": "uint256",
          "name": "newStartTime",
          "type": "uint256"
        }
      ],
      "name": "StartTimeUpdated",
      "type": "event"
    },
    {
      "anonymous": false,
      "inputs": [
        {
          "indexed": true,
          "internalType": "address",
          "name": "from",
          "type": "address"
        },
        {
          "indexed": true,
          "internalType": "address",
          "name": "to",
          "type": "address"
        },
        {
          "indexed": false,
          "internalType": "uint256",
          "name": "amount",
          "type": "uint256"
        }
      ],
      "name": "TokensTransferred",
      "type": "event"
    },
    {
      "anonymous": false,
      "inputs": [
        {
          "indexed": true,
          "internalType": "address",
          "name": "from",
          "type": "address"
        },
        {
          "indexed": true,
          "internalType": "address",
          "name": "to",
          "type": "address"
        },
        {
          "indexed": false,
          "internalType": "uint256",
          "name": "amount",
          "type": "uint256"
        }
      ],
      "name": "TransferFailed",
      "type": "event"
    },
    {
      "inputs": [],
      "name": "airdropAmount",
      "outputs": [
        {
          "internalType": "uint256",
          "name": "",
          "type": "uint256"
        }
      ],
      "stateMutability": "view",
      "type": "function"
    },
    {
      "inputs": [],
      "name": "airdropDescription",
      "outputs": [
        {
          "internalType": "string",
          "name": "",
          "type": "string"
        }
      ],
      "stateMutability": "view",
      "type": "function"
    },
    {
      "inputs": [],
      "name": "airdropName",
      "outputs": [
        {
          "internalType": "string",
          "name": "",
          "type": "string"
        }
      ],
      "stateMutability": "view",
      "type": "function"
    },
    {
      "inputs": [],
      "name": "endTime",
      "outputs": [
        {
          "internalType": "uint256",
          "name": "",
          "type": "uint256"
        }
      ],
      "stateMutability": "view",
      "type": "function"
    },
    {
      "inputs": [],
      "name": "feeAmount",
      "outputs": [
        {
          "internalType": "uint256",
          "name": "",
          "type": "uint256"
        }
      ],
      "stateMutability": "view",
      "type": "function"
    },
    {
      "inputs": [],
      "name": "feeCollector",
      "outputs": [
        {
          "internalType": "address",
          "name": "",
          "type": "address"
        }
      ],
      "stateMutability": "view",
      "type": "function"
    },
    {
      "inputs": [
        {
          "internalType": "address",
          "name": "",
          "type": "address"
        }
      ],
      "name": "feesPaid",
      "outputs": [
        {
          "internalType": "uint256",
          "name": "",
          "type": "uint256"
        }
      ],
      "stateMutability": "view",
      "type": "function"
    },
    {
      "inputs": [],
      "name": "getAirdropInfo",
      "outputs": [
        {
          "internalType": "string",
          "name": "name",
          "type": "string"
        },
        {
          "internalType": "string",
          "name": "description",
          "type": "string"
        },
        {
          "internalType": "uint256",
          "name": "baseAmount",
          "type": "uint256"
        },
        {
          "internalType": "uint256",
          "name": "referralAmount",
          "type": "uint256"
        },
        {
          "internalType": "uint256",
          "name": "start",
          "type": "uint256"
        },
        {
          "internalType": "uint256",
          "name": "end",
          "type": "uint256"
        },
        {
          "internalType": "uint256",
          "name": "remainingTokens",
          "type": "uint256"
        },
        {
          "internalType": "uint256",
          "name": "totalParticipants",
          "type": "uint256"
        },
        {
          "internalType": "bool",
          "name": "isAirdropActive",
          "type": "bool"
        },
        {
          "internalType": "uint256",
          "name": "currentFeeAmount",
          "type": "uint256"
        },
        {
          "internalType": "address",
          "name": "currentFeeCollector",
          "type": "address"
        },
        {
          "internalType": "uint256",
          "name": "totalFeesCollected",
          "type": "uint256"
        }
      ],
      "stateMutability": "view",
      "type": "function"
    },
    {
      "inputs": [],
      "name": "getAllParticipants",
      "outputs": [
        {
          "components": [
            {
              "internalType": "address",
              "name": "userAddress",
              "type": "address"
            },
            {
              "internalType": "bool",
              "name": "hasParticipated",
              "type": "bool"
            },
            {
              "internalType": "uint256",
              "name": "referralCount",
              "type": "uint256"
            },
            {
              "internalType": "address",
              "name": "referrer",
              "type": "address"
            },
            {
              "internalType": "uint256",
              "name": "totalEarned",
              "type": "uint256"
            },
            {
              "internalType": "uint256",
              "name": "participationTime",
              "type": "uint256"
            },
            {
              "internalType": "uint256",
              "name": "feePaid",
              "type": "uint256"
            }
          ],
          "internalType": "struct TNTCAirdrop.ParticipantInfo[]",
          "name": "",
          "type": "tuple[]"
        }
      ],
      "stateMutability": "view",
      "type": "function"
    },
    {
      "inputs": [
        {
          "internalType": "address",
          "name": "user",
          "type": "address"
        }
      ],
      "name": "getReferralCount",
      "outputs": [
        {
          "internalType": "uint256",
          "name": "",
          "type": "uint256"
        }
      ],
      "stateMutability": "view",
      "type": "function"
    },
    {
      "inputs": [
        {
          "internalType": "address",
          "name": "user",
          "type": "address"
        }
      ],
      "name": "getReferrer",
      "outputs": [
        {
          "internalType": "address",
          "name": "",
          "type": "address"
        }
      ],
      "stateMutability": "view",
      "type": "function"
    },
    {
      "inputs": [],
      "name": "getTokenInfo",
      "outputs": [
        {
          "internalType": "address",
          "name": "tokenAddress",
          "type": "address"
        },
        {
          "internalType": "string",
          "name": "name",
          "type": "string"
        },
        {
          "internalType": "string",
          "name": "symbol",
          "type": "string"
        },
        {
          "internalType": "uint8",
          "name": "decimals",
          "type": "uint8"
        },
        {
          "internalType": "uint256",
          "name": "totalSupply",
          "type": "uint256"
        },
        {
          "internalType": "uint256",
          "name": "airdropContractBalance",
          "type": "uint256"
        }
      ],
      "stateMutability": "view",
      "type": "function"
    },
    {
      "inputs": [],
      "name": "getTotalParticipants",
      "outputs": [
        {
          "internalType": "uint256",
          "name": "",
          "type": "uint256"
        }
      ],
      "stateMutability": "view",
      "type": "function"
    },
    {
      "inputs": [
        {
          "internalType": "address",
          "name": "user",
          "type": "address"
        }
      ],
      "name": "getUserParticipationInfo",
      "outputs": [
        {
          "internalType": "bool",
          "name": "hasParticipated_",
          "type": "bool"
        },
        {
          "internalType": "uint256",
          "name": "referralCount_",
          "type": "uint256"
        },
        {
          "internalType": "address",
          "name": "referrer_",
          "type": "address"
        },
        {
          "internalType": "uint256",
          "name": "totalEarned",
          "type": "uint256"
        },
        {
          "internalType": "uint256",
          "name": "feePaid_",
          "type": "uint256"
        }
      ],
      "stateMutability": "view",
      "type": "function"
    },
    {
      "inputs": [
        {
          "internalType": "address",
          "name": "",
          "type": "address"
        }
      ],
      "name": "hasParticipated",
      "outputs": [
        {
          "internalType": "bool",
          "name": "",
          "type": "bool"
        }
      ],
      "stateMutability": "view",
      "type": "function"
    },
    {
      "inputs": [],
      "name": "owner",
      "outputs": [
        {
          "internalType": "address",
          "name": "",
          "type": "address"
        }
      ],
      "stateMutability": "view",
      "type": "function"
    },
    {
      "inputs": [
        {
          "internalType": "uint256",
          "name": "",
          "type": "uint256"
        }
      ],
      "name": "participantAddresses",
      "outputs": [
        {
          "internalType": "address",
          "name": "",
          "type": "address"
        }
      ],
      "stateMutability": "view",
      "type": "function"
    },
    {
      "inputs": [
        {
          "internalType": "address",
          "name": "referrer",
          "type": "address"
        }
      ],
      "name": "participate",
      "outputs": [],
      "stateMutability": "payable",
      "type": "function"
    },
    {
      "inputs": [],
      "name": "participateWithoutReferral",
      "outputs": [],
      "stateMutability": "payable",
      "type": "function"
    },
    {
      "inputs": [],
      "name": "referralBonus",
      "outputs": [
        {
          "internalType": "uint256",
          "name": "",
          "type": "uint256"
        }
      ],
      "stateMutability": "view",
      "type": "function"
    },
    {
      "inputs": [
        {
          "internalType": "address",
          "name": "",
          "type": "address"
        }
      ],
      "name": "referralCount",
      "outputs": [
        {
          "internalType": "uint256",
          "name": "",
          "type": "uint256"
        }
      ],
      "stateMutability": "view",
      "type": "function"
    },
    {
      "inputs": [
        {
          "internalType": "address",
          "name": "",
          "type": "address"
        }
      ],
      "name": "referredBy",
      "outputs": [
        {
          "internalType": "address",
          "name": "",
          "type": "address"
        }
      ],
      "stateMutability": "view",
      "type": "function"
    },
    {
      "inputs": [],
      "name": "renounceOwnership",
      "outputs": [],
      "stateMutability": "nonpayable",
      "type": "function"
    },
    {
      "inputs": [
        {
          "internalType": "uint256",
          "name": "_amount",
          "type": "uint256"
        }
      ],
      "name": "setAirdropAmount",
      "outputs": [],
      "stateMutability": "nonpayable",
      "type": "function"
    },
    {
      "inputs": [
        {
          "internalType": "uint256",
          "name": "_newEndTime",
          "type": "uint256"
        }
      ],
      "name": "setEndTime",
      "outputs": [],
      "stateMutability": "nonpayable",
      "type": "function"
    },
    {
      "inputs": [
        {
          "internalType": "uint256",
          "name": "_newFeeAmount",
          "type": "uint256"
        }
      ],
      "name": "setFeeAmount",
      "outputs": [],
      "stateMutability": "nonpayable",
      "type": "function"
    },
    {
      "inputs": [
        {
          "internalType": "address",
          "name": "_newCollector",
          "type": "address"
        }
      ],
      "name": "setFeeCollector",
      "outputs": [],
      "stateMutability": "nonpayable",
      "type": "function"
    },
    {
      "inputs": [
        {
          "internalType": "uint256",
          "name": "_amount",
          "type": "uint256"
        }
      ],
      "name": "setReferralBonus",
      "outputs": [],
      "stateMutability": "nonpayable",
      "type": "function"
    },
    {
      "inputs": [
        {
          "internalType": "uint256",
          "name": "_newStartTime",
          "type": "uint256"
        }
      ],
      "name": "setStartTime",
      "outputs": [],
      "stateMutability": "nonpayable",
      "type": "function"
    },
    {
      "inputs": [],
      "name": "startTime",
      "outputs": [
        {
          "internalType": "uint256",
          "name": "",
          "type": "uint256"
        }
      ],
      "stateMutability": "view",
      "type": "function"
    },
    {
      "inputs": [],
      "name": "token",
      "outputs": [
        {
          "internalType": "contract IERC20Extended",
          "name": "",
          "type": "address"
        }
      ],
      "stateMutability": "view",
      "type": "function"
    },
    {
      "inputs": [
        {
          "internalType": "address",
          "name": "newOwner",
          "type": "address"
        }
      ],
      "name": "transferOwnership",
      "outputs": [],
      "stateMutability": "nonpayable",
      "type": "function"
    },
    {
      "inputs": [
        {
          "internalType": "uint256",
          "name": "_newStartTime",
          "type": "uint256"
        },
        {
          "internalType": "uint256",
          "name": "_newEndTime",
          "type": "uint256"
        }
      ],
      "name": "updateAirdropTiming",
      "outputs": [],
      "stateMutability": "nonpayable",
      "type": "function"
    },
    {
      "inputs": [],
      "name": "withdrawFees",
      "outputs": [],
      "stateMutability": "nonpayable",
      "type": "function"
    },
    {
      "inputs": [],
      "name": "withdrawTokens",
      "outputs": [],
      "stateMutability": "nonpayable",
      "type": "function"
    },
    {
      "stateMutability": "payable",
      "type": "receive"
    }
  ],
  "bytecode": "0x6080604052674563918244f40000600555670de0b6b3a76400006006553480156200002957600080fd5b50604051620029ff380380620029ff8339810160408190526200004c9162000273565b62000057336200015e565b600180556001600160a01b038516620000b75760405162461bcd60e51b815260206004820152601560248201527f496e76616c696420746f6b656e2061646472657373000000000000000000000060448201526064015b60405180910390fd5b828410620000fd5760405162461bcd60e51b8152602060048201526012602482015271496e76616c69642074696d652072616e676560701b6044820152606401620000ae565b600280546001600160a01b0319166001600160a01b038716179055600784905560088390556003620001308382620003a1565b5060046200013f8282620003a1565b5050600980546001600160a01b03191633179055506200046d92505050565b600080546001600160a01b038381166001600160a01b0319831681178455604051919092169283917f8be0079c531659141344cd1fd0a4f28419497f9722a3daafe3b4186f6b6457e09190a35050565b634e487b7160e01b600052604160045260246000fd5b600082601f830112620001d657600080fd5b81516001600160401b0380821115620001f357620001f3620001ae565b604051601f8301601f19908116603f011681019082821181831017156200021e576200021e620001ae565b816040528381526020925086838588010111156200023b57600080fd5b600091505b838210156200025f578582018301518183018401529082019062000240565b600093810190920192909252949350505050565b600080600080600060a086880312156200028c57600080fd5b85516001600160a01b0381168114620002a457600080fd5b60208701516040880151606089015192975090955093506001600160401b0380821115620002d157600080fd5b620002df89838a01620001c4565b93506080880151915080821115620002f657600080fd5b506200030588828901620001c4565b9150509295509295909350565b600181811c908216806200032757607f821691505b6020821081036200034857634e487b7160e01b600052602260045260246000fd5b50919050565b601f8211156200039c57600081815260208120601f850160051c81016020861015620003775750805b601f850160051c820191505b81811015620003985782815560010162000383565b5050505b505050565b81516001600160401b03811115620003bd57620003bd620001ae565b620003d581620003ce845462000312565b846200034e565b602080601f8311600181146200040d5760008415620003f45750858301515b600019600386901b1c1916600185901b17855562000398565b600085815260208120601f198616915b828110156200043e578886015182559484019460019091019084016200041d565b50858210156200045d5787850151600019600388901b60f8161c191681555b5050505050600190811b01905550565b612582806200047d6000396000f3fe6080604052600436106102085760003560e01c8063799ecb3411610118578063b4fb3ee3116100a0578063ce7842f51161006f578063ce7842f51461064b578063db74559b14610661578063f2fde38b1461068e578063fc0c546a146106ae578063fc2ea8a5146106ce57600080fd5b8063b4fb3ee3146105b8578063b91038c7146105f8578063c415b95c1461060b578063ccb98ffc1461062b57600080fd5b8063a42dce80116100e7578063a42dce8014610506578063a5500c3014610526578063a90cc44514610546578063a90f8e9a1461055b578063abb1dc441461059157600080fd5b8063799ecb34146104865780638d8f2adb146104b35780638da5cb5b146104c85780639a037aa0146104e657600080fd5b8063476343ee1161019b57806369e154041161016a57806369e15404146104105780636b392680146104265780636c9533d114610446578063715018a61461045b57806378e979251461047057600080fd5b8063476343ee1461036a5780634a9fefc71461037f5780634b6ce9bc146103d057806354ffbddb146103f057600080fd5b80633197cbb6116101d75780633197cbb6146102e557806332f08873146102fb5780633d3c0315146103285780633e0a322d1461034a57600080fd5b8063043ea7a914610214578063195ec9ee1461021e57806324acbd6914610249578063291201421461028d57600080fd5b3661020f57005b600080fd5b61021c6106e4565b005b34801561022a57600080fd5b50610233610b56565b60405161024091906120ff565b60405180910390f35b34801561025557600080fd5b5061027f610264366004612191565b6001600160a01b03166000908152600d602052604090205490565b604051908152602001610240565b34801561029957600080fd5b506102ad6102a8366004612191565b610cd0565b60408051951515865260208601949094526001600160a01b03909216928401929092526060830191909152608082015260a001610240565b3480156102f157600080fd5b5061027f60085481565b34801561030757600080fd5b50610310610d5b565b6040516102409c9b9a99989796959493929190612211565b34801561033457600080fd5b5061033d610f52565b6040516102409190612294565b34801561035657600080fd5b5061021c6103653660046122a7565b610fe0565b34801561037657600080fd5b5061021c6110cf565b34801561038b57600080fd5b506103b861039a366004612191565b6001600160a01b039081166000908152600e60205260409020541690565b6040516001600160a01b039091168152602001610240565b3480156103dc57600080fd5b5061021c6103eb3660046122c0565b6111ba565b3480156103fc57600080fd5b506103b861040b3660046122a7565b61129d565b34801561041c57600080fd5b5061027f600a5481565b34801561043257600080fd5b5061021c6104413660046122a7565b6112c7565b34801561045257600080fd5b5061033d61130d565b34801561046757600080fd5b5061021c61131a565b34801561047c57600080fd5b5061027f60075481565b34801561049257600080fd5b5061027f6104a1366004612191565b600f6020526000908152604090205481565b3480156104bf57600080fd5b5061021c61132c565b3480156104d457600080fd5b506000546001600160a01b03166103b8565b3480156104f257600080fd5b5061021c6105013660046122a7565b61149e565b34801561051257600080fd5b5061021c610521366004612191565b6114ab565b34801561053257600080fd5b5061021c6105413660046122a7565b61154d565b34801561055257600080fd5b50600b5461027f565b34801561056757600080fd5b506103b8610576366004612191565b600e602052600090815260409020546001600160a01b031681565b34801561059d57600080fd5b506105a661155a565b604051610240969594939291906122e2565b3480156105c457600080fd5b506105e86105d3366004612191565b600c6020526000908152604090205460ff1681565b6040519015158152602001610240565b61021c610606366004612191565b6117c2565b34801561061757600080fd5b506009546103b8906001600160a01b031681565b34801561063757600080fd5b5061021c6106463660046122a7565b611e84565b34801561065757600080fd5b5061027f60065481565b34801561066d57600080fd5b5061027f61067c366004612191565b600d6020526000908152604090205481565b34801561069a57600080fd5b5061021c6106a9366004612191565b611f6b565b3480156106ba57600080fd5b506002546103b8906001600160a01b031681565b3480156106da57600080fd5b5061027f60055481565b6106ec611fe1565b6106f461203a565b61073d5760405162461bcd60e51b815260206004820152601560248201527441697264726f70206973206e6f742061637469766560581b60448201526064015b60405180910390fd5b336000908152600c602052604090205460ff16156107945760405162461bcd60e51b8152602060048201526014602482015273105b1c9958591e481c185c9d1a58da5c185d195960621b6044820152606401610734565b6005546002546040516370a0823160e01b81523060048201526001600160a01b03909116906370a0823190602401602060405180830381865afa1580156107df573d6000803e3d6000fd5b505050506040513d601f19601f82011682018060405250810190610803919061233a565b10156108475760405162461bcd60e51b8152602060048201526013602482015272496e73756666696369656e7420746f6b656e7360681b6044820152606401610734565b600a5415610a2157600a543410156108945760405162461bcd60e51b815260206004820152601060248201526f496e73756666696369656e742066656560801b6044820152606401610734565b600954600a546040516000926001600160a01b031691908381818185875af1925050503d80600081146108e3576040519150601f19603f3d011682016040523d82523d6000602084013e6108e8565b606091505b505090508061092f5760405162461bcd60e51b8152602060048201526013602482015272119959481d1c985b9cd9995c8819985a5b1959606a1b6044820152606401610734565b600a543411156109cf57600a54600090339061094b9034612369565b604051600081818185875af1925050503d8060008114610987576040519150601f19603f3d011682016040523d82523d6000602084013e61098c565b606091505b50509050806109cd5760405162461bcd60e51b815260206004820152600d60248201526c1499599d5b990819985a5b1959609a1b6044820152606401610734565b505b600a54336000818152600f6020526040908190208390555190917f075a2720282fdf622141dae0b048ef90a21a7e57c134c76912d19d006b3b3f6f91610a1791815260200190565b60405180910390a2505b336000818152600c6020526040808220805460ff19166001908117909155600b805491820181559092527f0175b7a638427703f0dbe7bb9bbf987a2551717b34e79f33b5b1008d1fa01db990910180546001600160a01b03191683179055600254600554915163a9059cbb60e01b8152600481019390935260248301919091526001600160a01b03169063a9059cbb906044016020604051808303816000875af1158015610ad3573d6000803e3d6000fd5b505050506040513d601f19601f82011682018060405250810190610af79190612382565b610b135760405162461bcd60e51b8152600401610734906123a4565b60055460405190815233907f650e45f04ef8a0c267b2f78d983913f69ae3a353b2b32de5429307522be0ab559060200160405180910390a2610b5460018055565b565b600b5460609060008167ffffffffffffffff811115610b7757610b776123d3565b604051908082528060200260200182016040528015610bfc57816020015b610be96040518060e0016040528060006001600160a01b031681526020016000151581526020016000815260200160006001600160a01b031681526020016000815260200160008152602001600081525090565b815260200190600190039081610b955790505b50905060005b82811015610cc9576000600b8281548110610c1f57610c1f6123e9565b60009182526020822001546001600160a01b0316915080808080610c4286610cd0565b945094509450945094506040518060e00160405280876001600160a01b031681526020018615158152602001858152602001846001600160a01b0316815260200183815260200142815260200182815250888881518110610ca557610ca56123e9565b60200260200101819052505050505050508080610cc1906123ff565b915050610c02565b5092915050565b6001600160a01b038082166000908152600c6020908152604080832054600d835281842054600e9093529083205460ff9091169391929116908084610d16576000610d1a565b6005545b915060065484610d2a9190612418565b610d34908361242f565b6001600160a01b039096166000908152600f60205260409020549496939592949293915050565b6005546006546007546008546002546040516370a0823160e01b81523060048281019190915260609687966000968796879687968796879687968796879687966003966001600160a01b03909116906370a0823190602401602060405180830381865afa158015610dd0573d6000803e3d6000fd5b505050506040513d601f19601f82011682018060405250810190610df4919061233a565b600b54610dff61203a565b600a546009548a546001600160a01b039091169047908c90610e2090612442565b80601f0160208091040260200160405190810160405280929190818152602001828054610e4c90612442565b8015610e995780601f10610e6e57610100808354040283529160200191610e99565b820191906000526020600020905b815481529060010190602001808311610e7c57829003601f168201915b50505050509b508a8054610eac90612442565b80601f0160208091040260200160405190810160405280929190818152602001828054610ed890612442565b8015610f255780601f10610efa57610100808354040283529160200191610f25565b820191906000526020600020905b815481529060010190602001808311610f0857829003601f168201915b50505050509a509b509b509b509b509b509b509b509b509b509b509b509b50909192939495969798999a9b565b60048054610f5f90612442565b80601f0160208091040260200160405190810160405280929190818152602001828054610f8b90612442565b8015610fd85780601f10610fad57610100808354040283529160200191610fd8565b820191906000526020600020905b815481529060010190602001808311610fbb57829003601f168201915b505050505081565b610fe8612055565b60085481106110445760405162461bcd60e51b815260206004820152602260248201527f53746172742074696d65206d757374206265206265666f726520656e642074696044820152616d6560f01b6064820152608401610734565b4281116110935760405162461bcd60e51b815260206004820181905260248201527f53746172742074696d65206d75737420626520696e20746865206675747572656044820152606401610734565b60078190556040518181527f9c5b354b21055675b708256fbf890975529c5e58066b2e826541d253b389cd14906020015b60405180910390a150565b6110d7612055565b478061111b5760405162461bcd60e51b81526020600482015260136024820152724e6f206665657320746f20776974686472617760681b6044820152606401610734565b6009546040516000916001600160a01b03169083908381818185875af1925050503d8060008114611168576040519150601f19603f3d011682016040523d82523d6000602084013e61116d565b606091505b50509050806111b65760405162461bcd60e51b8152602060048201526015602482015274119959481dda5d1a191c985dd85b0819985a5b1959605a1b6044820152606401610734565b5050565b6111c2612055565b8082106112065760405162461bcd60e51b8152602060048201526012602482015271496e76616c69642074696d652072616e676560701b6044820152606401610734565b4281116112555760405162461bcd60e51b815260206004820152601e60248201527f456e642074696d65206d75737420626520696e207468652066757475726500006044820152606401610734565b6007829055600881905560408051838152602081018390527fa73c2a4e4657f5e1ff94a19ffe5f535cdd2dd893a121899816c3e9f66565cb0191015b60405180910390a15050565b600b81815481106112ad57600080fd5b6000918252602090912001546001600160a01b0316905081565b6112cf612055565b600a80549082905560408051828152602081018490527fb6600428041f36ab218d984115a85adc1ffb17cb85a81801032cb590a8a8bc999101611291565b60038054610f5f90612442565b611322612055565b610b5460006120af565b611334612055565b6002546040516370a0823160e01b81523060048201526000916001600160a01b0316906370a0823190602401602060405180830381865afa15801561137d573d6000803e3d6000fd5b505050506040513d601f19601f820116820180604052508101906113a1919061233a565b9050600081116113eb5760405162461bcd60e51b81526020600482015260156024820152744e6f20746f6b656e7320746f20776974686472617760581b6044820152606401610734565b6002546001600160a01b031663a9059cbb61140e6000546001600160a01b031690565b6040516001600160e01b031960e084901b1681526001600160a01b039091166004820152602481018490526044016020604051808303816000875af115801561145b573d6000803e3d6000fd5b505050506040513d601f19601f8201168201806040525081019061147f9190612382565b61149b5760405162461bcd60e51b8152600401610734906123a4565b50565b6114a6612055565b600655565b6114b3612055565b6001600160a01b0381166114fb5760405162461bcd60e51b815260206004820152600f60248201526e496e76616c6964206164647265737360881b6044820152606401610734565b600980546001600160a01b038381166001600160a01b0319831681179093556040519116919082907f5d16ad41baeb009cd23eb8f6c7cde5c2e0cd5acf4a33926ab488875c37c37f3890600090a35050565b611555612055565b600555565b600254604080516306fdde0360e01b8152905160009260609283928592839283926001600160a01b039092169182916306fdde0391600480830192879291908290030181865afa1580156115b2573d6000803e3d6000fd5b505050506040513d6000823e601f3d908101601f191682016040526115da919081019061247c565b600260009054906101000a90046001600160a01b03166001600160a01b03166395d89b416040518163ffffffff1660e01b8152600401600060405180830381865afa15801561162d573d6000803e3d6000fd5b505050506040513d6000823e601f3d908101601f19168201604052611655919081019061247c565b600260009054906101000a90046001600160a01b03166001600160a01b031663313ce5676040518163ffffffff1660e01b8152600401602060405180830381865afa1580156116a8573d6000803e3d6000fd5b505050506040513d601f19601f820116820180604052508101906116cc9190612529565b600260009054906101000a90046001600160a01b03166001600160a01b03166318160ddd6040518163ffffffff1660e01b8152600401602060405180830381865afa15801561171f573d6000803e3d6000fd5b505050506040513d601f19601f82011682018060405250810190611743919061233a565b6002546040516370a0823160e01b81523060048201526001600160a01b03909116906370a0823190602401602060405180830381865afa15801561178b573d6000803e3d6000fd5b505050506040513d601f19601f820116820180604052508101906117af919061233a565b949b939a50919850965094509092509050565b6117ca611fe1565b6117d261203a565b6118165760405162461bcd60e51b815260206004820152601560248201527441697264726f70206973206e6f742061637469766560581b6044820152606401610734565b336000908152600c602052604090205460ff161561186d5760405162461bcd60e51b8152602060048201526014602482015273105b1c9958591e481c185c9d1a58da5c185d195960621b6044820152606401610734565b336001600160a01b038216036118bd5760405162461bcd60e51b815260206004820152601560248201527421b0b73737ba103932b332b9103cb7bab939b2b63360591b6044820152606401610734565b6005546002546040516370a0823160e01b81523060048201526001600160a01b03909116906370a0823190602401602060405180830381865afa158015611908573d6000803e3d6000fd5b505050506040513d601f19601f8201168201806040525081019061192c919061233a565b10156119705760405162461bcd60e51b8152602060048201526013602482015272496e73756666696369656e7420746f6b656e7360681b6044820152606401610734565b600a5415611b4a57600a543410156119bd5760405162461bcd60e51b815260206004820152601060248201526f496e73756666696369656e742066656560801b6044820152606401610734565b600954600a546040516000926001600160a01b031691908381818185875af1925050503d8060008114611a0c576040519150601f19603f3d011682016040523d82523d6000602084013e611a11565b606091505b5050905080611a585760405162461bcd60e51b8152602060048201526013602482015272119959481d1c985b9cd9995c8819985a5b1959606a1b6044820152606401610734565b600a54341115611af857600a546000903390611a749034612369565b604051600081818185875af1925050503d8060008114611ab0576040519150601f19603f3d011682016040523d82523d6000602084013e611ab5565b606091505b5050905080611af65760405162461bcd60e51b815260206004820152600d60248201526c1499599d5b990819985a5b1959609a1b6044820152606401610734565b505b600a54336000818152600f6020526040908190208390555190917f075a2720282fdf622141dae0b048ef90a21a7e57c134c76912d19d006b3b3f6f91611b4091815260200190565b60405180910390a2505b336000818152600c6020526040808220805460ff19166001908117909155600b805491820181559092527f0175b7a638427703f0dbe7bb9bbf987a2551717b34e79f33b5b1008d1fa01db990910180546001600160a01b03191683179055600254600554915163a9059cbb60e01b8152600481019390935260248301919091526001600160a01b03169063a9059cbb906044016020604051808303816000875af1158015611bfc573d6000803e3d6000fd5b505050506040513d601f19601f82011682018060405250810190611c209190612382565b611c3c5760405162461bcd60e51b8152600401610734906123a4565b60055460405190815233907f650e45f04ef8a0c267b2f78d983913f69ae3a353b2b32de5429307522be0ab559060200160405180910390a26001600160a01b03811615801590611ca457506001600160a01b0381166000908152600c602052604090205460ff165b15611e7b57336000908152600e6020908152604080832080546001600160a01b0319166001600160a01b0386169081179091558352600d9091528120805491611cec836123ff565b90915550506006546002546040516370a0823160e01b81523060048201526001600160a01b03909116906370a0823190602401602060405180830381865afa158015611d3c573d6000803e3d6000fd5b505050506040513d601f19601f82011682018060405250810190611d60919061233a565b10611e7b5760025460065460405163a9059cbb60e01b81526001600160a01b038481166004830152602482019290925291169063a9059cbb906044016020604051808303816000875af1158015611dbb573d6000803e3d6000fd5b505050506040513d601f19601f82011682018060405250810190611ddf9190612382565b611e2b5760405162461bcd60e51b815260206004820152601e60248201527f526566657272616c20626f6e7573207472616e73666572206661696c656400006044820152606401610734565b336001600160a01b0316816001600160a01b03167fca55b80ee391a1f76a4e016ebc5a1afe15e0463250300e133628a95c7a7c4cd9600654604051611e7291815260200190565b60405180910390a35b61149b60018055565b611e8c612055565b6007548111611ee75760405162461bcd60e51b815260206004820152602160248201527f456e642074696d65206d7573742062652061667465722073746172742074696d6044820152606560f81b6064820152608401610734565b428111611f365760405162461bcd60e51b815260206004820152601e60248201527f456e642074696d65206d75737420626520696e207468652066757475726500006044820152606401610734565b60088190556040518181527f37d37b8940cc1ec723111799f54132501e05042cd219649e575e84e5c36f3b5e906020016110c4565b611f73612055565b6001600160a01b038116611fd85760405162461bcd60e51b815260206004820152602660248201527f4f776e61626c653a206e6577206f776e657220697320746865207a65726f206160448201526564647265737360d01b6064820152608401610734565b61149b816120af565b6002600154036120335760405162461bcd60e51b815260206004820152601f60248201527f5265656e7472616e637947756172643a207265656e7472616e742063616c6c006044820152606401610734565b6002600155565b6000600754421015801561205057506008544211155b905090565b6000546001600160a01b03163314610b545760405162461bcd60e51b815260206004820181905260248201527f4f776e61626c653a2063616c6c6572206973206e6f7420746865206f776e65726044820152606401610734565b600080546001600160a01b038381166001600160a01b0319831681178455604051919092169283917f8be0079c531659141344cd1fd0a4f28419497f9722a3daafe3b4186f6b6457e09190a35050565b602080825282518282018190526000919060409081850190868401855b8281101561218457815180516001600160a01b039081168652878201511515888701528682015187870152606080830151909116908601526080808201519086015260a0808201519086015260c0908101519085015260e0909301929085019060010161211c565b5091979650505050505050565b6000602082840312156121a357600080fd5b81356001600160a01b03811681146121ba57600080fd5b9392505050565b60005b838110156121dc5781810151838201526020016121c4565b50506000910152565b600081518084526121fd8160208601602086016121c1565b601f01601f19169290920160200192915050565b6101808152600061222661018083018f6121e5565b8281036020840152612238818f6121e5565b604084019d909d5250506060810199909952608089019790975260a088019590955260c087019390935260e086019190915215156101008501526101208401526001600160a01b03166101408301526101609091015292915050565b6020815260006121ba60208301846121e5565b6000602082840312156122b957600080fd5b5035919050565b600080604083850312156122d357600080fd5b50508035926020909101359150565b6001600160a01b038716815260c060208201819052600090612306908301886121e5565b828103604084015261231881886121e5565b60ff9690961660608401525050608081019290925260a0909101529392505050565b60006020828403121561234c57600080fd5b5051919050565b634e487b7160e01b600052601160045260246000fd5b8181038181111561237c5761237c612353565b92915050565b60006020828403121561239457600080fd5b815180151581146121ba57600080fd5b602080825260159082015274151bdad95b881d1c985b9cd9995c8819985a5b1959605a1b604082015260600190565b634e487b7160e01b600052604160045260246000fd5b634e487b7160e01b600052603260045260246000fd5b60006001820161241157612411612353565b5060010190565b808202811582820484141761237c5761237c612353565b8082018082111561237c5761237c612353565b600181811c9082168061245657607f821691505b60208210810361247657634e487b7160e01b600052602260045260246000fd5b50919050565b60006020828403121561248e57600080fd5b815167ffffffffffffffff808211156124a657600080fd5b818401915084601f8301126124ba57600080fd5b8151818111156124cc576124cc6123d3565b604051601f8201601f19908116603f011681019083821181831017156124f4576124f46123d3565b8160405282815287602084870101111561250d57600080fd5b61251e8360208301602088016121c1565b979650505050505050565b60006020828403121561253b57600080fd5b815160ff811681146121ba57600080fdfea2646970667358221220b71fe0b0ecb09588c79a80b412a50639e8c1fc65a61540d6e464bf14c32ca39f64736f6c63430008130033",
  "linkReferences": {},
  "deployedLinkReferences": {}
}