{"contracts/TNTCAirdrop.sol":{"TNTCAirdrop":{"abi":[{"inputs":[{"internalType":"address","name":"_tokenAddress","type":"address"},{"internalType":"uint256","name":"_startTime","type":"uint256"},{"internalType":"uint256","name":"_endTime","type":"uint256"},{"internalType":"string","name":"_airdropName","type":"string"},{"internalType":"string","name":"_airdropDescription","type":"string"}],"stateMutability":"nonpayable","type":"constructor"},{"anonymous":false,"inputs":[{"indexed":true,"internalType":"address","name":"user","type":"address"},{"indexed":false,"internalType":"uint256","name":"amount","type":"uint256"}],"name":"AirdropClaimed","type":"event"},{"anonymous":false,"inputs":[{"indexed":false,"internalType":"uint256","name":"newStartTime","type":"uint256"},{"indexed":false,"internalType":"uint256","name":"newEndTime","type":"uint256"}],"name":"AirdropTimingUpdated","type":"event"},{"anonymous":false,"inputs":[{"indexed":false,"internalType":"uint256","name":"newCooldown","type":"uint256"}],"name":"ClaimCooldownUpdated","type":"event"},{"anonymous":false,"inputs":[{"indexed":false,"internalType":"uint256","name":"newEndTime","type":"uint256"}],"name":"EndTimeUpdated","type":"event"},{"anonymous":false,"inputs":[{"indexed":false,"internalType":"uint256","name":"oldAmount","type":"uint256"},{"indexed":false,"internalType":"uint256","name":"newAmount","type":"uint256"}],"name":"FeeAmountUpdated","type":"event"},{"anonymous":false,"inputs":[{"indexed":true,"internalType":"address","name":"oldCollector","type":"address"},{"indexed":true,"internalType":"address","name":"newCollector","type":"address"}],"name":"FeeCollectorUpdated","type":"event"},{"anonymous":false,"inputs":[{"indexed":true,"internalType":"address","name":"user","type":"address"},{"indexed":false,"internalType":"uint256","name":"amount","type":"uint256"}],"name":"FeePaid","type":"event"},{"anonymous":false,"inputs":[{"indexed":true,"internalType":"address","name":"previousOwner","type":"address"},{"indexed":true,"internalType":"address","name":"newOwner","type":"address"}],"name":"OwnershipTransferred","type":"event"},{"anonymous":false,"inputs":[{"indexed":true,"internalType":"address","name":"referrer","type":"address"},{"indexed":true,"internalType":"address","name":"referee","type":"address"},{"indexed":false,"internalType":"uint256","name":"amount","type":"uint256"}],"name":"ReferralBonusClaimed","type":"event"},{"anonymous":false,"inputs":[{"indexed":false,"internalType":"uint256","name":"newStartTime","type":"uint256"}],"name":"StartTimeUpdated","type":"event"},{"anonymous":false,"inputs":[{"indexed":true,"internalType":"address","name":"from","type":"address"},{"indexed":true,"internalType":"address","name":"to","type":"address"},{"indexed":false,"internalType":"uint256","name":"amount","type":"uint256"}],"name":"TokensTransferred","type":"event"},{"anonymous":false,"inputs":[{"indexed":true,"internalType":"address","name":"from","type":"address"},{"indexed":true,"internalType":"address","name":"to","type":"address"},{"indexed":false,"internalType":"uint256","name":"amount","type":"uint256"}],"name":"TransferFailed","type":"event"},{"inputs":[],"name":"airdropAmount","outputs":[{"internalType":"uint256","name":"","type":"uint256"}],"stateMutability":"view","type":"function"},{"inputs":[],"name":"airdropDescription","outputs":[{"internalType":"string","name":"","type":"string"}],"stateMutability":"view","type":"function"},{"inputs":[],"name":"airdropName","outputs":[{"internalType":"string","name":"","type":"string"}],"stateMutability":"view","type":"function"},{"inputs":[],"name":"claimCooldown","outputs":[{"internalType":"uint256","name":"","type":"uint256"}],"stateMutability":"view","type":"function"},{"inputs":[],"name":"endTime","outputs":[{"internalType":"uint256","name":"","type":"uint256"}],"stateMutability":"view","type":"function"},{"inputs":[],"name":"feeAmount","outputs":[{"internalType":"uint256","name":"","type":"uint256"}],"stateMutability":"view","type":"function"},{"inputs":[],"name":"feeCollector","outputs":[{"internalType":"address","name":"","type":"address"}],"stateMutability":"view","type":"function"},{"inputs":[{"internalType":"address","name":"","type":"address"}],"name":"feesPaid","outputs":[{"internalType":"uint256","name":"","type":"uint256"}],"stateMutability":"view","type":"function"},{"inputs":[],"name":"getAirdropInfo","outputs":[{"internalType":"string","name":"name","type":"string"},{"internalType":"string","name":"description","type":"string"},{"internalType":"uint256","name":"baseAmount","type":"uint256"},{"internalType":"uint256","name":"referralAmount","type":"uint256"},{"internalType":"uint256","name":"start","type":"uint256"},{"internalType":"uint256","name":"end","type":"uint256"},{"internalType":"uint256","name":"remainingTokens","type":"uint256"},{"internalType":"uint256","name":"totalParticipants","type":"uint256"},{"internalType":"bool","name":"isAirdropActive","type":"bool"},{"internalType":"uint256","name":"currentFeeAmount","type":"uint256"},{"internalType":"address","name":"currentFeeCollector","type":"address"},{"internalType":"uint256","name":"totalFeesCollected","type":"uint256"},{"internalType":"uint256","name":"currentCooldown","type":"uint256"}],"stateMutability":"view","type":"function"},{"inputs":[],"name":"getAllParticipants","outputs":[{"components":[{"internalType":"address","name":"userAddress","type":"address"},{"internalType":"bool","name":"hasParticipated","type":"bool"},{"internalType":"uint256","name":"referralCount","type":"uint256"},{"internalType":"address","name":"referrer","type":"address"},{"internalType":"uint256","name":"totalEarned","type":"uint256"},{"internalType":"uint256","name":"participationTime","type":"uint256"},{"internalType":"uint256","name":"feePaid","type":"uint256"}],"internalType":"struct TNTCAirdrop.ParticipantInfo[]","name":"","type":"tuple[]"}],"stateMutability":"view","type":"function"},{"inputs":[{"internalType":"address","name":"user","type":"address"}],"name":"getNextClaimTime","outputs":[{"internalType":"uint256","name":"","type":"uint256"}],"stateMutability":"view","type":"function"},{"inputs":[{"internalType":"address","name":"user","type":"address"}],"name":"getReferralCount","outputs":[{"internalType":"uint256","name":"","type":"uint256"}],"stateMutability":"view","type":"function"},{"inputs":[{"internalType":"address","name":"user","type":"address"}],"name":"getReferrer","outputs":[{"internalType":"address","name":"","type":"address"}],"stateMutability":"view","type":"function"},{"inputs":[],"name":"getTokenInfo","outputs":[{"internalType":"address","name":"tokenAddress","type":"address"},{"internalType":"string","name":"name","type":"string"},{"internalType":"string","name":"symbol","type":"string"},{"internalType":"uint8","name":"decimals","type":"uint8"},{"internalType":"uint256","name":"totalSupply","type":"uint256"},{"internalType":"uint256","name":"airdropContractBalance","type":"uint256"}],"stateMutability":"view","type":"function"},{"inputs":[],"name":"getTotalParticipants","outputs":[{"internalType":"uint256","name":"","type":"uint256"}],"stateMutability":"view","type":"function"},{"inputs":[{"internalType":"address","name":"user","type":"address"}],"name":"getUserParticipationInfo","outputs":[{"internalType":"bool","name":"hasParticipated_","type":"bool"},{"internalType":"uint256","name":"referralCount_","type":"uint256"},{"internalType":"address","name":"referrer_","type":"address"},{"internalType":"uint256","name":"totalEarned","type":"uint256"},{"internalType":"uint256","name":"feePaid_","type":"uint256"},{"internalType":"uint256","name":"nextClaimTime_","type":"uint256"}],"stateMutability":"view","type":"function"},{"inputs":[{"internalType":"address","name":"","type":"address"}],"name":"hasParticipated","outputs":[{"internalType":"bool","name":"","type":"bool"}],"stateMutability":"view","type":"function"},{"inputs":[{"internalType":"address","name":"","type":"address"}],"name":"lastClaimTime","outputs":[{"internalType":"uint256","name":"","type":"uint256"}],"stateMutability":"view","type":"function"},{"inputs":[],"name":"owner","outputs":[{"internalType":"address","name":"","type":"address"}],"stateMutability":"view","type":"function"},{"inputs":[{"internalType":"uint256","name":"","type":"uint256"}],"name":"participantAddresses","outputs":[{"internalType":"address","name":"","type":"address"}],"stateMutability":"view","type":"function"},{"inputs":[{"internalType":"address","name":"referrer","type":"address"}],"name":"participate","outputs":[],"stateMutability":"payable","type":"function"},{"inputs":[],"name":"participateWithoutReferral","outputs":[],"stateMutability":"payable","type":"function"},{"inputs":[],"name":"referralBonus","outputs":[{"internalType":"uint256","name":"","type":"uint256"}],"stateMutability":"view","type":"function"},{"inputs":[{"internalType":"address","name":"","type":"address"}],"name":"referralCount","outputs":[{"internalType":"uint256","name":"","type":"uint256"}],"stateMutability":"view","type":"function"},{"inputs":[{"internalType":"address","name":"","type":"address"}],"name":"referredBy","outputs":[{"internalType":"address","name":"","type":"address"}],"stateMutability":"view","type":"function"},{"inputs":[],"name":"renounceOwnership","outputs":[],"stateMutability":"nonpayable","type":"function"},{"inputs":[{"internalType":"uint256","name":"_amount","type":"uint256"}],"name":"setAirdropAmount","outputs":[],"stateMutability":"nonpayable","type":"function"},{"inputs":[{"internalType":"uint256","name":"_newCooldown","type":"uint256"}],"name":"setClaimCooldown","outputs":[],"stateMutability":"nonpayable","type":"function"},{"inputs":[{"internalType":"uint256","name":"_newEndTime","type":"uint256"}],"name":"setEndTime","outputs":[],"stateMutability":"nonpayable","type":"function"},{"inputs":[{"internalType":"uint256","name":"_newFeeAmount","type":"uint256"}],"name":"setFeeAmount","outputs":[],"stateMutability":"nonpayable","type":"function"},{"inputs":[{"internalType":"address","name":"_newCollector","type":"address"}],"name":"setFeeCollector","outputs":[],"stateMutability":"nonpayable","type":"function"},{"inputs":[{"internalType":"uint256","name":"_amount","type":"uint256"}],"name":"setReferralBonus","outputs":[],"stateMutability":"nonpayable","type":"function"},{"inputs":[{"internalType":"uint256","name":"_newStartTime","type":"uint256"}],"name":"setStartTime","outputs":[],"stateMutability":"nonpayable","type":"function"},{"inputs":[],"name":"startTime","outputs":[{"internalType":"uint256","name":"","type":"uint256"}],"stateMutability":"view","type":"function"},{"inputs":[],"name":"token","outputs":[{"internalType":"contract IERC20Extended","name":"","type":"address"}],"stateMutability":"view","type":"function"},{"inputs":[{"internalType":"address","name":"newOwner","type":"address"}],"name":"transferOwnership","outputs":[],"stateMutability":"nonpayable","type":"function"},{"inputs":[{"internalType":"uint256","name":"_newStartTime","type":"uint256"},{"internalType":"uint256","name":"_newEndTime","type":"uint256"}],"name":"updateAirdropTiming","outputs":[],"stateMutability":"nonpayable","type":"function"},{"inputs":[],"name":"withdrawFees","outputs":[],"stateMutability":"nonpayable","type":"function"},{"inputs":[],"name":"withdrawTokens","outputs":[],"stateMutability":"nonpayable","type":"function"},{"stateMutability":"payable","type":"receive"}],"evm":{"bytecode":{"linkReferences":{},"object":"6080604052346200043b5762002573803803806200001d8162000440565b92833981019060a0818303126200043b5780516001600160a01b0380821693909290918490036200043b57602091828201519360408301519160608401519360018060401b03948581116200043b57826200007a9183016200047c565b9160808201518681116200043b576200009492016200047c565b9260009687549860018060a01b031999338b8216178a55604051953391167f8be0079c531659141344cd1fd0a4f28419497f9722a3daafe3b4186f6b6457e08b80a3600194858055674563918244f40000600555670de0b6b3a7640000600655615460600b558115620003f9575082821015620003bf57896002541617600255600755600855805192848411620002ca576003938454928484811c94168015620003b4575b88851014620003a0578190601f948581116200034d575b508890858311600114620002ea578a92620002de575b505060001982871b1c191690841b1784555b8051948511620002ca5760049687548481811c91168015620002bf575b88821014620002ac5783811162000264575b5086928611600114620001f8579495508592919083620001ec575b50501b92600019911b1c19161790555b339060095416176009556040516120849081620004ef8239f35b015193503880620001c2565b87815286812093969394938691601f198316915b898383106200024957505050106200022e575b50505050811b019055620001d2565b01519060f884600019921b161c19169055388080806200021f565b8587015189559097019694850194889350908101906200020c565b8882528782208480890160051c8201928a8a10620002a2575b0160051c019085905b82811062000296575050620001a7565b83815501859062000286565b925081926200027d565b634e487b7160e01b825260228952602482fd5b90607f169062000195565b634e487b7160e01b87526041600452602487fd5b01519050388062000166565b878b52898b208794509190601f1984168c5b8c8282106200033657505084116200031d575b505050811b01845562000178565b015160001983891b60f8161c191690553880806200030f565b8385015186558a97909501949384019301620002fc565b909150868a52888a208580850160051c8201928b861062000396575b918891869594930160051c01915b8281106200038757505062000150565b8c815585945088910162000377565b9250819262000369565b634e487b7160e01b89526022600452602489fd5b93607f169362000139565b60405162461bcd60e51b8152600481018990526012602482015271496e76616c69642074696d652072616e676560701b6044820152606490fd5b62461bcd60e51b815260048101899052601560248201527f496e76616c696420746f6b656e206164647265737300000000000000000000006044820152606490fd5b600080fd5b6040519190601f01601f191682016001600160401b038111838210176200046657604052565b634e487b7160e01b600052604160045260246000fd5b919080601f840112156200043b5782516001600160401b0381116200046657602090620004b2601f8201601f1916830162000440565b928184528282870101116200043b5760005b818110620004da57508260009394955001015290565b8581018301518482018401528201620004c456fe60406080815260049081361015610020575b5050361561001e57600080fd5b005b60009160e0908335821c918263043ea7a9146116a0578263195ec9ee146114f957826324acbd69146114be57826329120142146114615782633197cbb61461144157826332f0887314611317575081633d3c0315146112f95781633e0a322d14611207578163476343ee146111495781634a9fefc714610b825781634b6ce9bc146110a457816354ffbddb1461106357816359c9eb9014610fca57816369e1540414610fab5781636b39268014610f565781636c9533d114610f21578163715018a614610ec757816378e9792514610ea8578163799ecb3414610e6e5781638d8f2adb14610d355781638da5cb5b14610d0d57816393c30c0f14610cd55781639a037aa014610cb3578163a42dce8014610c00578163a5500c3014610bde578163a90cc44514610bbf578163a90f8e9a14610b82578163abb1dc441461094e578163b4fb3ee31461090f578163b77cf9c6146108d5578163b91038c714610443578163c415b95c1461041a578163ccb98ffc14610368578163ce7842f514610349578163db74559b1461030f578163f2fde38b1461024057508063fc0c546a14610218578063fc2ea8a5146101fa5763fdea36570361001157346101f657816003193601126101f657602090600b549051908152f35b5080fd5b50346101f657816003193601126101f6576020906005549051908152f35b50346101f657816003193601126101f65760025490516001600160a01b039091168152602090f35b9190503461030b57602036600319011261030b576001600160a01b0382358181169391929084900361030757610274611b14565b83156102b557505082546001600160a01b0319811683178455167f8be0079c531659141344cd1fd0a4f28419497f9722a3daafe3b4186f6b6457e08380a380f35b906020608492519162461bcd60e51b8352820152602660248201527f4f776e61626c653a206e6577206f776e657220697320746865207a65726f206160448201526564647265737360d01b6064820152fd5b8480fd5b8280fd5b90503461030b57602036600319011261030b57356001600160a01b0381169081900361030b5782829160209452600f845220549051908152f35b5050346101f657816003193601126101f6576020906006549051908152f35b9190503461030b57602036600319011261030b57813591610387611b14565b6007548311156103ce57507f37d37b8940cc1ec723111799f54132501e05042cd219649e575e84e5c36f3b5e916020916103c2428311611eca565b8160085551908152a180f35b6020608492519162461bcd60e51b8352820152602160248201527f456e642074696d65206d7573742062652061667465722073746172742074696d6044820152606560f81b6064820152fd5b5050346101f657816003193601126101f65760095490516001600160a01b039091168152602090f35b60209150366003190182136108d1576001600160a01b038135818116908181036108cd5761046f611e29565b61047f61047a611e7f565b611b6c565b338752600c855261049686882054600b5490611bb0565b42108015906108bb575b6104a990611bd3565b33821461088057826002541690865186816024816370a0823160e01b96878252308b8301525afa8015610795578990610851575b6104ec91506005541115611c1f565b600a5488816107b3575b5050338852600c86524287892055600e8652868820805460ff8116156105db575b5050600254600554885163a9059cbb60e01b8152339781019788526020880191909152969586958895509091169250839150889082906040015b03925af19182156105ce577f650e45f04ef8a0c267b2f78d983913f69ae3a353b2b32de5429307522be0ab559261058f9186916105a1575b50611de5565b60055492519283523392a26001805580f35b6105c19150833d85116105c7575b6105b98183611906565b810190611dc8565b38610589565b503d6105af565b50505051903d90823e3d90fd5b60ff191660011790556105ed33611d77565b8215158061079f575b610602575b8080610517565b3388526010865286882080546001600160a01b03191684179055828852600f8652868820805461063190611db9565b9055836002541690875192835230868401528683602481855afa928315610795578993610762575b506006548093101561066c575b506105fb565b875163a9059cbb60e01b81526001600160a01b039091168682019081526020810193909352918691839182908b90829060400103925af190811561075857879161073b575b50156106f8579183929161055194926006549087519182527fca55b80ee391a1f76a4e016ebc5a1afe15e0463250300e133628a95c7a7c4cd9853393a39193819338610666565b845162461bcd60e51b8152808401859052601e60248201527f526566657272616c20626f6e7573207472616e73666572206661696c656400006044820152606490fd5b6107529150853d87116105c7576105b98183611906565b386106b1565b86513d89823e3d90fd5b9092508681813d831161078e575b61077a8183611906565b8101031261078a57519138610659565b8880fd5b503d610770565b88513d8b823e3d90fd5b50828852600e865260ff87892054166105f6565b808080846107c66107db96341015611c61565b89600954165af16107d5611cbc565b50611cec565b600a5488813411610829575b5050600a543389526011875280888a205587519081527f075a2720282fdf622141dae0b048ef90a21a7e57c134c76912d19d006b3b3f6f873392a238886104f6565b80808061083961084a9534611d2e565b335af1610844611cbc565b50611d3b565b38886107e7565b508681813d8311610879575b6108678183611906565b8101031261078a576104ec90516104dd565b503d61085d565b855162461bcd60e51b8152808501869052601560248201527421b0b73737ba103932b332b9103cb7bab939b2b63360591b6044820152606490fd5b50338752600c855285872054156104a0565b8680fd5b8380fd5b90503461030b57602036600319011261030b57356001600160a01b0381169081900361030b5782829160209452600c845220549051908152f35b90503461030b57602036600319011261030b57356001600160a01b0381169081900361030b57818360ff9260209552600e855220541690519015158152f35b8383346101f657816003193601126101f65760025481516306fdde0360e01b8152936001600160a01b03909116929081858281875afa948515610b78578295610b5c575b5082516395d89b4160e01b81529282848381885afa938415610b52578394610b2e575b5080519363313ce56760e01b8552602096878685818a5afa958615610b24578596610aeb575b5082516318160ddd60e01b815293888582818b5afa948515610ae1578695610aae575b508351906370a0823160e01b8252309082015288816024818b5afa958615610aa3578096610a6c575b505091610a5791610a4a60ff9460c084519b8c9b8c528b015260c08a01906118af565b91888303908901526118af565b93166060850152608084015260a08301520390f35b909195508882813d8311610a9c575b610a858183611906565b81010312610a995750519381610a4a610a27565b80fd5b503d610a7b565b8451903d90823e3d90fd5b9094508881813d8311610ada575b610ac68183611906565b81010312610ad6575193896109fe565b8580fd5b503d610abc565b84513d88823e3d90fd5b9095508781813d8311610b1d575b610b038183611906565b81010312610307575160ff811681036103075794886109db565b503d610af9565b83513d87823e3d90fd5b610b4b9194503d8085833e610b438183611906565b810190611f16565b92866109b5565b81513d85823e3d90fd5b610b719195503d8084833e610b438183611906565b9385610992565b83513d84823e3d90fd5b90503461030b57602036600319011261030b576001600160a01b039035818116908190036108d15783839160209552601085522054169051908152f35b5050346101f657816003193601126101f657602090600d549051908152f35b8390346101f65760203660031901126101f657610bf9611b14565b3560055580f35b9190503461030b57602036600319011261030b576001600160a01b0382358181169391929084900361030757610c34611b14565b8315610c7e575050600954826bffffffffffffffffffffffff60a01b821617600955167f5d16ad41baeb009cd23eb8f6c7cde5c2e0cd5acf4a33926ab488875c37c37f388380a380f35b906020606492519162461bcd60e51b8352820152600f60248201526e496e76616c6964206164647265737360881b6044820152fd5b8390346101f65760203660031901126101f657610cce611b14565b3560065580f35b90503461030b57602036600319011261030b5735916001600160a01b0383168303610a995750610d06602092611e97565b9051908152f35b5050346101f657816003193601126101f657905490516001600160a01b039091168152602090f35b90503461030b578260031936011261030b57610d4f611b14565b60025482516370a0823160e01b8152308184015260209290916001600160a01b0390811691908484602481865afa938415610758578794610e3f575b508315610e04578654865163a9059cbb60e01b815291166001600160a01b031691810191825260208201939093528391839182908890829060400103925af19182156105ce57610de493508492610de7575b5050611de5565b80f35b610dfd9250803d106105c7576105b98183611906565b3880610ddd565b855162461bcd60e51b815280830186905260156024820152744e6f20746f6b656e7320746f20776974686472617760581b6044820152606490fd5b9093508481813d8311610e67575b610e578183611906565b810103126108cd57519238610d8b565b503d610e4d565b90503461030b57602036600319011261030b57356001600160a01b0381169081900361030b57828291602094526011845220549051908152f35b5050346101f657816003193601126101f6576020906007549051908152f35b8334610a995780600319360112610a9957610ee0611b14565b80546001600160a01b03198116825581906001600160a01b03167f8be0079c531659141344cd1fd0a4f28419497f9722a3daafe3b4186f6b6457e08280a380f35b5050346101f657816003193601126101f657610f5290610f3f611928565b90519182916020835260208301906118af565b0390f35b9190503461030b57602036600319011261030b577fb6600428041f36ab218d984115a85adc1ffb17cb85a81801032cb590a8a8bc999135610f95611b14565b600a549080600a5582519182526020820152a180f35b5050346101f657816003193601126101f657602090600a549051908152f35b9190503461030b57602036600319011261030b57813591610fe9611b14565b82156110215750816020917fcb7ee917d029d22a071ecb2b3db0556ca49424002997ae83d8a4fff552ef72f693600b5551908152a180f35b6020606492519162461bcd60e51b8352820152601f60248201527f436f6f6c646f776e206d7573742062652067726561746572207468616e2030006044820152fd5b90503461030b57602036600319011261030b573591600d54831015610a99575061108e602092611ac7565b905491519160018060a01b039160031b1c168152f35b8383346101f657806003193601126101f6578235602435936110c4611b14565b8482101561111157507fa73c2a4e4657f5e1ff94a19ffe5f535cdd2dd893a121899816c3e9f66565cb0192936110fb428211611eca565b816007558060085582519182526020820152a180f35b606490602084519162461bcd60e51b83528201526012602482015271496e76616c69642074696d652072616e676560701b6044820152fd5b9190503461030b578260031936011261030b57611164611b14565b4780156111ce5760095484918291829182916001600160a01b03165af1611189611cbc565b5015611193578280f35b906020606492519162461bcd60e51b83528201526015602482015274119959481dda5d1a191c985dd85b0819985a5b1959605a1b6044820152fd5b815162461bcd60e51b815260208185015260136024820152724e6f206665657320746f20776974686472617760681b6044820152606490fd5b9190503461030b57602036600319011261030b57813591611226611b14565b6008548310156112ac574283111561126a5750816020917f9c5b354b21055675b708256fbf890975529c5e58066b2e826541d253b389cd149360075551908152a180f35b6020606492519162461bcd60e51b8352820152602060248201527f53746172742074696d65206d75737420626520696e20746865206675747572656044820152fd5b6020608492519162461bcd60e51b8352820152602260248201527f53746172742074696d65206d757374206265206265666f726520656e642074696044820152616d6560f01b6064820152fd5b5050346101f657816003193601126101f657610f5290610f3f611a13565b9150346108d157836003193601126108d1576005549160065491600754916008549160018060a01b0391602083600254169260248a51809581936370a0823160e01b835230908301525afa91821561079557899261140b575b50879850600d5490611380611e7f565b92600a549460095416954797600b5499611398611928565b9b6113a1611a13565b9d519e8f9e8f9e8f906101a080835282016113bb916118af565b9080820390602001526113cd916118af565b9d015260608d015260808c015260a08b015260c08a015288015215156101008701526101208601526101408501526101608401526101808301520390f35b9091506020813d8211611439575b8161142660209383611906565b8101031261078a57879850519038611370565b3d9150611419565b505050346101f657816003193601126101f6576020906008549051908152f35b838583346101f65760203660031901126101f65735916001600160a01b03918284168403610a99575061149560c093611f75565b9592909496919383519715158852602088015216908501526060840152608083015260a0820152f35b5090503461030b57602036600319011261030b57356001600160a01b0381169081900361030b5782829160209452600f845220549051908152f35b8484346101f657816003193601126101f657600d548361151882612022565b9161152584519384611906565b808352601f1961153482612022565b01855b81811061165a575050845b8181106115d457505082519260209081850192828652845180945282828701950196915b8483106115735786860387f35b875180516001600160a01b039081168852818601511515888701528183015188840152606080830151909116908801526080808201519088015260a0808201519088015260c090810151908701529683019694810194600190920191611566565b806115e56116519297969597611ac7565b90546001600160a01b0360039290921b1c81169061160282611f75565b50949290938b5196611613886118d4565b8752151560208701528a86015216606084015260808301524260a083015260c0820152611640828961203a565b5261164b818861203a565b50611db9565b94929394611542565b602090869597965161166b816118d4565b87815282888183015288888301528860608301528860808301528860a08301528860c0830152828a0101520195939495611537565b5090508260031936011261030b576116b6611e29565b6116c161047a611e7f565b3383526020600c81526116da83852054600b5490611bb0565b421080159061187a575b6116ed90611bd3565b60025483516370a0823160e01b815230818501526001600160a01b03939183908290602490829088165afa90811561187057869161183f575b50906105519361173b84936005541115611c1f565b600a5487816117b8575b5050338752600c83524286882055600e8352858720805460ff81161561179f575b5050600254600554875163a9059cbb60e01b81523394810194855260208501919091529586939290911691839189918391604090910190565b60ff191660011790556117b133611d77565b3880611766565b808080846117cb6117da96341015611c61565b86600954165af16107d5611cbc565b600a5487813411611828575b5050600a5433885260118452808789205586519081527f075a2720282fdf622141dae0b048ef90a21a7e57c134c76912d19d006b3b3f6f843392a23887611745565b8080806108396118389534611d2e565b38876117e6565b9190508282813d8311611869575b6118578183611906565b81010312610ad6579051610551611726565b503d61184d565b85513d88823e3d90fd5b50338452600c815282842054156116e4565b60005b83811061189f5750506000910152565b818101518382015260200161188f565b906020916118c88151809281855285808601910161188c565b601f01601f1916010190565b60e0810190811067ffffffffffffffff8211176118f057604052565b634e487b7160e01b600052604160045260246000fd5b90601f8019910116810190811067ffffffffffffffff8211176118f057604052565b60405190600060035490600182811c90808416938415611a09575b60209485841081146119f557838852879493929181156119d55750600114611976575b505061197492500383611906565b565b9093915060036000527fc2575a0e9e593c00f959f8c92f12db2869c3395a3b0502d05e2516446f71f85b936000915b8183106119bd57505061197493508201013880611966565b855488840185015294850194879450918301916119a5565b91505061197494925060ff191682840152151560051b8201013880611966565b634e487b7160e01b85526022600452602485fd5b91607f1691611943565b60405190600060045490600182811c90808416938415611abd575b60209485841081146119f557838852879493929181156119d55750600114611a5e57505061197492500383611906565b9093915060046000527f8a35acfbc15ff81a39ae7d344fd709f28e8600b4aa8c65c6b64bfe7fe36bd19b936000915b818310611aa557505061197493508201013880611966565b85548884018501529485019487945091830191611a8d565b91607f1691611a2e565b600d54811015611afe57600d6000527fd7b6990105719101dabeb77144f2a3385c8033acd3af97e9423a695e81ad1eb50190600090565b634e487b7160e01b600052603260045260246000fd5b6000546001600160a01b03163303611b2857565b606460405162461bcd60e51b815260206004820152602060248201527f4f776e61626c653a2063616c6c6572206973206e6f7420746865206f776e65726044820152fd5b15611b7357565b60405162461bcd60e51b815260206004820152601560248201527441697264726f70206973206e6f742061637469766560581b6044820152606490fd5b91908201809211611bbd57565b634e487b7160e01b600052601160045260246000fd5b15611bda57565b60405162461bcd60e51b815260206004820152601b60248201527f436f6f6c646f776e20706572696f64206e6f7420656c617073656400000000006044820152606490fd5b15611c2657565b60405162461bcd60e51b8152602060048201526013602482015272496e73756666696369656e7420746f6b656e7360681b6044820152606490fd5b15611c6857565b60405162461bcd60e51b815260206004820152601060248201526f496e73756666696369656e742066656560801b6044820152606490fd5b67ffffffffffffffff81116118f057601f01601f191660200190565b3d15611ce7573d90611ccd82611ca0565b91611cdb6040519384611906565b82523d6000602084013e565b606090565b15611cf357565b60405162461bcd60e51b8152602060048201526013602482015272119959481d1c985b9cd9995c8819985a5b1959606a1b6044820152606490fd5b91908203918211611bbd57565b15611d4257565b60405162461bcd60e51b815260206004820152600d60248201526c1499599d5b990819985a5b1959609a1b6044820152606490fd5b600d54680100000000000000008110156118f057806001611d9b9201600d55611ac7565b819291549060031b9160018060a01b03809116831b921b1916179055565b6000198114611bbd5760010190565b90816020910312611de057518015158103611de05790565b600080fd5b15611dec57565b60405162461bcd60e51b8152602060048201526015602482015274151bdad95b881d1c985b9cd9995c8819985a5b1959605a1b6044820152606490fd5b600260015414611e3a576002600155565b60405162461bcd60e51b815260206004820152601f60248201527f5265656e7472616e637947756172643a207265656e7472616e742063616c6c006044820152606490fd5b60075442101580611e8d5790565b5060085442111590565b6001600160a01b03166000908152600c60205260409020548015611ec457600b54611ec191611bb0565b90565b50600090565b15611ed157565b60405162461bcd60e51b815260206004820152601e60248201527f456e642074696d65206d75737420626520696e207468652066757475726500006044820152606490fd5b602081830312611de05780519067ffffffffffffffff8211611de0570181601f82011215611de0578051611f4981611ca0565b92611f576040519485611906565b81845260208284010111611de057611ec1916020808501910161188c565b60018060a01b0380911691600092808452600e60205260ff60408520541693600f6020526040812054936010602052604082205416928560001461201c576005545b600654908187029187830414871517156120085790611fd591611bb0565b9282526011602052604082205491600c60205260408120548015600014611ffa575090565b611ec19150600b5490611bb0565b634e487b7160e01b84526011600452602484fd5b81611fb7565b67ffffffffffffffff81116118f05760051b60200190565b8051821015611afe5760209160051b01019056fea264697066735822122060c23fd9037534f910c80d70ccf1a6837ece01369eab1ed715af9430771f2d3964736f6c63430008130033","opcodes":"PUSH1 0x80 PUSH1 0x40 MSTORE CALLVALUE PUSH3 0x43B JUMPI PUSH3 0x2573 DUP1 CODESIZE SUB DUP1 PUSH3 0x1D DUP2 PUSH3 0x440 JUMP JUMPDEST SWAP3 DUP4 CODECOPY DUP2 ADD SWAP1 PUSH1 0xA0 DUP2 DUP4 SUB SLT PUSH3 0x43B JUMPI DUP1 MLOAD PUSH1 0x1 PUSH1 0x1 PUSH1 0xA0 SHL SUB DUP1 DUP3 AND SWAP4 SWAP1 SWAP3 SWAP1 SWAP2 DUP5 SWAP1 SUB PUSH3 0x43B JUMPI PUSH1 0x20 SWAP2 DUP3 DUP3 ADD MLOAD SWAP4 PUSH1 0x40 DUP4 ADD MLOAD SWAP2 PUSH1 0x60 DUP5 ADD MLOAD SWAP4 PUSH1 0x1 DUP1 PUSH1 0x40 SHL SUB SWAP5 DUP6 DUP2 GT PUSH3 0x43B JUMPI DUP3 PUSH3 0x7A SWAP2 DUP4 ADD PUSH3 0x47C JUMP JUMPDEST SWAP2 PUSH1 0x80 DUP3 ADD MLOAD DUP7 DUP2 GT PUSH3 0x43B JUMPI PUSH3 0x94 SWAP3 ADD PUSH3 0x47C JUMP JUMPDEST SWAP3 PUSH1 0x0 SWAP7 DUP8 SLOAD SWAP9 PUSH1 0x1 DUP1 PUSH1 0xA0 SHL SUB NOT SWAP10 CALLER DUP12 DUP3 AND OR DUP11 SSTORE PUSH1 0x40 MLOAD SWAP6 CALLER SWAP2 AND PUSH32 0x8BE0079C531659141344CD1FD0A4F28419497F9722A3DAAFE3B4186F6B6457E0 DUP12 DUP1 LOG3 PUSH1 0x1 SWAP5 DUP6 DUP1 SSTORE PUSH8 0x4563918244F40000 PUSH1 0x5 SSTORE PUSH8 0xDE0B6B3A7640000 PUSH1 0x6 SSTORE PUSH2 0x5460 PUSH1 0xB SSTORE DUP2 ISZERO PUSH3 0x3F9 JUMPI POP DUP3 DUP3 LT ISZERO PUSH3 0x3BF JUMPI DUP10 PUSH1 0x2 SLOAD AND OR PUSH1 0x2 SSTORE PUSH1 0x7 SSTORE PUSH1 0x8 SSTORE DUP1 MLOAD SWAP3 DUP5 DUP5 GT PUSH3 0x2CA JUMPI PUSH1 0x3 SWAP4 DUP5 SLOAD SWAP3 DUP5 DUP5 DUP2 SHR SWAP5 AND DUP1 ISZERO PUSH3 0x3B4 JUMPI JUMPDEST DUP9 DUP6 LT EQ PUSH3 0x3A0 JUMPI DUP2 SWAP1 PUSH1 0x1F SWAP5 DUP6 DUP2 GT PUSH3 0x34D JUMPI JUMPDEST POP DUP9 SWAP1 DUP6 DUP4 GT PUSH1 0x1 EQ PUSH3 0x2EA JUMPI DUP11 SWAP3 PUSH3 0x2DE JUMPI JUMPDEST POP POP PUSH1 0x0 NOT DUP3 DUP8 SHL SHR NOT AND SWAP1 DUP5 SHL OR DUP5 SSTORE JUMPDEST DUP1 MLOAD SWAP5 DUP6 GT PUSH3 0x2CA JUMPI PUSH1 0x4 SWAP7 DUP8 SLOAD DUP5 DUP2 DUP2 SHR SWAP2 AND DUP1 ISZERO PUSH3 0x2BF JUMPI JUMPDEST DUP9 DUP3 LT EQ PUSH3 0x2AC JUMPI DUP4 DUP2 GT PUSH3 0x264 JUMPI JUMPDEST POP DUP7 SWAP3 DUP7 GT PUSH1 0x1 EQ PUSH3 0x1F8 JUMPI SWAP5 SWAP6 POP DUP6 SWAP3 SWAP2 SWAP1 DUP4 PUSH3 0x1EC JUMPI JUMPDEST POP POP SHL SWAP3 PUSH1 0x0 NOT SWAP2 SHL SHR NOT AND OR SWAP1 SSTORE JUMPDEST CALLER SWAP1 PUSH1 0x9 SLOAD AND OR PUSH1 0x9 SSTORE PUSH1 0x40 MLOAD PUSH2 0x2084 SWAP1 DUP2 PUSH3 0x4EF DUP3 CODECOPY RETURN JUMPDEST ADD MLOAD SWAP4 POP CODESIZE DUP1 PUSH3 0x1C2 JUMP JUMPDEST DUP8 DUP2 MSTORE DUP7 DUP2 KECCAK256 SWAP4 SWAP7 SWAP4 SWAP5 SWAP4 DUP7 SWAP2 PUSH1 0x1F NOT DUP4 AND SWAP2 JUMPDEST DUP10 DUP4 DUP4 LT PUSH3 0x249 JUMPI POP POP POP LT PUSH3 0x22E JUMPI JUMPDEST POP POP POP POP DUP2 SHL ADD SWAP1 SSTORE PUSH3 0x1D2 JUMP JUMPDEST ADD MLOAD SWAP1 PUSH1 0xF8 DUP5 PUSH1 0x0 NOT SWAP3 SHL AND SHR NOT AND SWAP1 SSTORE CODESIZE DUP1 DUP1 DUP1 PUSH3 0x21F JUMP JUMPDEST DUP6 DUP8 ADD MLOAD DUP10 SSTORE SWAP1 SWAP8 ADD SWAP7 SWAP5 DUP6 ADD SWAP5 DUP9 SWAP4 POP SWAP1 DUP2 ADD SWAP1 PUSH3 0x20C JUMP JUMPDEST DUP9 DUP3 MSTORE DUP8 DUP3 KECCAK256 DUP5 DUP1 DUP10 ADD PUSH1 0x5 SHR DUP3 ADD SWAP3 DUP11 DUP11 LT PUSH3 0x2A2 JUMPI JUMPDEST ADD PUSH1 0x5 SHR ADD SWAP1 DUP6 SWAP1 JUMPDEST DUP3 DUP2 LT PUSH3 0x296 JUMPI POP POP PUSH3 0x1A7 JUMP JUMPDEST DUP4 DUP2 SSTORE ADD DUP6 SWAP1 PUSH3 0x286 JUMP JUMPDEST SWAP3 POP DUP2 SWAP3 PUSH3 0x27D JUMP JUMPDEST PUSH4 0x4E487B71 PUSH1 0xE0 SHL DUP3 MSTORE PUSH1 0x22 DUP10 MSTORE PUSH1 0x24 DUP3 REVERT JUMPDEST SWAP1 PUSH1 0x7F AND SWAP1 PUSH3 0x195 JUMP JUMPDEST PUSH4 0x4E487B71 PUSH1 0xE0 SHL DUP8 MSTORE PUSH1 0x41 PUSH1 0x4 MSTORE PUSH1 0x24 DUP8 REVERT JUMPDEST ADD MLOAD SWAP1 POP CODESIZE DUP1 PUSH3 0x166 JUMP JUMPDEST DUP8 DUP12 MSTORE DUP10 DUP12 KECCAK256 DUP8 SWAP5 POP SWAP2 SWAP1 PUSH1 0x1F NOT DUP5 AND DUP13 JUMPDEST DUP13 DUP3 DUP3 LT PUSH3 0x336 JUMPI POP POP DUP5 GT PUSH3 0x31D JUMPI JUMPDEST POP POP POP DUP2 SHL ADD DUP5 SSTORE PUSH3 0x178 JUMP JUMPDEST ADD MLOAD PUSH1 0x0 NOT DUP4 DUP10 SHL PUSH1 0xF8 AND SHR NOT AND SWAP1 SSTORE CODESIZE DUP1 DUP1 PUSH3 0x30F JUMP JUMPDEST DUP4 DUP6 ADD MLOAD DUP7 SSTORE DUP11 SWAP8 SWAP1 SWAP6 ADD SWAP5 SWAP4 DUP5 ADD SWAP4 ADD PUSH3 0x2FC JUMP JUMPDEST SWAP1 SWAP2 POP DUP7 DUP11 MSTORE DUP9 DUP11 KECCAK256 DUP6 DUP1 DUP6 ADD PUSH1 0x5 SHR DUP3 ADD SWAP3 DUP12 DUP7 LT PUSH3 0x396 JUMPI JUMPDEST SWAP2 DUP9 SWAP2 DUP7 SWAP6 SWAP5 SWAP4 ADD PUSH1 0x5 SHR ADD SWAP2 JUMPDEST DUP3 DUP2 LT PUSH3 0x387 JUMPI POP POP PUSH3 0x150 JUMP JUMPDEST DUP13 DUP2 SSTORE DUP6 SWAP5 POP DUP9 SWAP2 ADD PUSH3 0x377 JUMP JUMPDEST SWAP3 POP DUP2 SWAP3 PUSH3 0x369 JUMP JUMPDEST PUSH4 0x4E487B71 PUSH1 0xE0 SHL DUP10 MSTORE PUSH1 0x22 PUSH1 0x4 MSTORE PUSH1 0x24 DUP10 REVERT JUMPDEST SWAP4 PUSH1 0x7F AND SWAP4 PUSH3 0x139 JUMP JUMPDEST PUSH1 0x40 MLOAD PUSH3 0x461BCD PUSH1 0xE5 SHL DUP2 MSTORE PUSH1 0x4 DUP2 ADD DUP10 SWAP1 MSTORE PUSH1 0x12 PUSH1 0x24 DUP3 ADD MSTORE PUSH18 0x496E76616C69642074696D652072616E6765 PUSH1 0x70 SHL PUSH1 0x44 DUP3 ADD MSTORE PUSH1 0x64 SWAP1 REVERT JUMPDEST PUSH3 0x461BCD PUSH1 0xE5 SHL DUP2 MSTORE PUSH1 0x4 DUP2 ADD DUP10 SWAP1 MSTORE PUSH1 0x15 PUSH1 0x24 DUP3 ADD MSTORE PUSH32 0x496E76616C696420746F6B656E20616464726573730000000000000000000000 PUSH1 0x44 DUP3 ADD MSTORE PUSH1 0x64 SWAP1 REVERT JUMPDEST PUSH1 0x0 DUP1 REVERT JUMPDEST PUSH1 0x40 MLOAD SWAP2 SWAP1 PUSH1 0x1F ADD PUSH1 0x1F NOT AND DUP3 ADD PUSH1 0x1 PUSH1 0x1 PUSH1 0x40 SHL SUB DUP2 GT DUP4 DUP3 LT OR PUSH3 0x466 JUMPI PUSH1 0x40 MSTORE JUMP JUMPDEST PUSH4 0x4E487B71 PUSH1 0xE0 SHL PUSH1 0x0 MSTORE PUSH1 0x41 PUSH1 0x4 MSTORE PUSH1 0x24 PUSH1 0x0 REVERT JUMPDEST SWAP2 SWAP1 DUP1 PUSH1 0x1F DUP5 ADD SLT ISZERO PUSH3 0x43B JUMPI DUP3 MLOAD PUSH1 0x1 PUSH1 0x1 PUSH1 0x40 SHL SUB DUP2 GT PUSH3 0x466 JUMPI PUSH1 0x20 SWAP1 PUSH3 0x4B2 PUSH1 0x1F DUP3 ADD PUSH1 0x1F NOT AND DUP4 ADD PUSH3 0x440 JUMP JUMPDEST SWAP3 DUP2 DUP5 MSTORE DUP3 DUP3 DUP8 ADD ADD GT PUSH3 0x43B JUMPI PUSH1 0x0 JUMPDEST DUP2 DUP2 LT PUSH3 0x4DA JUMPI POP DUP3 PUSH1 0x0 SWAP4 SWAP5 SWAP6 POP ADD ADD MSTORE SWAP1 JUMP JUMPDEST DUP6 DUP2 ADD DUP4 ADD MLOAD DUP5 DUP3 ADD DUP5 ADD MSTORE DUP3 ADD PUSH3 0x4C4 JUMP INVALID PUSH1 0x40 PUSH1 0x80 DUP2 MSTORE PUSH1 0x4 SWAP1 DUP2 CALLDATASIZE LT ISZERO PUSH2 0x20 JUMPI JUMPDEST POP POP CALLDATASIZE ISZERO PUSH2 0x1E JUMPI PUSH1 0x0 DUP1 REVERT JUMPDEST STOP JUMPDEST PUSH1 0x0 SWAP2 PUSH1 0xE0 SWAP1 DUP4 CALLDATALOAD DUP3 SHR SWAP2 DUP3 PUSH4 0x43EA7A9 EQ PUSH2 0x16A0 JUMPI DUP3 PUSH4 0x195EC9EE EQ PUSH2 0x14F9 JUMPI DUP3 PUSH4 0x24ACBD69 EQ PUSH2 0x14BE JUMPI DUP3 PUSH4 0x29120142 EQ PUSH2 0x1461 JUMPI DUP3 PUSH4 0x3197CBB6 EQ PUSH2 0x1441 JUMPI DUP3 PUSH4 0x32F08873 EQ PUSH2 0x1317 JUMPI POP DUP2 PUSH4 0x3D3C0315 EQ PUSH2 0x12F9 JUMPI DUP2 PUSH4 0x3E0A322D EQ PUSH2 0x1207 JUMPI DUP2 PUSH4 0x476343EE EQ PUSH2 0x1149 JUMPI DUP2 PUSH4 0x4A9FEFC7 EQ PUSH2 0xB82 JUMPI DUP2 PUSH4 0x4B6CE9BC EQ PUSH2 0x10A4 JUMPI DUP2 PUSH4 0x54FFBDDB EQ PUSH2 0x1063 JUMPI DUP2 PUSH4 0x59C9EB90 EQ PUSH2 0xFCA JUMPI DUP2 PUSH4 0x69E15404 EQ PUSH2 0xFAB JUMPI DUP2 PUSH4 0x6B392680 EQ PUSH2 0xF56 JUMPI DUP2 PUSH4 0x6C9533D1 EQ PUSH2 0xF21 JUMPI DUP2 PUSH4 0x715018A6 EQ PUSH2 0xEC7 JUMPI DUP2 PUSH4 0x78E97925 EQ PUSH2 0xEA8 JUMPI DUP2 PUSH4 0x799ECB34 EQ PUSH2 0xE6E JUMPI DUP2 PUSH4 0x8D8F2ADB EQ PUSH2 0xD35 JUMPI DUP2 PUSH4 0x8DA5CB5B EQ PUSH2 0xD0D JUMPI DUP2 PUSH4 0x93C30C0F EQ PUSH2 0xCD5 JUMPI DUP2 PUSH4 0x9A037AA0 EQ PUSH2 0xCB3 JUMPI DUP2 PUSH4 0xA42DCE80 EQ PUSH2 0xC00 JUMPI DUP2 PUSH4 0xA5500C30 EQ PUSH2 0xBDE JUMPI DUP2 PUSH4 0xA90CC445 EQ PUSH2 0xBBF JUMPI DUP2 PUSH4 0xA90F8E9A EQ PUSH2 0xB82 JUMPI DUP2 PUSH4 0xABB1DC44 EQ PUSH2 0x94E JUMPI DUP2 PUSH4 0xB4FB3EE3 EQ PUSH2 0x90F JUMPI DUP2 PUSH4 0xB77CF9C6 EQ PUSH2 0x8D5 JUMPI DUP2 PUSH4 0xB91038C7 EQ PUSH2 0x443 JUMPI DUP2 PUSH4 0xC415B95C EQ PUSH2 0x41A JUMPI DUP2 PUSH4 0xCCB98FFC EQ PUSH2 0x368 JUMPI DUP2 PUSH4 0xCE7842F5 EQ PUSH2 0x349 JUMPI DUP2 PUSH4 0xDB74559B EQ PUSH2 0x30F JUMPI DUP2 PUSH4 0xF2FDE38B EQ PUSH2 0x240 JUMPI POP DUP1 PUSH4 0xFC0C546A EQ PUSH2 0x218 JUMPI DUP1 PUSH4 0xFC2EA8A5 EQ PUSH2 0x1FA JUMPI PUSH4 0xFDEA3657 SUB PUSH2 0x11 JUMPI CALLVALUE PUSH2 0x1F6 JUMPI DUP2 PUSH1 0x3 NOT CALLDATASIZE ADD SLT PUSH2 0x1F6 JUMPI PUSH1 0x20 SWAP1 PUSH1 0xB SLOAD SWAP1 MLOAD SWAP1 DUP2 MSTORE RETURN JUMPDEST POP DUP1 REVERT JUMPDEST POP CALLVALUE PUSH2 0x1F6 JUMPI DUP2 PUSH1 0x3 NOT CALLDATASIZE ADD SLT PUSH2 0x1F6 JUMPI PUSH1 0x20 SWAP1 PUSH1 0x5 SLOAD SWAP1 MLOAD SWAP1 DUP2 MSTORE RETURN JUMPDEST POP CALLVALUE PUSH2 0x1F6 JUMPI DUP2 PUSH1 0x3 NOT CALLDATASIZE ADD SLT PUSH2 0x1F6 JUMPI PUSH1 0x2 SLOAD SWAP1 MLOAD PUSH1 0x1 PUSH1 0x1 PUSH1 0xA0 SHL SUB SWAP1 SWAP2 AND DUP2 MSTORE PUSH1 0x20 SWAP1 RETURN JUMPDEST SWAP2 SWAP1 POP CALLVALUE PUSH2 0x30B JUMPI PUSH1 0x20 CALLDATASIZE PUSH1 0x3 NOT ADD SLT PUSH2 0x30B JUMPI PUSH1 0x1 PUSH1 0x1 PUSH1 0xA0 SHL SUB DUP3 CALLDATALOAD DUP2 DUP2 AND SWAP4 SWAP2 SWAP3 SWAP1 DUP5 SWAP1 SUB PUSH2 0x307 JUMPI PUSH2 0x274 PUSH2 0x1B14 JUMP JUMPDEST DUP4 ISZERO PUSH2 0x2B5 JUMPI POP POP DUP3 SLOAD PUSH1 0x1 PUSH1 0x1 PUSH1 0xA0 SHL SUB NOT DUP2 AND DUP4 OR DUP5 SSTORE AND PUSH32 0x8BE0079C531659141344CD1FD0A4F28419497F9722A3DAAFE3B4186F6B6457E0 DUP4 DUP1 LOG3 DUP1 RETURN JUMPDEST SWAP1 PUSH1 0x20 PUSH1 0x84 SWAP3 MLOAD SWAP2 PUSH3 0x461BCD PUSH1 0xE5 SHL DUP4 MSTORE DUP3 ADD MSTORE PUSH1 0x26 PUSH1 0x24 DUP3 ADD MSTORE PUSH32 0x4F776E61626C653A206E6577206F776E657220697320746865207A65726F2061 PUSH1 0x44 DUP3 ADD MSTORE PUSH6 0x646472657373 PUSH1 0xD0 SHL PUSH1 0x64 DUP3 ADD MSTORE REVERT JUMPDEST DUP5 DUP1 REVERT JUMPDEST DUP3 DUP1 REVERT JUMPDEST SWAP1 POP CALLVALUE PUSH2 0x30B JUMPI PUSH1 0x20 CALLDATASIZE PUSH1 0x3 NOT ADD SLT PUSH2 0x30B JUMPI CALLDATALOAD PUSH1 0x1 PUSH1 0x1 PUSH1 0xA0 SHL SUB DUP2 AND SWAP1 DUP2 SWAP1 SUB PUSH2 0x30B JUMPI DUP3 DUP3 SWAP2 PUSH1 0x20 SWAP5 MSTORE PUSH1 0xF DUP5 MSTORE KECCAK256 SLOAD SWAP1 MLOAD SWAP1 DUP2 MSTORE RETURN JUMPDEST POP POP CALLVALUE PUSH2 0x1F6 JUMPI DUP2 PUSH1 0x3 NOT CALLDATASIZE ADD SLT PUSH2 0x1F6 JUMPI PUSH1 0x20 SWAP1 PUSH1 0x6 SLOAD SWAP1 MLOAD SWAP1 DUP2 MSTORE RETURN JUMPDEST SWAP2 SWAP1 POP CALLVALUE PUSH2 0x30B JUMPI PUSH1 0x20 CALLDATASIZE PUSH1 0x3 NOT ADD SLT PUSH2 0x30B JUMPI DUP2 CALLDATALOAD SWAP2 PUSH2 0x387 PUSH2 0x1B14 JUMP JUMPDEST PUSH1 0x7 SLOAD DUP4 GT ISZERO PUSH2 0x3CE JUMPI POP PUSH32 0x37D37B8940CC1EC723111799F54132501E05042CD219649E575E84E5C36F3B5E SWAP2 PUSH1 0x20 SWAP2 PUSH2 0x3C2 TIMESTAMP DUP4 GT PUSH2 0x1ECA JUMP JUMPDEST DUP2 PUSH1 0x8 SSTORE MLOAD SWAP1 DUP2 MSTORE LOG1 DUP1 RETURN JUMPDEST PUSH1 0x20 PUSH1 0x84 SWAP3 MLOAD SWAP2 PUSH3 0x461BCD PUSH1 0xE5 SHL DUP4 MSTORE DUP3 ADD MSTORE PUSH1 0x21 PUSH1 0x24 DUP3 ADD MSTORE PUSH32 0x456E642074696D65206D7573742062652061667465722073746172742074696D PUSH1 0x44 DUP3 ADD MSTORE PUSH1 0x65 PUSH1 0xF8 SHL PUSH1 0x64 DUP3 ADD MSTORE REVERT JUMPDEST POP POP CALLVALUE PUSH2 0x1F6 JUMPI DUP2 PUSH1 0x3 NOT CALLDATASIZE ADD SLT PUSH2 0x1F6 JUMPI PUSH1 0x9 SLOAD SWAP1 MLOAD PUSH1 0x1 PUSH1 0x1 PUSH1 0xA0 SHL SUB SWAP1 SWAP2 AND DUP2 MSTORE PUSH1 0x20 SWAP1 RETURN JUMPDEST PUSH1 0x20 SWAP2 POP CALLDATASIZE PUSH1 0x3 NOT ADD DUP3 SGT PUSH2 0x8D1 JUMPI PUSH1 0x1 PUSH1 0x1 PUSH1 0xA0 SHL SUB DUP2 CALLDATALOAD DUP2 DUP2 AND SWAP1 DUP2 DUP2 SUB PUSH2 0x8CD JUMPI PUSH2 0x46F PUSH2 0x1E29 JUMP JUMPDEST PUSH2 0x47F PUSH2 0x47A PUSH2 0x1E7F JUMP JUMPDEST PUSH2 0x1B6C JUMP JUMPDEST CALLER DUP8 MSTORE PUSH1 0xC DUP6 MSTORE PUSH2 0x496 DUP7 DUP9 KECCAK256 SLOAD PUSH1 0xB SLOAD SWAP1 PUSH2 0x1BB0 JUMP JUMPDEST TIMESTAMP LT DUP1 ISZERO SWAP1 PUSH2 0x8BB JUMPI JUMPDEST PUSH2 0x4A9 SWAP1 PUSH2 0x1BD3 JUMP JUMPDEST CALLER DUP3 EQ PUSH2 0x880 JUMPI DUP3 PUSH1 0x2 SLOAD AND SWAP1 DUP7 MLOAD DUP7 DUP2 PUSH1 0x24 DUP2 PUSH4 0x70A08231 PUSH1 0xE0 SHL SWAP7 DUP8 DUP3 MSTORE ADDRESS DUP12 DUP4 ADD MSTORE GAS STATICCALL DUP1 ISZERO PUSH2 0x795 JUMPI DUP10 SWAP1 PUSH2 0x851 JUMPI JUMPDEST PUSH2 0x4EC SWAP2 POP PUSH1 0x5 SLOAD GT ISZERO PUSH2 0x1C1F JUMP JUMPDEST PUSH1 0xA SLOAD DUP9 DUP2 PUSH2 0x7B3 JUMPI JUMPDEST POP POP CALLER DUP9 MSTORE PUSH1 0xC DUP7 MSTORE TIMESTAMP DUP8 DUP10 KECCAK256 SSTORE PUSH1 0xE DUP7 MSTORE DUP7 DUP9 KECCAK256 DUP1 SLOAD PUSH1 0xFF DUP2 AND ISZERO PUSH2 0x5DB JUMPI JUMPDEST POP POP PUSH1 0x2 SLOAD PUSH1 0x5 SLOAD DUP9 MLOAD PUSH4 0xA9059CBB PUSH1 0xE0 SHL DUP2 MSTORE CALLER SWAP8 DUP2 ADD SWAP8 DUP9 MSTORE PUSH1 0x20 DUP9 ADD SWAP2 SWAP1 SWAP2 MSTORE SWAP7 SWAP6 DUP7 SWAP6 DUP9 SWAP6 POP SWAP1 SWAP2 AND SWAP3 POP DUP4 SWAP2 POP DUP9 SWAP1 DUP3 SWAP1 PUSH1 0x40 ADD JUMPDEST SUB SWAP3 GAS CALL SWAP2 DUP3 ISZERO PUSH2 0x5CE JUMPI PUSH32 0x650E45F04EF8A0C267B2F78D983913F69AE3A353B2B32DE5429307522BE0AB55 SWAP3 PUSH2 0x58F SWAP2 DUP7 SWAP2 PUSH2 0x5A1 JUMPI JUMPDEST POP PUSH2 0x1DE5 JUMP JUMPDEST PUSH1 0x5 SLOAD SWAP3 MLOAD SWAP3 DUP4 MSTORE CALLER SWAP3 LOG2 PUSH1 0x1 DUP1 SSTORE DUP1 RETURN JUMPDEST PUSH2 0x5C1 SWAP2 POP DUP4 RETURNDATASIZE DUP6 GT PUSH2 0x5C7 JUMPI JUMPDEST PUSH2 0x5B9 DUP2 DUP4 PUSH2 0x1906 JUMP JUMPDEST DUP2 ADD SWAP1 PUSH2 0x1DC8 JUMP JUMPDEST CODESIZE PUSH2 0x589 JUMP JUMPDEST POP RETURNDATASIZE PUSH2 0x5AF JUMP JUMPDEST POP POP POP MLOAD SWAP1 RETURNDATASIZE SWAP1 DUP3 RETURNDATACOPY RETURNDATASIZE SWAP1 REVERT JUMPDEST PUSH1 0xFF NOT AND PUSH1 0x1 OR SWAP1 SSTORE PUSH2 0x5ED CALLER PUSH2 0x1D77 JUMP JUMPDEST DUP3 ISZERO ISZERO DUP1 PUSH2 0x79F JUMPI JUMPDEST PUSH2 0x602 JUMPI JUMPDEST DUP1 DUP1 PUSH2 0x517 JUMP JUMPDEST CALLER DUP9 MSTORE PUSH1 0x10 DUP7 MSTORE DUP7 DUP9 KECCAK256 DUP1 SLOAD PUSH1 0x1 PUSH1 0x1 PUSH1 0xA0 SHL SUB NOT AND DUP5 OR SWAP1 SSTORE DUP3 DUP9 MSTORE PUSH1 0xF DUP7 MSTORE DUP7 DUP9 KECCAK256 DUP1 SLOAD PUSH2 0x631 SWAP1 PUSH2 0x1DB9 JUMP JUMPDEST SWAP1 SSTORE DUP4 PUSH1 0x2 SLOAD AND SWAP1 DUP8 MLOAD SWAP3 DUP4 MSTORE ADDRESS DUP7 DUP5 ADD MSTORE DUP7 DUP4 PUSH1 0x24 DUP2 DUP6 GAS STATICCALL SWAP3 DUP4 ISZERO PUSH2 0x795 JUMPI DUP10 SWAP4 PUSH2 0x762 JUMPI JUMPDEST POP PUSH1 0x6 SLOAD DUP1 SWAP4 LT ISZERO PUSH2 0x66C JUMPI JUMPDEST POP PUSH2 0x5FB JUMP JUMPDEST DUP8 MLOAD PUSH4 0xA9059CBB PUSH1 0xE0 SHL DUP2 MSTORE PUSH1 0x1 PUSH1 0x1 PUSH1 0xA0 SHL SUB SWAP1 SWAP2 AND DUP7 DUP3 ADD SWAP1 DUP2 MSTORE PUSH1 0x20 DUP2 ADD SWAP4 SWAP1 SWAP4 MSTORE SWAP2 DUP7 SWAP2 DUP4 SWAP2 DUP3 SWAP1 DUP12 SWAP1 DUP3 SWAP1 PUSH1 0x40 ADD SUB SWAP3 GAS CALL SWAP1 DUP2 ISZERO PUSH2 0x758 JUMPI DUP8 SWAP2 PUSH2 0x73B JUMPI JUMPDEST POP ISZERO PUSH2 0x6F8 JUMPI SWAP2 DUP4 SWAP3 SWAP2 PUSH2 0x551 SWAP5 SWAP3 PUSH1 0x6 SLOAD SWAP1 DUP8 MLOAD SWAP2 DUP3 MSTORE PUSH32 0xCA55B80EE391A1F76A4E016EBC5A1AFE15E0463250300E133628A95C7A7C4CD9 DUP6 CALLER SWAP4 LOG3 SWAP2 SWAP4 DUP2 SWAP4 CODESIZE PUSH2 0x666 JUMP JUMPDEST DUP5 MLOAD PUSH3 0x461BCD PUSH1 0xE5 SHL DUP2 MSTORE DUP1 DUP5 ADD DUP6 SWAP1 MSTORE PUSH1 0x1E PUSH1 0x24 DUP3 ADD MSTORE PUSH32 0x526566657272616C20626F6E7573207472616E73666572206661696C65640000 PUSH1 0x44 DUP3 ADD MSTORE PUSH1 0x64 SWAP1 REVERT JUMPDEST PUSH2 0x752 SWAP2 POP DUP6 RETURNDATASIZE DUP8 GT PUSH2 0x5C7 JUMPI PUSH2 0x5B9 DUP2 DUP4 PUSH2 0x1906 JUMP JUMPDEST CODESIZE PUSH2 0x6B1 JUMP JUMPDEST DUP7 MLOAD RETURNDATASIZE DUP10 DUP3 RETURNDATACOPY RETURNDATASIZE SWAP1 REVERT JUMPDEST SWAP1 SWAP3 POP DUP7 DUP2 DUP2 RETURNDATASIZE DUP4 GT PUSH2 0x78E JUMPI JUMPDEST PUSH2 0x77A DUP2 DUP4 PUSH2 0x1906 JUMP JUMPDEST DUP2 ADD SUB SLT PUSH2 0x78A JUMPI MLOAD SWAP2 CODESIZE PUSH2 0x659 JUMP JUMPDEST DUP9 DUP1 REVERT JUMPDEST POP RETURNDATASIZE PUSH2 0x770 JUMP JUMPDEST DUP9 MLOAD RETURNDATASIZE DUP12 DUP3 RETURNDATACOPY RETURNDATASIZE SWAP1 REVERT JUMPDEST POP DUP3 DUP9 MSTORE PUSH1 0xE DUP7 MSTORE PUSH1 0xFF DUP8 DUP10 KECCAK256 SLOAD AND PUSH2 0x5F6 JUMP JUMPDEST DUP1 DUP1 DUP1 DUP5 PUSH2 0x7C6 PUSH2 0x7DB SWAP7 CALLVALUE LT ISZERO PUSH2 0x1C61 JUMP JUMPDEST DUP10 PUSH1 0x9 SLOAD AND GAS CALL PUSH2 0x7D5 PUSH2 0x1CBC JUMP JUMPDEST POP PUSH2 0x1CEC JUMP JUMPDEST PUSH1 0xA SLOAD DUP9 DUP2 CALLVALUE GT PUSH2 0x829 JUMPI JUMPDEST POP POP PUSH1 0xA SLOAD CALLER DUP10 MSTORE PUSH1 0x11 DUP8 MSTORE DUP1 DUP9 DUP11 KECCAK256 SSTORE DUP8 MLOAD SWAP1 DUP2 MSTORE PUSH32 0x75A2720282FDF622141DAE0B048EF90A21A7E57C134C76912D19D006B3B3F6F DUP8 CALLER SWAP3 LOG2 CODESIZE DUP9 PUSH2 0x4F6 JUMP JUMPDEST DUP1 DUP1 DUP1 PUSH2 0x839 PUSH2 0x84A SWAP6 CALLVALUE PUSH2 0x1D2E JUMP JUMPDEST CALLER GAS CALL PUSH2 0x844 PUSH2 0x1CBC JUMP JUMPDEST POP PUSH2 0x1D3B JUMP JUMPDEST CODESIZE DUP9 PUSH2 0x7E7 JUMP JUMPDEST POP DUP7 DUP2 DUP2 RETURNDATASIZE DUP4 GT PUSH2 0x879 JUMPI JUMPDEST PUSH2 0x867 DUP2 DUP4 PUSH2 0x1906 JUMP JUMPDEST DUP2 ADD SUB SLT PUSH2 0x78A JUMPI PUSH2 0x4EC SWAP1 MLOAD PUSH2 0x4DD JUMP JUMPDEST POP RETURNDATASIZE PUSH2 0x85D JUMP JUMPDEST DUP6 MLOAD PUSH3 0x461BCD PUSH1 0xE5 SHL DUP2 MSTORE DUP1 DUP6 ADD DUP7 SWAP1 MSTORE PUSH1 0x15 PUSH1 0x24 DUP3 ADD MSTORE PUSH21 0x21B0B73737BA103932B332B9103CB7BAB939B2B633 PUSH1 0x59 SHL PUSH1 0x44 DUP3 ADD MSTORE PUSH1 0x64 SWAP1 REVERT JUMPDEST POP CALLER DUP8 MSTORE PUSH1 0xC DUP6 MSTORE DUP6 DUP8 KECCAK256 SLOAD ISZERO PUSH2 0x4A0 JUMP JUMPDEST DUP7 DUP1 REVERT JUMPDEST DUP4 DUP1 REVERT JUMPDEST SWAP1 POP CALLVALUE PUSH2 0x30B JUMPI PUSH1 0x20 CALLDATASIZE PUSH1 0x3 NOT ADD SLT PUSH2 0x30B JUMPI CALLDATALOAD PUSH1 0x1 PUSH1 0x1 PUSH1 0xA0 SHL SUB DUP2 AND SWAP1 DUP2 SWAP1 SUB PUSH2 0x30B JUMPI DUP3 DUP3 SWAP2 PUSH1 0x20 SWAP5 MSTORE PUSH1 0xC DUP5 MSTORE KECCAK256 SLOAD SWAP1 MLOAD SWAP1 DUP2 MSTORE RETURN JUMPDEST SWAP1 POP CALLVALUE PUSH2 0x30B JUMPI PUSH1 0x20 CALLDATASIZE PUSH1 0x3 NOT ADD SLT PUSH2 0x30B JUMPI CALLDATALOAD PUSH1 0x1 PUSH1 0x1 PUSH1 0xA0 SHL SUB DUP2 AND SWAP1 DUP2 SWAP1 SUB PUSH2 0x30B JUMPI DUP2 DUP4 PUSH1 0xFF SWAP3 PUSH1 0x20 SWAP6 MSTORE PUSH1 0xE DUP6 MSTORE KECCAK256 SLOAD AND SWAP1 MLOAD SWAP1 ISZERO ISZERO DUP2 MSTORE RETURN JUMPDEST DUP4 DUP4 CALLVALUE PUSH2 0x1F6 JUMPI DUP2 PUSH1 0x3 NOT CALLDATASIZE ADD SLT PUSH2 0x1F6 JUMPI PUSH1 0x2 SLOAD DUP2 MLOAD PUSH4 0x6FDDE03 PUSH1 0xE0 SHL DUP2 MSTORE SWAP4 PUSH1 0x1 PUSH1 0x1 PUSH1 0xA0 SHL SUB SWAP1 SWAP2 AND SWAP3 SWAP1 DUP2 DUP6 DUP3 DUP2 DUP8 GAS STATICCALL SWAP5 DUP6 ISZERO PUSH2 0xB78 JUMPI DUP3 SWAP6 PUSH2 0xB5C JUMPI JUMPDEST POP DUP3 MLOAD PUSH4 0x95D89B41 PUSH1 0xE0 SHL DUP2 MSTORE SWAP3 DUP3 DUP5 DUP4 DUP2 DUP9 GAS STATICCALL SWAP4 DUP5 ISZERO PUSH2 0xB52 JUMPI DUP4 SWAP5 PUSH2 0xB2E JUMPI JUMPDEST POP DUP1 MLOAD SWAP4 PUSH4 0x313CE567 PUSH1 0xE0 SHL DUP6 MSTORE PUSH1 0x20 SWAP7 DUP8 DUP7 DUP6 DUP2 DUP11 GAS STATICCALL SWAP6 DUP7 ISZERO PUSH2 0xB24 JUMPI DUP6 SWAP7 PUSH2 0xAEB JUMPI JUMPDEST POP DUP3 MLOAD PUSH4 0x18160DDD PUSH1 0xE0 SHL DUP2 MSTORE SWAP4 DUP9 DUP6 DUP3 DUP2 DUP12 GAS STATICCALL SWAP5 DUP6 ISZERO PUSH2 0xAE1 JUMPI DUP7 SWAP6 PUSH2 0xAAE JUMPI JUMPDEST POP DUP4 MLOAD SWAP1 PUSH4 0x70A08231 PUSH1 0xE0 SHL DUP3 MSTORE ADDRESS SWAP1 DUP3 ADD MSTORE DUP9 DUP2 PUSH1 0x24 DUP2 DUP12 GAS STATICCALL SWAP6 DUP7 ISZERO PUSH2 0xAA3 JUMPI DUP1 SWAP7 PUSH2 0xA6C JUMPI JUMPDEST POP POP SWAP2 PUSH2 0xA57 SWAP2 PUSH2 0xA4A PUSH1 0xFF SWAP5 PUSH1 0xC0 DUP5 MLOAD SWAP12 DUP13 SWAP12 DUP13 MSTORE DUP12 ADD MSTORE PUSH1 0xC0 DUP11 ADD SWAP1 PUSH2 0x18AF JUMP JUMPDEST SWAP2 DUP9 DUP4 SUB SWAP1 DUP10 ADD MSTORE PUSH2 0x18AF JUMP JUMPDEST SWAP4 AND PUSH1 0x60 DUP6 ADD MSTORE PUSH1 0x80 DUP5 ADD MSTORE PUSH1 0xA0 DUP4 ADD MSTORE SUB SWAP1 RETURN JUMPDEST SWAP1 SWAP2 SWAP6 POP DUP9 DUP3 DUP2 RETURNDATASIZE DUP4 GT PUSH2 0xA9C JUMPI JUMPDEST PUSH2 0xA85 DUP2 DUP4 PUSH2 0x1906 JUMP JUMPDEST DUP2 ADD SUB SLT PUSH2 0xA99 JUMPI POP MLOAD SWAP4 DUP2 PUSH2 0xA4A PUSH2 0xA27 JUMP JUMPDEST DUP1 REVERT JUMPDEST POP RETURNDATASIZE PUSH2 0xA7B JUMP JUMPDEST DUP5 MLOAD SWAP1 RETURNDATASIZE SWAP1 DUP3 RETURNDATACOPY RETURNDATASIZE SWAP1 REVERT JUMPDEST SWAP1 SWAP5 POP DUP9 DUP2 DUP2 RETURNDATASIZE DUP4 GT PUSH2 0xADA JUMPI JUMPDEST PUSH2 0xAC6 DUP2 DUP4 PUSH2 0x1906 JUMP JUMPDEST DUP2 ADD SUB SLT PUSH2 0xAD6 JUMPI MLOAD SWAP4 DUP10 PUSH2 0x9FE JUMP JUMPDEST DUP6 DUP1 REVERT JUMPDEST POP RETURNDATASIZE PUSH2 0xABC JUMP JUMPDEST DUP5 MLOAD RETURNDATASIZE DUP9 DUP3 RETURNDATACOPY RETURNDATASIZE SWAP1 REVERT JUMPDEST SWAP1 SWAP6 POP DUP8 DUP2 DUP2 RETURNDATASIZE DUP4 GT PUSH2 0xB1D JUMPI JUMPDEST PUSH2 0xB03 DUP2 DUP4 PUSH2 0x1906 JUMP JUMPDEST DUP2 ADD SUB SLT PUSH2 0x307 JUMPI MLOAD PUSH1 0xFF DUP2 AND DUP2 SUB PUSH2 0x307 JUMPI SWAP5 DUP9 PUSH2 0x9DB JUMP JUMPDEST POP RETURNDATASIZE PUSH2 0xAF9 JUMP JUMPDEST DUP4 MLOAD RETURNDATASIZE DUP8 DUP3 RETURNDATACOPY RETURNDATASIZE SWAP1 REVERT JUMPDEST PUSH2 0xB4B SWAP2 SWAP5 POP RETURNDATASIZE DUP1 DUP6 DUP4 RETURNDATACOPY PUSH2 0xB43 DUP2 DUP4 PUSH2 0x1906 JUMP JUMPDEST DUP2 ADD SWAP1 PUSH2 0x1F16 JUMP JUMPDEST SWAP3 DUP7 PUSH2 0x9B5 JUMP JUMPDEST DUP2 MLOAD RETURNDATASIZE DUP6 DUP3 RETURNDATACOPY RETURNDATASIZE SWAP1 REVERT JUMPDEST PUSH2 0xB71 SWAP2 SWAP6 POP RETURNDATASIZE DUP1 DUP5 DUP4 RETURNDATACOPY PUSH2 0xB43 DUP2 DUP4 PUSH2 0x1906 JUMP JUMPDEST SWAP4 DUP6 PUSH2 0x992 JUMP JUMPDEST DUP4 MLOAD RETURNDATASIZE DUP5 DUP3 RETURNDATACOPY RETURNDATASIZE SWAP1 REVERT JUMPDEST SWAP1 POP CALLVALUE PUSH2 0x30B JUMPI PUSH1 0x20 CALLDATASIZE PUSH1 0x3 NOT ADD SLT PUSH2 0x30B JUMPI PUSH1 0x1 PUSH1 0x1 PUSH1 0xA0 SHL SUB SWAP1 CALLDATALOAD DUP2 DUP2 AND SWAP1 DUP2 SWAP1 SUB PUSH2 0x8D1 JUMPI DUP4 DUP4 SWAP2 PUSH1 0x20 SWAP6 MSTORE PUSH1 0x10 DUP6 MSTORE KECCAK256 SLOAD AND SWAP1 MLOAD SWAP1 DUP2 MSTORE RETURN JUMPDEST POP POP CALLVALUE PUSH2 0x1F6 JUMPI DUP2 PUSH1 0x3 NOT CALLDATASIZE ADD SLT PUSH2 0x1F6 JUMPI PUSH1 0x20 SWAP1 PUSH1 0xD SLOAD SWAP1 MLOAD SWAP1 DUP2 MSTORE RETURN JUMPDEST DUP4 SWAP1 CALLVALUE PUSH2 0x1F6 JUMPI PUSH1 0x20 CALLDATASIZE PUSH1 0x3 NOT ADD SLT PUSH2 0x1F6 JUMPI PUSH2 0xBF9 PUSH2 0x1B14 JUMP JUMPDEST CALLDATALOAD PUSH1 0x5 SSTORE DUP1 RETURN JUMPDEST SWAP2 SWAP1 POP CALLVALUE PUSH2 0x30B JUMPI PUSH1 0x20 CALLDATASIZE PUSH1 0x3 NOT ADD SLT PUSH2 0x30B JUMPI PUSH1 0x1 PUSH1 0x1 PUSH1 0xA0 SHL SUB DUP3 CALLDATALOAD DUP2 DUP2 AND SWAP4 SWAP2 SWAP3 SWAP1 DUP5 SWAP1 SUB PUSH2 0x307 JUMPI PUSH2 0xC34 PUSH2 0x1B14 JUMP JUMPDEST DUP4 ISZERO PUSH2 0xC7E JUMPI POP POP PUSH1 0x9 SLOAD DUP3 PUSH12 0xFFFFFFFFFFFFFFFFFFFFFFFF PUSH1 0xA0 SHL DUP3 AND OR PUSH1 0x9 SSTORE AND PUSH32 0x5D16AD41BAEB009CD23EB8F6C7CDE5C2E0CD5ACF4A33926AB488875C37C37F38 DUP4 DUP1 LOG3 DUP1 RETURN JUMPDEST SWAP1 PUSH1 0x20 PUSH1 0x64 SWAP3 MLOAD SWAP2 PUSH3 0x461BCD PUSH1 0xE5 SHL DUP4 MSTORE DUP3 ADD MSTORE PUSH1 0xF PUSH1 0x24 DUP3 ADD MSTORE PUSH15 0x496E76616C69642061646472657373 PUSH1 0x88 SHL PUSH1 0x44 DUP3 ADD MSTORE REVERT JUMPDEST DUP4 SWAP1 CALLVALUE PUSH2 0x1F6 JUMPI PUSH1 0x20 CALLDATASIZE PUSH1 0x3 NOT ADD SLT PUSH2 0x1F6 JUMPI PUSH2 0xCCE PUSH2 0x1B14 JUMP JUMPDEST CALLDATALOAD PUSH1 0x6 SSTORE DUP1 RETURN JUMPDEST SWAP1 POP CALLVALUE PUSH2 0x30B JUMPI PUSH1 0x20 CALLDATASIZE PUSH1 0x3 NOT ADD SLT PUSH2 0x30B JUMPI CALLDATALOAD SWAP2 PUSH1 0x1 PUSH1 0x1 PUSH1 0xA0 SHL SUB DUP4 AND DUP4 SUB PUSH2 0xA99 JUMPI POP PUSH2 0xD06 PUSH1 0x20 SWAP3 PUSH2 0x1E97 JUMP JUMPDEST SWAP1 MLOAD SWAP1 DUP2 MSTORE RETURN JUMPDEST POP POP CALLVALUE PUSH2 0x1F6 JUMPI DUP2 PUSH1 0x3 NOT CALLDATASIZE ADD SLT PUSH2 0x1F6 JUMPI SWAP1 SLOAD SWAP1 MLOAD PUSH1 0x1 PUSH1 0x1 PUSH1 0xA0 SHL SUB SWAP1 SWAP2 AND DUP2 MSTORE PUSH1 0x20 SWAP1 RETURN JUMPDEST SWAP1 POP CALLVALUE PUSH2 0x30B JUMPI DUP3 PUSH1 0x3 NOT CALLDATASIZE ADD SLT PUSH2 0x30B JUMPI PUSH2 0xD4F PUSH2 0x1B14 JUMP JUMPDEST PUSH1 0x2 SLOAD DUP3 MLOAD PUSH4 0x70A08231 PUSH1 0xE0 SHL DUP2 MSTORE ADDRESS DUP2 DUP5 ADD MSTORE PUSH1 0x20 SWAP3 SWAP1 SWAP2 PUSH1 0x1 PUSH1 0x1 PUSH1 0xA0 SHL SUB SWAP1 DUP2 AND SWAP2 SWAP1 DUP5 DUP5 PUSH1 0x24 DUP2 DUP7 GAS STATICCALL SWAP4 DUP5 ISZERO PUSH2 0x758 JUMPI DUP8 SWAP5 PUSH2 0xE3F JUMPI JUMPDEST POP DUP4 ISZERO PUSH2 0xE04 JUMPI DUP7 SLOAD DUP7 MLOAD PUSH4 0xA9059CBB PUSH1 0xE0 SHL DUP2 MSTORE SWAP2 AND PUSH1 0x1 PUSH1 0x1 PUSH1 0xA0 SHL SUB AND SWAP2 DUP2 ADD SWAP2 DUP3 MSTORE PUSH1 0x20 DUP3 ADD SWAP4 SWAP1 SWAP4 MSTORE DUP4 SWAP2 DUP4 SWAP2 DUP3 SWAP1 DUP9 SWAP1 DUP3 SWAP1 PUSH1 0x40 ADD SUB SWAP3 GAS CALL SWAP2 DUP3 ISZERO PUSH2 0x5CE JUMPI PUSH2 0xDE4 SWAP4 POP DUP5 SWAP3 PUSH2 0xDE7 JUMPI JUMPDEST POP POP PUSH2 0x1DE5 JUMP JUMPDEST DUP1 RETURN JUMPDEST PUSH2 0xDFD SWAP3 POP DUP1 RETURNDATASIZE LT PUSH2 0x5C7 JUMPI PUSH2 0x5B9 DUP2 DUP4 PUSH2 0x1906 JUMP JUMPDEST CODESIZE DUP1 PUSH2 0xDDD JUMP JUMPDEST DUP6 MLOAD PUSH3 0x461BCD PUSH1 0xE5 SHL DUP2 MSTORE DUP1 DUP4 ADD DUP7 SWAP1 MSTORE PUSH1 0x15 PUSH1 0x24 DUP3 ADD MSTORE PUSH21 0x4E6F20746F6B656E7320746F207769746864726177 PUSH1 0x58 SHL PUSH1 0x44 DUP3 ADD MSTORE PUSH1 0x64 SWAP1 REVERT JUMPDEST SWAP1 SWAP4 POP DUP5 DUP2 DUP2 RETURNDATASIZE DUP4 GT PUSH2 0xE67 JUMPI JUMPDEST PUSH2 0xE57 DUP2 DUP4 PUSH2 0x1906 JUMP JUMPDEST DUP2 ADD SUB SLT PUSH2 0x8CD JUMPI MLOAD SWAP3 CODESIZE PUSH2 0xD8B JUMP JUMPDEST POP RETURNDATASIZE PUSH2 0xE4D JUMP JUMPDEST SWAP1 POP CALLVALUE PUSH2 0x30B JUMPI PUSH1 0x20 CALLDATASIZE PUSH1 0x3 NOT ADD SLT PUSH2 0x30B JUMPI CALLDATALOAD PUSH1 0x1 PUSH1 0x1 PUSH1 0xA0 SHL SUB DUP2 AND SWAP1 DUP2 SWAP1 SUB PUSH2 0x30B JUMPI DUP3 DUP3 SWAP2 PUSH1 0x20 SWAP5 MSTORE PUSH1 0x11 DUP5 MSTORE KECCAK256 SLOAD SWAP1 MLOAD SWAP1 DUP2 MSTORE RETURN JUMPDEST POP POP CALLVALUE PUSH2 0x1F6 JUMPI DUP2 PUSH1 0x3 NOT CALLDATASIZE ADD SLT PUSH2 0x1F6 JUMPI PUSH1 0x20 SWAP1 PUSH1 0x7 SLOAD SWAP1 MLOAD SWAP1 DUP2 MSTORE RETURN JUMPDEST DUP4 CALLVALUE PUSH2 0xA99 JUMPI DUP1 PUSH1 0x3 NOT CALLDATASIZE ADD SLT PUSH2 0xA99 JUMPI PUSH2 0xEE0 PUSH2 0x1B14 JUMP JUMPDEST DUP1 SLOAD PUSH1 0x1 PUSH1 0x1 PUSH1 0xA0 SHL SUB NOT DUP2 AND DUP3 SSTORE DUP2 SWAP1 PUSH1 0x1 PUSH1 0x1 PUSH1 0xA0 SHL SUB AND PUSH32 0x8BE0079C531659141344CD1FD0A4F28419497F9722A3DAAFE3B4186F6B6457E0 DUP3 DUP1 LOG3 DUP1 RETURN JUMPDEST POP POP CALLVALUE PUSH2 0x1F6 JUMPI DUP2 PUSH1 0x3 NOT CALLDATASIZE ADD SLT PUSH2 0x1F6 JUMPI PUSH2 0xF52 SWAP1 PUSH2 0xF3F PUSH2 0x1928 JUMP JUMPDEST SWAP1 MLOAD SWAP2 DUP3 SWAP2 PUSH1 0x20 DUP4 MSTORE PUSH1 0x20 DUP4 ADD SWAP1 PUSH2 0x18AF JUMP JUMPDEST SUB SWAP1 RETURN JUMPDEST SWAP2 SWAP1 POP CALLVALUE PUSH2 0x30B JUMPI PUSH1 0x20 CALLDATASIZE PUSH1 0x3 NOT ADD SLT PUSH2 0x30B JUMPI PUSH32 0xB6600428041F36AB218D984115A85ADC1FFB17CB85A81801032CB590A8A8BC99 SWAP2 CALLDATALOAD PUSH2 0xF95 PUSH2 0x1B14 JUMP JUMPDEST PUSH1 0xA SLOAD SWAP1 DUP1 PUSH1 0xA SSTORE DUP3 MLOAD SWAP2 DUP3 MSTORE PUSH1 0x20 DUP3 ADD MSTORE LOG1 DUP1 RETURN JUMPDEST POP POP CALLVALUE PUSH2 0x1F6 JUMPI DUP2 PUSH1 0x3 NOT CALLDATASIZE ADD SLT PUSH2 0x1F6 JUMPI PUSH1 0x20 SWAP1 PUSH1 0xA SLOAD SWAP1 MLOAD SWAP1 DUP2 MSTORE RETURN JUMPDEST SWAP2 SWAP1 POP CALLVALUE PUSH2 0x30B JUMPI PUSH1 0x20 CALLDATASIZE PUSH1 0x3 NOT ADD SLT PUSH2 0x30B JUMPI DUP2 CALLDATALOAD SWAP2 PUSH2 0xFE9 PUSH2 0x1B14 JUMP JUMPDEST DUP3 ISZERO PUSH2 0x1021 JUMPI POP DUP2 PUSH1 0x20 SWAP2 PUSH32 0xCB7EE917D029D22A071ECB2B3DB0556CA49424002997AE83D8A4FFF552EF72F6 SWAP4 PUSH1 0xB SSTORE MLOAD SWAP1 DUP2 MSTORE LOG1 DUP1 RETURN JUMPDEST PUSH1 0x20 PUSH1 0x64 SWAP3 MLOAD SWAP2 PUSH3 0x461BCD PUSH1 0xE5 SHL DUP4 MSTORE DUP3 ADD MSTORE PUSH1 0x1F PUSH1 0x24 DUP3 ADD MSTORE PUSH32 0x436F6F6C646F776E206D7573742062652067726561746572207468616E203000 PUSH1 0x44 DUP3 ADD MSTORE REVERT JUMPDEST SWAP1 POP CALLVALUE PUSH2 0x30B JUMPI PUSH1 0x20 CALLDATASIZE PUSH1 0x3 NOT ADD SLT PUSH2 0x30B JUMPI CALLDATALOAD SWAP2 PUSH1 0xD SLOAD DUP4 LT ISZERO PUSH2 0xA99 JUMPI POP PUSH2 0x108E PUSH1 0x20 SWAP3 PUSH2 0x1AC7 JUMP JUMPDEST SWAP1 SLOAD SWAP2 MLOAD SWAP2 PUSH1 0x1 DUP1 PUSH1 0xA0 SHL SUB SWAP2 PUSH1 0x3 SHL SHR AND DUP2 MSTORE RETURN JUMPDEST DUP4 DUP4 CALLVALUE PUSH2 0x1F6 JUMPI DUP1 PUSH1 0x3 NOT CALLDATASIZE ADD SLT PUSH2 0x1F6 JUMPI DUP3 CALLDATALOAD PUSH1 0x24 CALLDATALOAD SWAP4 PUSH2 0x10C4 PUSH2 0x1B14 JUMP JUMPDEST DUP5 DUP3 LT ISZERO PUSH2 0x1111 JUMPI POP PUSH32 0xA73C2A4E4657F5E1FF94A19FFE5F535CDD2DD893A121899816C3E9F66565CB01 SWAP3 SWAP4 PUSH2 0x10FB TIMESTAMP DUP3 GT PUSH2 0x1ECA JUMP JUMPDEST DUP2 PUSH1 0x7 SSTORE DUP1 PUSH1 0x8 SSTORE DUP3 MLOAD SWAP2 DUP3 MSTORE PUSH1 0x20 DUP3 ADD MSTORE LOG1 DUP1 RETURN JUMPDEST PUSH1 0x64 SWAP1 PUSH1 0x20 DUP5 MLOAD SWAP2 PUSH3 0x461BCD PUSH1 0xE5 SHL DUP4 MSTORE DUP3 ADD MSTORE PUSH1 0x12 PUSH1 0x24 DUP3 ADD MSTORE PUSH18 0x496E76616C69642074696D652072616E6765 PUSH1 0x70 SHL PUSH1 0x44 DUP3 ADD MSTORE REVERT JUMPDEST SWAP2 SWAP1 POP CALLVALUE PUSH2 0x30B JUMPI DUP3 PUSH1 0x3 NOT CALLDATASIZE ADD SLT PUSH2 0x30B JUMPI PUSH2 0x1164 PUSH2 0x1B14 JUMP JUMPDEST SELFBALANCE DUP1 ISZERO PUSH2 0x11CE JUMPI PUSH1 0x9 SLOAD DUP5 SWAP2 DUP3 SWAP2 DUP3 SWAP2 DUP3 SWAP2 PUSH1 0x1 PUSH1 0x1 PUSH1 0xA0 SHL SUB AND GAS CALL PUSH2 0x1189 PUSH2 0x1CBC JUMP JUMPDEST POP ISZERO PUSH2 0x1193 JUMPI DUP3 DUP1 RETURN JUMPDEST SWAP1 PUSH1 0x20 PUSH1 0x64 SWAP3 MLOAD SWAP2 PUSH3 0x461BCD PUSH1 0xE5 SHL DUP4 MSTORE DUP3 ADD MSTORE PUSH1 0x15 PUSH1 0x24 DUP3 ADD MSTORE PUSH21 0x119959481DDA5D1A191C985DD85B0819985A5B1959 PUSH1 0x5A SHL PUSH1 0x44 DUP3 ADD MSTORE REVERT JUMPDEST DUP2 MLOAD PUSH3 0x461BCD PUSH1 0xE5 SHL DUP2 MSTORE PUSH1 0x20 DUP2 DUP6 ADD MSTORE PUSH1 0x13 PUSH1 0x24 DUP3 ADD MSTORE PUSH19 0x4E6F206665657320746F207769746864726177 PUSH1 0x68 SHL PUSH1 0x44 DUP3 ADD MSTORE PUSH1 0x64 SWAP1 REVERT JUMPDEST SWAP2 SWAP1 POP CALLVALUE PUSH2 0x30B JUMPI PUSH1 0x20 CALLDATASIZE PUSH1 0x3 NOT ADD SLT PUSH2 0x30B JUMPI DUP2 CALLDATALOAD SWAP2 PUSH2 0x1226 PUSH2 0x1B14 JUMP JUMPDEST PUSH1 0x8 SLOAD DUP4 LT ISZERO PUSH2 0x12AC JUMPI TIMESTAMP DUP4 GT ISZERO PUSH2 0x126A JUMPI POP DUP2 PUSH1 0x20 SWAP2 PUSH32 0x9C5B354B21055675B708256FBF890975529C5E58066B2E826541D253B389CD14 SWAP4 PUSH1 0x7 SSTORE MLOAD SWAP1 DUP2 MSTORE LOG1 DUP1 RETURN JUMPDEST PUSH1 0x20 PUSH1 0x64 SWAP3 MLOAD SWAP2 PUSH3 0x461BCD PUSH1 0xE5 SHL DUP4 MSTORE DUP3 ADD MSTORE PUSH1 0x20 PUSH1 0x24 DUP3 ADD MSTORE PUSH32 0x53746172742074696D65206D75737420626520696E2074686520667574757265 PUSH1 0x44 DUP3 ADD MSTORE REVERT JUMPDEST PUSH1 0x20 PUSH1 0x84 SWAP3 MLOAD SWAP2 PUSH3 0x461BCD PUSH1 0xE5 SHL DUP4 MSTORE DUP3 ADD MSTORE PUSH1 0x22 PUSH1 0x24 DUP3 ADD MSTORE PUSH32 0x53746172742074696D65206D757374206265206265666F726520656E64207469 PUSH1 0x44 DUP3 ADD MSTORE PUSH2 0x6D65 PUSH1 0xF0 SHL PUSH1 0x64 DUP3 ADD MSTORE REVERT JUMPDEST POP POP CALLVALUE PUSH2 0x1F6 JUMPI DUP2 PUSH1 0x3 NOT CALLDATASIZE ADD SLT PUSH2 0x1F6 JUMPI PUSH2 0xF52 SWAP1 PUSH2 0xF3F PUSH2 0x1A13 JUMP JUMPDEST SWAP2 POP CALLVALUE PUSH2 0x8D1 JUMPI DUP4 PUSH1 0x3 NOT CALLDATASIZE ADD SLT PUSH2 0x8D1 JUMPI PUSH1 0x5 SLOAD SWAP2 PUSH1 0x6 SLOAD SWAP2 PUSH1 0x7 SLOAD SWAP2 PUSH1 0x8 SLOAD SWAP2 PUSH1 0x1 DUP1 PUSH1 0xA0 SHL SUB SWAP2 PUSH1 0x20 DUP4 PUSH1 0x2 SLOAD AND SWAP3 PUSH1 0x24 DUP11 MLOAD DUP1 SWAP6 DUP2 SWAP4 PUSH4 0x70A08231 PUSH1 0xE0 SHL DUP4 MSTORE ADDRESS SWAP1 DUP4 ADD MSTORE GAS STATICCALL SWAP2 DUP3 ISZERO PUSH2 0x795 JUMPI DUP10 SWAP3 PUSH2 0x140B JUMPI JUMPDEST POP DUP8 SWAP9 POP PUSH1 0xD SLOAD SWAP1 PUSH2 0x1380 PUSH2 0x1E7F JUMP JUMPDEST SWAP3 PUSH1 0xA SLOAD SWAP5 PUSH1 0x9 SLOAD AND SWAP6 SELFBALANCE SWAP8 PUSH1 0xB SLOAD SWAP10 PUSH2 0x1398 PUSH2 0x1928 JUMP JUMPDEST SWAP12 PUSH2 0x13A1 PUSH2 0x1A13 JUMP JUMPDEST SWAP14 MLOAD SWAP15 DUP16 SWAP15 DUP16 SWAP15 DUP16 SWAP1 PUSH2 0x1A0 DUP1 DUP4 MSTORE DUP3 ADD PUSH2 0x13BB SWAP2 PUSH2 0x18AF JUMP JUMPDEST SWAP1 DUP1 DUP3 SUB SWAP1 PUSH1 0x20 ADD MSTORE PUSH2 0x13CD SWAP2 PUSH2 0x18AF JUMP JUMPDEST SWAP14 ADD MSTORE PUSH1 0x60 DUP14 ADD MSTORE PUSH1 0x80 DUP13 ADD MSTORE PUSH1 0xA0 DUP12 ADD MSTORE PUSH1 0xC0 DUP11 ADD MSTORE DUP9 ADD MSTORE ISZERO ISZERO PUSH2 0x100 DUP8 ADD MSTORE PUSH2 0x120 DUP7 ADD MSTORE PUSH2 0x140 DUP6 ADD MSTORE PUSH2 0x160 DUP5 ADD MSTORE PUSH2 0x180 DUP4 ADD MSTORE SUB SWAP1 RETURN JUMPDEST SWAP1 SWAP2 POP PUSH1 0x20 DUP2 RETURNDATASIZE DUP3 GT PUSH2 0x1439 JUMPI JUMPDEST DUP2 PUSH2 0x1426 PUSH1 0x20 SWAP4 DUP4 PUSH2 0x1906 JUMP JUMPDEST DUP2 ADD SUB SLT PUSH2 0x78A JUMPI DUP8 SWAP9 POP MLOAD SWAP1 CODESIZE PUSH2 0x1370 JUMP JUMPDEST RETURNDATASIZE SWAP2 POP PUSH2 0x1419 JUMP JUMPDEST POP POP POP CALLVALUE PUSH2 0x1F6 JUMPI DUP2 PUSH1 0x3 NOT CALLDATASIZE ADD SLT PUSH2 0x1F6 JUMPI PUSH1 0x20 SWAP1 PUSH1 0x8 SLOAD SWAP1 MLOAD SWAP1 DUP2 MSTORE RETURN JUMPDEST DUP4 DUP6 DUP4 CALLVALUE PUSH2 0x1F6 JUMPI PUSH1 0x20 CALLDATASIZE PUSH1 0x3 NOT ADD SLT PUSH2 0x1F6 JUMPI CALLDATALOAD SWAP2 PUSH1 0x1 PUSH1 0x1 PUSH1 0xA0 SHL SUB SWAP2 DUP3 DUP5 AND DUP5 SUB PUSH2 0xA99 JUMPI POP PUSH2 0x1495 PUSH1 0xC0 SWAP4 PUSH2 0x1F75 JUMP JUMPDEST SWAP6 SWAP3 SWAP1 SWAP5 SWAP7 SWAP2 SWAP4 DUP4 MLOAD SWAP8 ISZERO ISZERO DUP9 MSTORE PUSH1 0x20 DUP9 ADD MSTORE AND SWAP1 DUP6 ADD MSTORE PUSH1 0x60 DUP5 ADD MSTORE PUSH1 0x80 DUP4 ADD MSTORE PUSH1 0xA0 DUP3 ADD MSTORE RETURN JUMPDEST POP SWAP1 POP CALLVALUE PUSH2 0x30B JUMPI PUSH1 0x20 CALLDATASIZE PUSH1 0x3 NOT ADD SLT PUSH2 0x30B JUMPI CALLDATALOAD PUSH1 0x1 PUSH1 0x1 PUSH1 0xA0 SHL SUB DUP2 AND SWAP1 DUP2 SWAP1 SUB PUSH2 0x30B JUMPI DUP3 DUP3 SWAP2 PUSH1 0x20 SWAP5 MSTORE PUSH1 0xF DUP5 MSTORE KECCAK256 SLOAD SWAP1 MLOAD SWAP1 DUP2 MSTORE RETURN JUMPDEST DUP5 DUP5 CALLVALUE PUSH2 0x1F6 JUMPI DUP2 PUSH1 0x3 NOT CALLDATASIZE ADD SLT PUSH2 0x1F6 JUMPI PUSH1 0xD SLOAD DUP4 PUSH2 0x1518 DUP3 PUSH2 0x2022 JUMP JUMPDEST SWAP2 PUSH2 0x1525 DUP5 MLOAD SWAP4 DUP5 PUSH2 0x1906 JUMP JUMPDEST DUP1 DUP4 MSTORE PUSH1 0x1F NOT PUSH2 0x1534 DUP3 PUSH2 0x2022 JUMP JUMPDEST ADD DUP6 JUMPDEST DUP2 DUP2 LT PUSH2 0x165A JUMPI POP POP DUP5 JUMPDEST DUP2 DUP2 LT PUSH2 0x15D4 JUMPI POP POP DUP3 MLOAD SWAP3 PUSH1 0x20 SWAP1 DUP2 DUP6 ADD SWAP3 DUP3 DUP7 MSTORE DUP5 MLOAD DUP1 SWAP5 MSTORE DUP3 DUP3 DUP8 ADD SWAP6 ADD SWAP7 SWAP2 JUMPDEST DUP5 DUP4 LT PUSH2 0x1573 JUMPI DUP7 DUP7 SUB DUP8 RETURN JUMPDEST DUP8 MLOAD DUP1 MLOAD PUSH1 0x1 PUSH1 0x1 PUSH1 0xA0 SHL SUB SWAP1 DUP2 AND DUP9 MSTORE DUP2 DUP7 ADD MLOAD ISZERO ISZERO DUP9 DUP8 ADD MSTORE DUP2 DUP4 ADD MLOAD DUP9 DUP5 ADD MSTORE PUSH1 0x60 DUP1 DUP4 ADD MLOAD SWAP1 SWAP2 AND SWAP1 DUP9 ADD MSTORE PUSH1 0x80 DUP1 DUP3 ADD MLOAD SWAP1 DUP9 ADD MSTORE PUSH1 0xA0 DUP1 DUP3 ADD MLOAD SWAP1 DUP9 ADD MSTORE PUSH1 0xC0 SWAP1 DUP2 ADD MLOAD SWAP1 DUP8 ADD MSTORE SWAP7 DUP4 ADD SWAP7 SWAP5 DUP2 ADD SWAP5 PUSH1 0x1 SWAP1 SWAP3 ADD SWAP2 PUSH2 0x1566 JUMP JUMPDEST DUP1 PUSH2 0x15E5 PUSH2 0x1651 SWAP3 SWAP8 SWAP7 SWAP6 SWAP8 PUSH2 0x1AC7 JUMP JUMPDEST SWAP1 SLOAD PUSH1 0x1 PUSH1 0x1 PUSH1 0xA0 SHL SUB PUSH1 0x3 SWAP3 SWAP1 SWAP3 SHL SHR DUP2 AND SWAP1 PUSH2 0x1602 DUP3 PUSH2 0x1F75 JUMP JUMPDEST POP SWAP5 SWAP3 SWAP1 SWAP4 DUP12 MLOAD SWAP7 PUSH2 0x1613 DUP9 PUSH2 0x18D4 JUMP JUMPDEST DUP8 MSTORE ISZERO ISZERO PUSH1 0x20 DUP8 ADD MSTORE DUP11 DUP7 ADD MSTORE AND PUSH1 0x60 DUP5 ADD MSTORE PUSH1 0x80 DUP4 ADD MSTORE TIMESTAMP PUSH1 0xA0 DUP4 ADD MSTORE PUSH1 0xC0 DUP3 ADD MSTORE PUSH2 0x1640 DUP3 DUP10 PUSH2 0x203A JUMP JUMPDEST MSTORE PUSH2 0x164B DUP2 DUP9 PUSH2 0x203A JUMP JUMPDEST POP PUSH2 0x1DB9 JUMP JUMPDEST SWAP5 SWAP3 SWAP4 SWAP5 PUSH2 0x1542 JUMP JUMPDEST PUSH1 0x20 SWAP1 DUP7 SWAP6 SWAP8 SWAP7 MLOAD PUSH2 0x166B DUP2 PUSH2 0x18D4 JUMP JUMPDEST DUP8 DUP2 MSTORE DUP3 DUP9 DUP2 DUP4 ADD MSTORE DUP9 DUP9 DUP4 ADD MSTORE DUP9 PUSH1 0x60 DUP4 ADD MSTORE DUP9 PUSH1 0x80 DUP4 ADD MSTORE DUP9 PUSH1 0xA0 DUP4 ADD MSTORE DUP9 PUSH1 0xC0 DUP4 ADD MSTORE DUP3 DUP11 ADD ADD MSTORE ADD SWAP6 SWAP4 SWAP5 SWAP6 PUSH2 0x1537 JUMP JUMPDEST POP SWAP1 POP DUP3 PUSH1 0x3 NOT CALLDATASIZE ADD SLT PUSH2 0x30B JUMPI PUSH2 0x16B6 PUSH2 0x1E29 JUMP JUMPDEST PUSH2 0x16C1 PUSH2 0x47A PUSH2 0x1E7F JUMP JUMPDEST CALLER DUP4 MSTORE PUSH1 0x20 PUSH1 0xC DUP2 MSTORE PUSH2 0x16DA DUP4 DUP6 KECCAK256 SLOAD PUSH1 0xB SLOAD SWAP1 PUSH2 0x1BB0 JUMP JUMPDEST TIMESTAMP LT DUP1 ISZERO SWAP1 PUSH2 0x187A JUMPI JUMPDEST PUSH2 0x16ED SWAP1 PUSH2 0x1BD3 JUMP JUMPDEST PUSH1 0x2 SLOAD DUP4 MLOAD PUSH4 0x70A08231 PUSH1 0xE0 SHL DUP2 MSTORE ADDRESS DUP2 DUP6 ADD MSTORE PUSH1 0x1 PUSH1 0x1 PUSH1 0xA0 SHL SUB SWAP4 SWAP2 DUP4 SWAP1 DUP3 SWAP1 PUSH1 0x24 SWAP1 DUP3 SWAP1 DUP9 AND GAS STATICCALL SWAP1 DUP2 ISZERO PUSH2 0x1870 JUMPI DUP7 SWAP2 PUSH2 0x183F JUMPI JUMPDEST POP SWAP1 PUSH2 0x551 SWAP4 PUSH2 0x173B DUP5 SWAP4 PUSH1 0x5 SLOAD GT ISZERO PUSH2 0x1C1F JUMP JUMPDEST PUSH1 0xA SLOAD DUP8 DUP2 PUSH2 0x17B8 JUMPI JUMPDEST POP POP CALLER DUP8 MSTORE PUSH1 0xC DUP4 MSTORE TIMESTAMP DUP7 DUP9 KECCAK256 SSTORE PUSH1 0xE DUP4 MSTORE DUP6 DUP8 KECCAK256 DUP1 SLOAD PUSH1 0xFF DUP2 AND ISZERO PUSH2 0x179F JUMPI JUMPDEST POP POP PUSH1 0x2 SLOAD PUSH1 0x5 SLOAD DUP8 MLOAD PUSH4 0xA9059CBB PUSH1 0xE0 SHL DUP2 MSTORE CALLER SWAP5 DUP2 ADD SWAP5 DUP6 MSTORE PUSH1 0x20 DUP6 ADD SWAP2 SWAP1 SWAP2 MSTORE SWAP6 DUP7 SWAP4 SWAP3 SWAP1 SWAP2 AND SWAP2 DUP4 SWAP2 DUP10 SWAP2 DUP4 SWAP2 PUSH1 0x40 SWAP1 SWAP2 ADD SWAP1 JUMP JUMPDEST PUSH1 0xFF NOT AND PUSH1 0x1 OR SWAP1 SSTORE PUSH2 0x17B1 CALLER PUSH2 0x1D77 JUMP JUMPDEST CODESIZE DUP1 PUSH2 0x1766 JUMP JUMPDEST DUP1 DUP1 DUP1 DUP5 PUSH2 0x17CB PUSH2 0x17DA SWAP7 CALLVALUE LT ISZERO PUSH2 0x1C61 JUMP JUMPDEST DUP7 PUSH1 0x9 SLOAD AND GAS CALL PUSH2 0x7D5 PUSH2 0x1CBC JUMP JUMPDEST PUSH1 0xA SLOAD DUP8 DUP2 CALLVALUE GT PUSH2 0x1828 JUMPI JUMPDEST POP POP PUSH1 0xA SLOAD CALLER DUP9 MSTORE PUSH1 0x11 DUP5 MSTORE DUP1 DUP8 DUP10 KECCAK256 SSTORE DUP7 MLOAD SWAP1 DUP2 MSTORE PUSH32 0x75A2720282FDF622141DAE0B048EF90A21A7E57C134C76912D19D006B3B3F6F DUP5 CALLER SWAP3 LOG2 CODESIZE DUP8 PUSH2 0x1745 JUMP JUMPDEST DUP1 DUP1 DUP1 PUSH2 0x839 PUSH2 0x1838 SWAP6 CALLVALUE PUSH2 0x1D2E JUMP JUMPDEST CODESIZE DUP8 PUSH2 0x17E6 JUMP JUMPDEST SWAP2 SWAP1 POP DUP3 DUP3 DUP2 RETURNDATASIZE DUP4 GT PUSH2 0x1869 JUMPI JUMPDEST PUSH2 0x1857 DUP2 DUP4 PUSH2 0x1906 JUMP JUMPDEST DUP2 ADD SUB SLT PUSH2 0xAD6 JUMPI SWAP1 MLOAD PUSH2 0x551 PUSH2 0x1726 JUMP JUMPDEST POP RETURNDATASIZE PUSH2 0x184D JUMP JUMPDEST DUP6 MLOAD RETURNDATASIZE DUP9 DUP3 RETURNDATACOPY RETURNDATASIZE SWAP1 REVERT JUMPDEST POP CALLER DUP5 MSTORE PUSH1 0xC DUP2 MSTORE DUP3 DUP5 KECCAK256 SLOAD ISZERO PUSH2 0x16E4 JUMP JUMPDEST PUSH1 0x0 JUMPDEST DUP4 DUP2 LT PUSH2 0x189F JUMPI POP POP PUSH1 0x0 SWAP2 ADD MSTORE JUMP JUMPDEST DUP2 DUP2 ADD MLOAD DUP4 DUP3 ADD MSTORE PUSH1 0x20 ADD PUSH2 0x188F JUMP JUMPDEST SWAP1 PUSH1 0x20 SWAP2 PUSH2 0x18C8 DUP2 MLOAD DUP1 SWAP3 DUP2 DUP6 MSTORE DUP6 DUP1 DUP7 ADD SWAP2 ADD PUSH2 0x188C JUMP JUMPDEST PUSH1 0x1F ADD PUSH1 0x1F NOT AND ADD ADD SWAP1 JUMP JUMPDEST PUSH1 0xE0 DUP2 ADD SWAP1 DUP2 LT PUSH8 0xFFFFFFFFFFFFFFFF DUP3 GT OR PUSH2 0x18F0 JUMPI PUSH1 0x40 MSTORE JUMP JUMPDEST PUSH4 0x4E487B71 PUSH1 0xE0 SHL PUSH1 0x0 MSTORE PUSH1 0x41 PUSH1 0x4 MSTORE PUSH1 0x24 PUSH1 0x0 REVERT JUMPDEST SWAP1 PUSH1 0x1F DUP1 NOT SWAP2 ADD AND DUP2 ADD SWAP1 DUP2 LT PUSH8 0xFFFFFFFFFFFFFFFF DUP3 GT OR PUSH2 0x18F0 JUMPI PUSH1 0x40 MSTORE JUMP JUMPDEST PUSH1 0x40 MLOAD SWAP1 PUSH1 0x0 PUSH1 0x3 SLOAD SWAP1 PUSH1 0x1 DUP3 DUP2 SHR SWAP1 DUP1 DUP5 AND SWAP4 DUP5 ISZERO PUSH2 0x1A09 JUMPI JUMPDEST PUSH1 0x20 SWAP5 DUP6 DUP5 LT DUP2 EQ PUSH2 0x19F5 JUMPI DUP4 DUP9 MSTORE DUP8 SWAP5 SWAP4 SWAP3 SWAP2 DUP2 ISZERO PUSH2 0x19D5 JUMPI POP PUSH1 0x1 EQ PUSH2 0x1976 JUMPI JUMPDEST POP POP PUSH2 0x1974 SWAP3 POP SUB DUP4 PUSH2 0x1906 JUMP JUMPDEST JUMP JUMPDEST SWAP1 SWAP4 SWAP2 POP PUSH1 0x3 PUSH1 0x0 MSTORE PUSH32 0xC2575A0E9E593C00F959F8C92F12DB2869C3395A3B0502D05E2516446F71F85B SWAP4 PUSH1 0x0 SWAP2 JUMPDEST DUP2 DUP4 LT PUSH2 0x19BD JUMPI POP POP PUSH2 0x1974 SWAP4 POP DUP3 ADD ADD CODESIZE DUP1 PUSH2 0x1966 JUMP JUMPDEST DUP6 SLOAD DUP9 DUP5 ADD DUP6 ADD MSTORE SWAP5 DUP6 ADD SWAP5 DUP8 SWAP5 POP SWAP2 DUP4 ADD SWAP2 PUSH2 0x19A5 JUMP JUMPDEST SWAP2 POP POP PUSH2 0x1974 SWAP5 SWAP3 POP PUSH1 0xFF NOT AND DUP3 DUP5 ADD MSTORE ISZERO ISZERO PUSH1 0x5 SHL DUP3 ADD ADD CODESIZE DUP1 PUSH2 0x1966 JUMP JUMPDEST PUSH4 0x4E487B71 PUSH1 0xE0 SHL DUP6 MSTORE PUSH1 0x22 PUSH1 0x4 MSTORE PUSH1 0x24 DUP6 REVERT JUMPDEST SWAP2 PUSH1 0x7F AND SWAP2 PUSH2 0x1943 JUMP JUMPDEST PUSH1 0x40 MLOAD SWAP1 PUSH1 0x0 PUSH1 0x4 SLOAD SWAP1 PUSH1 0x1 DUP3 DUP2 SHR SWAP1 DUP1 DUP5 AND SWAP4 DUP5 ISZERO PUSH2 0x1ABD JUMPI JUMPDEST PUSH1 0x20 SWAP5 DUP6 DUP5 LT DUP2 EQ PUSH2 0x19F5 JUMPI DUP4 DUP9 MSTORE DUP8 SWAP5 SWAP4 SWAP3 SWAP2 DUP2 ISZERO PUSH2 0x19D5 JUMPI POP PUSH1 0x1 EQ PUSH2 0x1A5E JUMPI POP POP PUSH2 0x1974 SWAP3 POP SUB DUP4 PUSH2 0x1906 JUMP JUMPDEST SWAP1 SWAP4 SWAP2 POP PUSH1 0x4 PUSH1 0x0 MSTORE PUSH32 0x8A35ACFBC15FF81A39AE7D344FD709F28E8600B4AA8C65C6B64BFE7FE36BD19B SWAP4 PUSH1 0x0 SWAP2 JUMPDEST DUP2 DUP4 LT PUSH2 0x1AA5 JUMPI POP POP PUSH2 0x1974 SWAP4 POP DUP3 ADD ADD CODESIZE DUP1 PUSH2 0x1966 JUMP JUMPDEST DUP6 SLOAD DUP9 DUP5 ADD DUP6 ADD MSTORE SWAP5 DUP6 ADD SWAP5 DUP8 SWAP5 POP SWAP2 DUP4 ADD SWAP2 PUSH2 0x1A8D JUMP JUMPDEST SWAP2 PUSH1 0x7F AND SWAP2 PUSH2 0x1A2E JUMP JUMPDEST PUSH1 0xD SLOAD DUP2 LT ISZERO PUSH2 0x1AFE JUMPI PUSH1 0xD PUSH1 0x0 MSTORE PUSH32 0xD7B6990105719101DABEB77144F2A3385C8033ACD3AF97E9423A695E81AD1EB5 ADD SWAP1 PUSH1 0x0 SWAP1 JUMP JUMPDEST PUSH4 0x4E487B71 PUSH1 0xE0 SHL PUSH1 0x0 MSTORE PUSH1 0x32 PUSH1 0x4 MSTORE PUSH1 0x24 PUSH1 0x0 REVERT JUMPDEST PUSH1 0x0 SLOAD PUSH1 0x1 PUSH1 0x1 PUSH1 0xA0 SHL SUB AND CALLER SUB PUSH2 0x1B28 JUMPI JUMP JUMPDEST PUSH1 0x64 PUSH1 0x40 MLOAD PUSH3 0x461BCD PUSH1 0xE5 SHL DUP2 MSTORE PUSH1 0x20 PUSH1 0x4 DUP3 ADD MSTORE PUSH1 0x20 PUSH1 0x24 DUP3 ADD MSTORE PUSH32 0x4F776E61626C653A2063616C6C6572206973206E6F7420746865206F776E6572 PUSH1 0x44 DUP3 ADD MSTORE REVERT JUMPDEST ISZERO PUSH2 0x1B73 JUMPI JUMP JUMPDEST PUSH1 0x40 MLOAD PUSH3 0x461BCD PUSH1 0xE5 SHL DUP2 MSTORE PUSH1 0x20 PUSH1 0x4 DUP3 ADD MSTORE PUSH1 0x15 PUSH1 0x24 DUP3 ADD MSTORE PUSH21 0x41697264726F70206973206E6F7420616374697665 PUSH1 0x58 SHL PUSH1 0x44 DUP3 ADD MSTORE PUSH1 0x64 SWAP1 REVERT JUMPDEST SWAP2 SWAP1 DUP3 ADD DUP1 SWAP3 GT PUSH2 0x1BBD JUMPI JUMP JUMPDEST PUSH4 0x4E487B71 PUSH1 0xE0 SHL PUSH1 0x0 MSTORE PUSH1 0x11 PUSH1 0x4 MSTORE PUSH1 0x24 PUSH1 0x0 REVERT JUMPDEST ISZERO PUSH2 0x1BDA JUMPI JUMP JUMPDEST PUSH1 0x40 MLOAD PUSH3 0x461BCD PUSH1 0xE5 SHL DUP2 MSTORE PUSH1 0x20 PUSH1 0x4 DUP3 ADD MSTORE PUSH1 0x1B PUSH1 0x24 DUP3 ADD MSTORE PUSH32 0x436F6F6C646F776E20706572696F64206E6F7420656C61707365640000000000 PUSH1 0x44 DUP3 ADD MSTORE PUSH1 0x64 SWAP1 REVERT JUMPDEST ISZERO PUSH2 0x1C26 JUMPI JUMP JUMPDEST PUSH1 0x40 MLOAD PUSH3 0x461BCD PUSH1 0xE5 SHL DUP2 MSTORE PUSH1 0x20 PUSH1 0x4 DUP3 ADD MSTORE PUSH1 0x13 PUSH1 0x24 DUP3 ADD MSTORE PUSH19 0x496E73756666696369656E7420746F6B656E73 PUSH1 0x68 SHL PUSH1 0x44 DUP3 ADD MSTORE PUSH1 0x64 SWAP1 REVERT JUMPDEST ISZERO PUSH2 0x1C68 JUMPI JUMP JUMPDEST PUSH1 0x40 MLOAD PUSH3 0x461BCD PUSH1 0xE5 SHL DUP2 MSTORE PUSH1 0x20 PUSH1 0x4 DUP3 ADD MSTORE PUSH1 0x10 PUSH1 0x24 DUP3 ADD MSTORE PUSH16 0x496E73756666696369656E7420666565 PUSH1 0x80 SHL PUSH1 0x44 DUP3 ADD MSTORE PUSH1 0x64 SWAP1 REVERT JUMPDEST PUSH8 0xFFFFFFFFFFFFFFFF DUP2 GT PUSH2 0x18F0 JUMPI PUSH1 0x1F ADD PUSH1 0x1F NOT AND PUSH1 0x20 ADD SWAP1 JUMP JUMPDEST RETURNDATASIZE ISZERO PUSH2 0x1CE7 JUMPI RETURNDATASIZE SWAP1 PUSH2 0x1CCD DUP3 PUSH2 0x1CA0 JUMP JUMPDEST SWAP2 PUSH2 0x1CDB PUSH1 0x40 MLOAD SWAP4 DUP5 PUSH2 0x1906 JUMP JUMPDEST DUP3 MSTORE RETURNDATASIZE PUSH1 0x0 PUSH1 0x20 DUP5 ADD RETURNDATACOPY JUMP JUMPDEST PUSH1 0x60 SWAP1 JUMP JUMPDEST ISZERO PUSH2 0x1CF3 JUMPI JUMP JUMPDEST PUSH1 0x40 MLOAD PUSH3 0x461BCD PUSH1 0xE5 SHL DUP2 MSTORE PUSH1 0x20 PUSH1 0x4 DUP3 ADD MSTORE PUSH1 0x13 PUSH1 0x24 DUP3 ADD MSTORE PUSH19 0x119959481D1C985B9CD9995C8819985A5B1959 PUSH1 0x6A SHL PUSH1 0x44 DUP3 ADD MSTORE PUSH1 0x64 SWAP1 REVERT JUMPDEST SWAP2 SWAP1 DUP3 SUB SWAP2 DUP3 GT PUSH2 0x1BBD JUMPI JUMP JUMPDEST ISZERO PUSH2 0x1D42 JUMPI JUMP JUMPDEST PUSH1 0x40 MLOAD PUSH3 0x461BCD PUSH1 0xE5 SHL DUP2 MSTORE PUSH1 0x20 PUSH1 0x4 DUP3 ADD MSTORE PUSH1 0xD PUSH1 0x24 DUP3 ADD MSTORE PUSH13 0x1499599D5B990819985A5B1959 PUSH1 0x9A SHL PUSH1 0x44 DUP3 ADD MSTORE PUSH1 0x64 SWAP1 REVERT JUMPDEST PUSH1 0xD SLOAD PUSH9 0x10000000000000000 DUP2 LT ISZERO PUSH2 0x18F0 JUMPI DUP1 PUSH1 0x1 PUSH2 0x1D9B SWAP3 ADD PUSH1 0xD SSTORE PUSH2 0x1AC7 JUMP JUMPDEST DUP2 SWAP3 SWAP2 SLOAD SWAP1 PUSH1 0x3 SHL SWAP2 PUSH1 0x1 DUP1 PUSH1 0xA0 SHL SUB DUP1 SWAP2 AND DUP4 SHL SWAP3 SHL NOT AND OR SWAP1 SSTORE JUMP JUMPDEST PUSH1 0x0 NOT DUP2 EQ PUSH2 0x1BBD JUMPI PUSH1 0x1 ADD SWAP1 JUMP JUMPDEST SWAP1 DUP2 PUSH1 0x20 SWAP2 SUB SLT PUSH2 0x1DE0 JUMPI MLOAD DUP1 ISZERO ISZERO DUP2 SUB PUSH2 0x1DE0 JUMPI SWAP1 JUMP JUMPDEST PUSH1 0x0 DUP1 REVERT JUMPDEST ISZERO PUSH2 0x1DEC JUMPI JUMP JUMPDEST PUSH1 0x40 MLOAD PUSH3 0x461BCD PUSH1 0xE5 SHL DUP2 MSTORE PUSH1 0x20 PUSH1 0x4 DUP3 ADD MSTORE PUSH1 0x15 PUSH1 0x24 DUP3 ADD MSTORE PUSH21 0x151BDAD95B881D1C985B9CD9995C8819985A5B1959 PUSH1 0x5A SHL PUSH1 0x44 DUP3 ADD MSTORE PUSH1 0x64 SWAP1 REVERT JUMPDEST PUSH1 0x2 PUSH1 0x1 SLOAD EQ PUSH2 0x1E3A JUMPI PUSH1 0x2 PUSH1 0x1 SSTORE JUMP JUMPDEST PUSH1 0x40 MLOAD PUSH3 0x461BCD PUSH1 0xE5 SHL DUP2 MSTORE PUSH1 0x20 PUSH1 0x4 DUP3 ADD MSTORE PUSH1 0x1F PUSH1 0x24 DUP3 ADD MSTORE PUSH32 0x5265656E7472616E637947756172643A207265656E7472616E742063616C6C00 PUSH1 0x44 DUP3 ADD MSTORE PUSH1 0x64 SWAP1 REVERT JUMPDEST PUSH1 0x7 SLOAD TIMESTAMP LT ISZERO DUP1 PUSH2 0x1E8D JUMPI SWAP1 JUMP JUMPDEST POP PUSH1 0x8 SLOAD TIMESTAMP GT ISZERO SWAP1 JUMP JUMPDEST PUSH1 0x1 PUSH1 0x1 PUSH1 0xA0 SHL SUB AND PUSH1 0x0 SWAP1 DUP2 MSTORE PUSH1 0xC PUSH1 0x20 MSTORE PUSH1 0x40 SWAP1 KECCAK256 SLOAD DUP1 ISZERO PUSH2 0x1EC4 JUMPI PUSH1 0xB SLOAD PUSH2 0x1EC1 SWAP2 PUSH2 0x1BB0 JUMP JUMPDEST SWAP1 JUMP JUMPDEST POP PUSH1 0x0 SWAP1 JUMP JUMPDEST ISZERO PUSH2 0x1ED1 JUMPI JUMP JUMPDEST PUSH1 0x40 MLOAD PUSH3 0x461BCD PUSH1 0xE5 SHL DUP2 MSTORE PUSH1 0x20 PUSH1 0x4 DUP3 ADD MSTORE PUSH1 0x1E PUSH1 0x24 DUP3 ADD MSTORE PUSH32 0x456E642074696D65206D75737420626520696E20746865206675747572650000 PUSH1 0x44 DUP3 ADD MSTORE PUSH1 0x64 SWAP1 REVERT JUMPDEST PUSH1 0x20 DUP2 DUP4 SUB SLT PUSH2 0x1DE0 JUMPI DUP1 MLOAD SWAP1 PUSH8 0xFFFFFFFFFFFFFFFF DUP3 GT PUSH2 0x1DE0 JUMPI ADD DUP2 PUSH1 0x1F DUP3 ADD SLT ISZERO PUSH2 0x1DE0 JUMPI DUP1 MLOAD PUSH2 0x1F49 DUP2 PUSH2 0x1CA0 JUMP JUMPDEST SWAP3 PUSH2 0x1F57 PUSH1 0x40 MLOAD SWAP5 DUP6 PUSH2 0x1906 JUMP JUMPDEST DUP2 DUP5 MSTORE PUSH1 0x20 DUP3 DUP5 ADD ADD GT PUSH2 0x1DE0 JUMPI PUSH2 0x1EC1 SWAP2 PUSH1 0x20 DUP1 DUP6 ADD SWAP2 ADD PUSH2 0x188C JUMP JUMPDEST PUSH1 0x1 DUP1 PUSH1 0xA0 SHL SUB DUP1 SWAP2 AND SWAP2 PUSH1 0x0 SWAP3 DUP1 DUP5 MSTORE PUSH1 0xE PUSH1 0x20 MSTORE PUSH1 0xFF PUSH1 0x40 DUP6 KECCAK256 SLOAD AND SWAP4 PUSH1 0xF PUSH1 0x20 MSTORE PUSH1 0x40 DUP2 KECCAK256 SLOAD SWAP4 PUSH1 0x10 PUSH1 0x20 MSTORE PUSH1 0x40 DUP3 KECCAK256 SLOAD AND SWAP3 DUP6 PUSH1 0x0 EQ PUSH2 0x201C JUMPI PUSH1 0x5 SLOAD JUMPDEST PUSH1 0x6 SLOAD SWAP1 DUP2 DUP8 MUL SWAP2 DUP8 DUP4 DIV EQ DUP8 ISZERO OR ISZERO PUSH2 0x2008 JUMPI SWAP1 PUSH2 0x1FD5 SWAP2 PUSH2 0x1BB0 JUMP JUMPDEST SWAP3 DUP3 MSTORE PUSH1 0x11 PUSH1 0x20 MSTORE PUSH1 0x40 DUP3 KECCAK256 SLOAD SWAP2 PUSH1 0xC PUSH1 0x20 MSTORE PUSH1 0x40 DUP2 KECCAK256 SLOAD DUP1 ISZERO PUSH1 0x0 EQ PUSH2 0x1FFA JUMPI POP SWAP1 JUMP JUMPDEST PUSH2 0x1EC1 SWAP2 POP PUSH1 0xB SLOAD SWAP1 PUSH2 0x1BB0 JUMP JUMPDEST PUSH4 0x4E487B71 PUSH1 0xE0 SHL DUP5 MSTORE PUSH1 0x11 PUSH1 0x4 MSTORE PUSH1 0x24 DUP5 REVERT JUMPDEST DUP2 PUSH2 0x1FB7 JUMP JUMPDEST PUSH8 0xFFFFFFFFFFFFFFFF DUP2 GT PUSH2 0x18F0 JUMPI PUSH1 0x5 SHL PUSH1 0x20 ADD SWAP1 JUMP JUMPDEST DUP1 MLOAD DUP3 LT ISZERO PUSH2 0x1AFE JUMPI PUSH1 0x20 SWAP2 PUSH1 0x5 SHL ADD ADD SWAP1 JUMP INVALID LOG2 PUSH5 0x6970667358 0x22 SLT KECCAK256 PUSH1 0xC2 EXTCODEHASH 0xD9 SUB PUSH22 0x34F910C80D70CCF1A6837ECE01369EAB1ED715AF9430 PUSH24 0x1F2D3964736F6C6343000813003300000000000000000000 "},"methodIdentifiers":{"airdropAmount()":"fc2ea8a5","airdropDescription()":"3d3c0315","airdropName()":"6c9533d1","claimCooldown()":"fdea3657","endTime()":"3197cbb6","feeAmount()":"69e15404","feeCollector()":"c415b95c","feesPaid(address)":"799ecb34","getAirdropInfo()":"32f08873","getAllParticipants()":"195ec9ee","getNextClaimTime(address)":"93c30c0f","getReferralCount(address)":"24acbd69","getReferrer(address)":"4a9fefc7","getTokenInfo()":"abb1dc44","getTotalParticipants()":"a90cc445","getUserParticipationInfo(address)":"29120142","hasParticipated(address)":"b4fb3ee3","lastClaimTime(address)":"b77cf9c6","owner()":"8da5cb5b","participantAddresses(uint256)":"54ffbddb","participate(address)":"b91038c7","participateWithoutReferral()":"043ea7a9","referralBonus()":"ce7842f5","referralCount(address)":"db74559b","referredBy(address)":"a90f8e9a","renounceOwnership()":"715018a6","setAirdropAmount(uint256)":"a5500c30","setClaimCooldown(uint256)":"59c9eb90","setEndTime(uint256)":"ccb98ffc","setFeeAmount(uint256)":"6b392680","setFeeCollector(address)":"a42dce80","setReferralBonus(uint256)":"9a037aa0","setStartTime(uint256)":"3e0a322d","startTime()":"78e97925","token()":"fc0c546a","transferOwnership(address)":"f2fde38b","updateAirdropTiming(uint256,uint256)":"4b6ce9bc","withdrawFees()":"476343ee","withdrawTokens()":"8d8f2adb"}}}}}